:020000040800F2
:1000000000C00020FDF70008A1BE0008A3BE000844
:10001000A5BE0008A7BE0008A9BE00080000000099
:10002000000000000000000000000000ABBE00085F
:10003000ADBE000800000000AFBE0008B1BE000861
:1000400045F8000845F8000845F80008B5BE000866
:1000500045F8000845F80008C1BE000845F800084A
:1000600045F8000845F8000845F8000845F800087C
:1000700045F8000845F8000845F8000845F800086C
:1000800045F8000845F8000845F8000845F800085C
:1000900045F8000845F8000845F80008C7BE000804
:1000A00045F8000845F8000845F8000845F800083C
:1000B00045F80008CDBE000845F8000845F80008DE
:1000C00045F8000845F8000845F8000845F800081C
:1000D00045F80008D9BE000845F8000845F80008B2
:1000E000F9BE000845F8000845F8000845F8000882
:1000F00045F8000845F8000845F8000845F80008EC
:1001000045F8000845F8000841B7000845F8000820
:1001100045F8000845F8000845F8000845F80008CB
:1001200045F8000845F8000845F8000845F80008BB
:1001300000000000000000000000000000000000BF
:1001400000000000000000000000000000000000AF
:10015000000000000000000000000000000000009F
:10016000000000000000000000000000000000008F
:10017000000000000000000000000000000000007F
:10018000000000000000000000000000000000006F
:10019000000000000000000000000000000000005F
:1001A000000000000000000000000000000000004F
:1001B000000000000000000000000000000000003F
:1001C000000000000000000000000000000000002F
:1001D000000000000000000000000000000000001F
:0401E0005FF8E0F1F3
:1001E80010B5054C237833B9044B13B10448AFF369
:1001F80000800123237010BD600200200000000071
:10020800845E010808B5034B1BB103490348AFF3EB
:10021800008008BD0000000064020020845E010820
:1002280010F8012B11F8013B012A28BF9A42F7D098
:10023800D01A7047034613F8012B002AFBD1181A6D
:100248000138704781F0004102E000BF83F00043AD
:1002580030B54FEA41044FEA430594EA050F08BF59
:1002680090EA020F1FBF54EA000C55EA020C7FEA1D
:10027800645C7FEA655C00F0E2804FEA5454D4EB9A
:100288005555B8BF6D420CDD2C4480EA020281EA64
:10029800030382EA000083EA010180EA020281EA9C
:1002A8000303362D88BF30BD11F0004F4FEA0131EE
:1002B8004FF4801C4CEA113102D0404261EB4101FD
:1002C80013F0004F4FEA03334CEA133302D0524283
:1002D80063EB430394EA050F00F0A780A4F101043F
:1002E800D5F1200E0DDB02FA0EFC22FA05F2801879
:1002F80041F1000103FA0EF2801843FA05F359415F
:100308000EE0A5F120050EF1200E012A03FA0EFCDD
:1003180028BF4CF0020C43FA05F3C01851EBE37107
:1003280001F0004507D54FF0000EDCF1000C7EEB24
:1003380000006EEB0101B1F5801F1BD3B1F5001F62
:100348000CD349085FEA30004FEA3C0C04F1010481
:100358004FEA445212F5800F80F09A80BCF1004FAA
:1003680008BF5FEA500C50F1000041EB045141EA2C
:10037800050130BD5FEA4C0C404141EB0101013CF5
:1003880028BFB1F5801FE9D291F0000F04BF0146E4
:100398000020B1FA81F308BF2033A3F10B03B3F1B6
:1003A80020020CDA0C3208DD02F1140CC2F10C0246
:1003B80001FA0CF021FA02F10CE002F11402D8BFA4
:1003C800C2F1200C01FA02F120FA0CFCDCBF41EA70
:1003D8000C019040E41AA2BF01EB0451294330BD3F
:1003E8006FEA04041F3C1CDA0C340EDC04F114041C
:1003F800C4F1200220FA04F001FA02F340EA0300F3
:1004080021FA04F345EA030130BDC4F10C04C4F138
:10041800200220FA02F001FA04F340EA0300294618
:1004280030BD21FA04F0294630BD94F0000F83F462
:10043800801306BF81F480110134013D4EE77FEA45
:10044800645C18BF7FEA655C29D094EA050F08BF91
:1004580090EA020F05D054EA000C04BF1946104672
:1004680030BD91EA030F1EBF0021002030BD5FEAB6
:10047800545C05D14000494128BF41F0004130BDDE
:1004880014F580043CBF01F5801130BD01F0004532
:1004980045F0FE4141F470014FF0000030BD7FEAA5
:1004A800645C1ABF194610467FEA655C1CBF0B46A0
:1004B800024650EA013406BF52EA033591EA030FB7
:1004C80041F4002130BD00BF90F0000F04BF0021AF
:1004D800704730B54FF4806404F132044FF00005E2
:1004E8004FF0000150E700BF90F0000F04BF00215B
:1004F800704730B54FF4806404F1320410F00045C1
:1005080048BF40424FF000013EE700BF42004FEABB
:10051800E2014FEA31014FEA02701FBF12F07F4338
:1005280093F07F4F81F06051704732F07F4208BFEF
:10053800704793F07F4F04BF41F40021704730B5F6
:100548004FF4607401F0004521F000411CE700BF42
:1005580050EA010208BF704730B54FF000050AE0C5
:1005680050EA010208BF704730B511F0004502D5C6
:10057800404261EB41014FF4806404F132045FEAC8
:10058800915C3FF4D8AE4FF003025FEADC0C18BF71
:1005980003325FEADC0C18BF033202EBDC02C2F163
:1005A800200300FA03FC20FA02F001FA03FE40EAF5
:1005B8000E0021FA02F11444BDE600BF70B54FF0F9
:1005C800FF0C4CF4E06C1CEA11541DBF1CEA1355D7
:1005D80094EA0C0F95EA0C0F00F0DEF82C4481EA3F
:1005E800030621EA4C5123EA4C5350EA013518BF5F
:1005F80052EA033541F4801143F4801338D0A0FB4C
:1006080002CE4FF00005E1FB02E506F00042E0FBF8
:1006180003E54FF00006E1FB03569CF0000F18BFFE
:100628004EF0010EA4F1FF04B6F5007F64F54074A6
:1006380004D25FEA4E0E6D4146EB060642EAC62139
:1006480041EA55514FEAC52040EA5E504FEACE2EA6
:10065800B4F1FD0C88BFBCF5E06F1ED8BEF1004FA9
:1006680008BF5FEA500E50F1000041EB045170BD25
:1006780006F0004646EA010140EA020081EA030169
:10068800B4EB5C04C2BFD4EB0C0541EA045170BD65
:1006980041F480114FF0000E013C00F3AB8014F1DF
:1006A800360FDEBF002001F0004170BDC4F1000428
:1006B800203C35DA0C341BDC04F11404C4F12005A9
:1006C80000FA05F320FA04F001FA05F240EA020004
:1006D80001F0004221F0004110EBD37021FA04F63A
:1006E80042EB06015EEA430E08BF20EAD37070BDF4
:1006F800C4F10C04C4F1200500FA04F320FA05F053
:1007080001FA04F240EA020001F0004110EBD37054
:1007180041F100015EEA430E08BF20EAD37070BDC4
:10072800C4F1200500FA05F24EEA020E20FA04F39D
:1007380001FA05F243EA020321FA04F001F000414C
:1007480021FA04F220EA020000EBD3705EEA430EBD
:1007580008BF20EAD37070BD94F0000F0FD101F0EC
:100768000046400041EB010111F4801F08BF013C25
:10077800F7D041EA060195F0000F18BF704703F063
:100788000046520043EB030313F4801F08BF013DEA
:10079800F7D043EA0603704794EA0C0F0CEA1355A6
:1007A80018BF95EA0C0F0CD050EA410618BF52EA60
:1007B8004306D1D181EA030101F000414FF0000066
:1007C80070BD50EA410606BF1046194652EA430674
:1007D80019D094EA0C0F02D150EA013613D195EAE8
:1007E8000C0F05D152EA03361CBF104619460AD130
:1007F80081EA030101F0004141F0FE4141F470013A
:100808004FF0000070BD41F0FE4141F4780170BD29
:1008180070B54FF0FF0C4CF4E06C1CEA11541DBF8E
:100828001CEA135594EA0C0F95EA0C0F00F0A7F890
:10083800A4EB050481EA030E52EA03354FEA0131BD
:1008480000F088804FEA03334FF0805545EA1313D0
:1008580043EA12634FEA022245EA111545EA106598
:100868004FEA00260EF000419D4208BF964244F12F
:10087800FD0404F5407402D25B084FEA3202B61A4E
:1008880065EB03055B084FEA32024FF480104FF422
:10089800002CB6EB020E75EB030E22BFB61A754696
:1008A80040EA0C005B084FEA3202B6EB020E75EB29
:1008B800030E22BFB61A754640EA5C005B084FEA91
:1008C8003202B6EB020E75EB030E22BFB61A75465E
:1008D80040EA9C005B084FEA3202B6EB020E75EB69
:1008E800030E22BFB61A754640EADC0055EA060E2A
:1008F80018D04FEA051545EA16754FEA06164FEA6D
:10090800C30343EA52734FEAC2025FEA1C1CC0D118
:1009180011F4801F0BD141EA00014FF000004FF0A5
:10092800004CB6E711F4801F04BF01430020B4F166
:10093800FD0C88BFBCF5E06F3FF6AFAEB5EB030C1E
:1009480004BFB6EB020C5FEA500C50F1000041EB1B
:10095800045170BD0EF0004E4EEA113114EB5C04E8
:10096800C2BFD4EB0C0541EA045170BD41F48011BB
:100978004FF0000E013C90E645EA060E8DE60CEAC3
:10098800135594EA0C0F08BF95EA0C0F3FF43BAFE0
:1009980094EA0C0F0AD150EA01347FF434AF95EA97
:1009A8000C0F7FF425AF104619462CE795EA0C0F7B
:1009B80006D152EA03353FF4FDAE1046194622E748
:1009C80050EA410618BF52EA43067FF4C5AE50EA22
:1009D80041047FF40DAF52EA43057FF4EBAE12E712
:1009E8004FF0FF3C06E000BF4FF0010C02E000BFF3
:1009F8004FF0010C4DF804CD4FEA410C7FEA6C5CD6
:100A08004FEA430C18BF7FEA6C5C1BD001B050EA78
:100A1800410C0CBF52EA430C91EA030F02BF90EA63
:100A2800020F0020704710F1000F91EA030F58BF22
:100A3800994208BF90422CBFD8176FEAE37040F084
:100A4800010070474FEA410C7FEA6C5C02D150EA22
:100A5800013C07D14FEA430C7FEA6C5CD6D152EADD
:100A6800033CD3D05DF8040B704700BF84461046A2
:100A780062468C461946634600E000BF01B5FFF7A1
:100A8800B7FF002848BF10F1000F01BD4DF808ED71
:100A9800FFF7F4FF0CBF012000205DF808FB00BF42
:100AA8004DF808EDFFF7EAFF34BF012000205DF89C
:100AB80008FB00BF4DF808EDFFF7E0FF94BF0120E9
:100AC80000205DF808FB00BF4DF808EDFFF7CEFFEA
:100AD80094BF012000205DF808FB00BF4DF808ED29
:100AE800FFF7C4FF34BF012000205DF808FB00BFFA
:100AF8004FEA410C7FEA6C5C02D150EA013C0AD112
:100B08004FEA430C7FEA6C5C02D152EA033C02D103
:100B18004FF0000070474FF0010070474A0011D2B3
:100B280012F5001211D20DD56FF47873B3EB62523F
:100B38000ED44FEAC12343F0004343EA505323FA4B
:100B480002F070474FF00000704750EA013002D1C0
:100B58004FF0FF3070474FF0000070474FEA4102F6
:100B6800B2F1E04324BFB3F5001CDCF1FE5C0DD903
:100B780001F0004C4FEAC0024CEA5070B2F1004F4D
:100B880040EB830008BF20F00100704711F0804F50
:100B980021D113F13872BCBF01F00040704741F415
:100BA80080114FEA5252C2F11802C2F1200C10FA19
:100BB8000CF320FA02F018BF40F001004FEAC123FD
:100BC8004FEAD32303FA0CFC40EA0C0023FA02F3A1
:100BD8004FEA4303CCE77FEA625307D150EA013377
:100BE8001EBF4FF0FE4040F44000704701F0004047
:100BF80040F0FE4040F40000704700BF80F0004025
:100C080002E000BF81F0004142001FBF5FEA4103DC
:100C180092EA030F7FEA226C7FEA236C6AD04FEADC
:100C28001262D2EB1363C1BFD21841404840414021
:100C3800B8BF5B42192B88BF704710F0004F40F4D3
:100C4800000020F07F4018BF404211F0004F41F4EF
:100C5800000121F07F4118BF494292EA030F3FD0BB
:100C6800A2F1010241FA03FC10EB0C00C3F12003CE
:100C780001FA03F100F0004302D5494260EB40005D
:100C8800B0F5000F13D3B0F1807F06D340084FEAC8
:100C9800310102F10102FE2A51D2B1F1004F40EBBD
:100CA800C25008BF20F0010040EA03007047490025
:100CB80040EB0000013A28BFB0F5000FEDD2B0FAC2
:100CC80080FCACF1080CB2EB0C0200FA0CF0AABFE5
:100CD80000EBC25052421843BCBFD0401843704783
:100CE80092F0000F81F4000106BF80F40000013289
:100CF800013BB5E74FEA41037FEA226C18BF7FEA60
:100D0800236C21D092EA030F04D092F0000F08BFA1
:100D18000846704790EA010F1CBF0020704712F088
:100D28007F4F04D1400028BF40F00040704712F1C7
:100D380000723CBF00F50000704700F0004343F02C
:100D4800FE4040F4000070477FEA226216BF084662
:100D58007FEA23630146420206BF5FEA412390EA25
:100D6800010F40F4800070474FF0000304E000BF1B
:100D780010F0004348BF40425FEA000C08BF7047CC
:100D880043F0964301464FF000001CE050EA010290
:100D980008BF70474FF000030AE000BF50EA0102A5
:100DA80008BF704711F0004302D5404261EB410192
:100DB8005FEA010C02BF84460146002043F0B643B7
:100DC80008BFA3F18053A3F50003BCFA8CF2083ADC
:100DD800A3EBC25310DB01FA02FC634400FA02FCE5
:100DE800C2F12002BCF1004F20FA02F243EB0200EC
:100DF80008BF20F00100704702F1200201FA02FC4E
:100E0800C2F1200250EA4C0021FA02F243EB020040
:100E180008BF20EADC7070474FF0FF0C1CEAD05284
:100E28001EBF1CEAD15392EA0C0F93EA0C0F6FD045
:100E38001A4480EA010C400218BF5FEA41211ED023
:100E48004FF0006343EA501043EA5111A0FB01310F
:100E58000CF00040B1F5000F3EBF490041EAD371E4
:100E68005B0040EA010062F17F02FD2A1DD8B3F160
:100E7800004F40EBC25008BF20F00100704790F0CF
:100E8800000F0CF0004C08BF49024CEA502040EA21
:100E980051207F3AC2BFD2F1FF0340EAC2507047E7
:100EA80040F400004FF00003013A5DDC12F1190F25
:100EB800DCBF00F000407047C2F10002410021FA97
:100EC80002F1C2F1200200FA02FC5FEA310040F1AF
:100ED800000053EA4C0308BF20EADC70704792F028
:100EE800000F00F0004C02BF400010F4000F013A60
:100EF800F9D040EA0C0093F0000F01F0004C02BF5B
:100F0800490011F4000F013BF9D041EA0C018FE7C9
:100F18000CEAD15392EA0C0F18BF93EA0C0F0AD0CF
:100F280030F0004C18BF31F0004CD8D180EA0100F5
:100F380000F00040704790F0000F17BF90F0004F8E
:100F4800084691F0000F91F0004F14D092EA0C0F70
:100F580001D142020FD193EA0C0F03D14B0218BF03
:100F6800084608D180EA010000F0004040F0FE4049
:100F780040F40000704740F0FE4040F440007047E5
:100F88004FF0FF0C1CEAD0521EBF1CEAD15392EA64
:100F98000C0F93EA0C0F69D0A2EB030280EA010C54
:100FA80049024FEA402037D04FF0805343EA1111ED
:100FB80043EA10130CF000408B4238BF5B0042F14B
:100FC8007D024FF4000C8B4224BF5B1A40EA0C00F0
:100FD800B3EB510F24BFA3EB510340EA5C00B3EB22
:100FE800910F24BFA3EB910340EA9C00B3EBD10F10
:100FF80024BFA3EBD10340EADC001B0118BF5FEA62
:101008001C1CE0D1FD2A3FF650AF8B4240EBC2508A
:1010180008BF20F0010070470CF0004C4CEA50204B
:101028007F32C2BFD2F1FF0340EAC250704740F49A
:1010380000004FF00003013A37E792F0000F00F08C
:10104800004C02BF400010F4000F013AF9D040EA0A
:101058000C0093F0000F01F0004C02BF490011F49E
:10106800000F013BF9D041EA0C0195E70CEAD15396
:1010780092EA0C0F08D142027FF47DAF93EA0C0F7D
:101088007FF470AF084676E793EA0C0F04D14B0261
:101098003FF44CAF08466EE730F0004C18BF31F013
:1010A800004CCAD130F000427FF45CAF31F000430D
:1010B8007FF43CAF5FE700BF4FF0FF3C06E000BFA6
:1010C8004FF0010C02E000BF4FF0010C4DF804CDC9
:1010D8004FEA40024FEA41037FEA226C18BF7FEAD9
:1010E800236C11D001B052EA530C18BF90EA010FDB
:1010F80058BFB2EB030088BFC81738BF6FEAE1706A
:1011080018BF40F0010070477FEA226C02D15FEA05
:10111800402C05D17FEA236CE4D15FEA412CE1D071
:101128005DF8040B704700BF844608466146FFE738
:101138000FB5FFF7C9FF002848BF10F1000F0FBD1A
:101148004DF808EDFFF7F4FF0CBF012000205DF813
:1011580008FB00BF4DF808EDFFF7EAFF34BF012098
:1011680000205DF808FB00BF4DF808EDFFF7E0FF31
:1011780094BF012000205DF808FB00BF4DF808ED82
:10118800FFF7D2FF94BF012000205DF808FB00BFE5
:101198004DF808EDFFF7C8FF34BF012000205DF8C7
:1011A80008FB00BF4FEA4002B2F1FE4F0FD34FF0E9
:1011B8009E03B3EB12620DD94FEA002343F00043BC
:1011C80010F0004F23FA02F018BF404270474FF06A
:1011D8000000704712F1610F01D1420205D110F0F1
:1011E800004008BF6FF0004070474FF000007047A4
:1011F80042000ED2B2F1FE4F0BD34FF09E03B3EB79
:10120800126209D44FEA002343F0004323FA02F0A4
:1012180070474FF00000704712F1610F01D1420290
:1012280002D14FF0FF3070474FF00000704700BF09
:101238007BB972B90029BEBF00204FF0004106E01B
:1012480008BF00281CBF6FF000414FF0FF3000F0CE
:10125800F5B9ADF1080C6DE904CE002909DB002BC6
:101268001ADB00F085F8DDF804E0DDE9022304B0BC
:101278007047404261EB4101002B1BDB00F078F81E
:10128800DDF804E0DDE9022304B0404261EB4101EE
:10129800524263EB43037047524263EB430300F04F
:1012A80067F8DDF804E0DDE9022304B0404261EBB1
:1012B80041017047524263EB430300F059F8DDF8EF
:1012C80004E0DDE9022304B0524263EB43037047B4
:1012D80053B94AB9002908BF00281CBF4FF0FF3195
:1012E8004FF0FF3000F0AAB9ADF1080C6DE904CE5B
:1012F80000F03EF8DDF804E0DDE9022304B07047B1
:1013080038B505460C460022002328462146FFF73B
:10131800C7FB28B928462146BDE8384000F00AB87E
:10132800284604F1004100F005F8404261EB410114
:1013380038BD00BFD0B500220B4B06460F46FFF75D
:101348003DF9FFF7EBFB0446FFF7BEF80022074B19
:10135800FFF734F902460B4630463946FEF776FF6A
:10136800FFF7DCFB2146D0BD0000F03D0000F04156
:101378002DE9F047089E0D4604468E46002B4CD1B9
:101388008A42944667D9B2FA82F353B102FA03FC4F
:10139800C3F1200201FA03FE20FA02F242EA0E0E1D
:1013A8009C404FEA1C47BEFBF7F11FFA8CF507FB80
:1013B80011EE01FB05F0220C42EA0E4290420AD9D6
:1013C8001CEB020201F1FF3E80F01981904240F2CD
:1013D800168102396244121AB2FBF7F007FB102299
:1013E80000FB05F5A4B244EA0244A5420AD91CEB65
:1013F800040400F1FF3280F00481A54240F201812B
:101408006444023840EA01400021641B1EB1DC40FC
:101418000023C6E90043BDE8F0878B4208D9002EB7
:1014280000F0EA800021C6E900050846BDE8F0871B
:10143800B3FA83F1002948D1AB4202D3824200F2C9
:10144800F880841A65EB030201209646002EE2D04C
:10145800C6E9004EDFE702B9FFDEB2FA82F3002BDD
:1014680040F08E80881A0121170C1FFA82FEB0FB0B
:10147800F7F507FB1500220C42EA00420EFB05F0C7
:10148800904208D91CEB020205F1FF3802D29042C3
:1014980000F2CC804546121AB2FBF7F007FB102287
:1014A8000EFB00FEA4B244EA0244A64508D91CEB90
:1014B800040400F1FF3202D2A64500F2B4801046BF
:1014C800A4EB0E0440EA0540A0E7C1F120078B40D9
:1014D80022FA07FC4CEA030C25FA07FA4FEA1C49E2
:1014E800BAFBF9F88D4020FA07F309FB18AA1FFA8E
:1014F8008CFE2B4300FA01F508FB0EF01C0C44EAA5
:101508000A44A04202FA01F20BD91CEB040408F1C8
:10151800FF3A80F08680A04240F28380A8F102085A
:101528006444241A98B2B4FBF9F309FB134403FB8F
:101538000EFE40EA0444A64508D91CEB040403F156
:10154800FF306AD2A64568D9023B644443EA0840A2
:10155800A0FB0293A4EB0E049C42C8469E4654D3BB
:1015680051D0002E67D0B5EB080364EB0E04CB40D6
:1015780004FA07F71F43CC40C6E9007400214AE784
:1015880002FA03FCC3F12000C1409D4024FA00F098
:101598004FEA1C472843B1FBF7F507FB15111FFA63
:1015A8008CFE020C42EA014205FB0EF1914204FA5C
:1015B80003F408D91CEB020205F1FF382FD291423F
:1015C8002DD9023D6244521AB2FBF7F107FB1122F2
:1015D80080B240EA024001FB0EF2824208D91CEBBD
:1015E800000001F1FF3816D2824214D90239604452
:1015F800801A41EA05413AE7314630460BE7714621
:10160800E9E61046FEE64D45ABD2B9EB020863EBBE
:101618000C0E0138A5E74146EAE7034696E745463A
:10162800D1E7D0467DE76444023849E7023D624489
:1016380031E708460AE73146EDE600BF704700BFCC
:1016480009F068BC10B5044609F08AFC230A5B005F
:10165800603B03F0FE0009F02FFD09F0C3FCE0B287
:1016680009F02AFD09F0BEFC09F07AFCA12009F076
:1016780023FD09F0B7FC002009F04CFD044609F0F1
:101688008FFC204610BD38B504460D4609F068FCAD
:10169800230A5B00603B03F0FE0009F00DFD09F032
:1016A800A1FCE0B209F008FD09F09CFC284609F00D
:1016B80003FD09F097FC09F073FCBDE838400A20E7
:1016C80000F032BD70B50D468418A4B2A04200D116
:1016D80070BD461CFFF7B6FFB6B205F8010B3046E1
:1016E800F4E770B504460E468518ADB2AC4200D199
:1016F80070BD204616F8011B0134FFF7C4FFA4B2E1
:10170800F4E7000010B5094C22682046136823F05E
:10171800400313600023C4E904330FF0CDF82268B6
:10172800136843F04003136010BD00BFA4430020BA
:10173800294B2DE9F0419A6986B042F004029A617A
:101748009A69012402F004020092009A9A6910270B
:1017580042F010029A619B694FF0020803F01003EF
:101768000193019B1C23CDE90234032300261B4D62
:1017780002A92846059304940EF0ECF902A918482A
:1017880002970EF0E7F9284602A9CDE902860EF085
:10179800E1F92246414628460EF0CAFA2246284672
:1017A80004210EF0C5FA2246284608210EF0C0FA98
:1017B8002246394628460EF0BBFA0AF085FAFFF7AA
:1017C800A1FF084BC3F8906103F58033C3F890413B
:1017D80006B0BDE8F08100BF0010024000080140DB
:1017E80000100140000021422DE9F04105460C4659
:1017F800142010F05FF855EA040306460FD080461F
:101808000746012D74F10002A7EB06030CDAF21863
:1018180006EB6303984513D100233B7001E03023A6
:1018280003803046BDE8F081284621460A2200237D
:10183800FFF7FEFC303205460C4607F8012BE0E7BF
:1018480098F8001012F8010D08F8010B1170E1E783
:101858002DE9F04F00240E46A3B06022214605462C
:101868000AA8099411F054FA3046FEF7E3FCA046A2
:1018780007462346BB420EDB04F188030DEB030445
:10188800002309A804F8643C11F00EF9284609A9B8
:1018980000F0C6F933E0F25CF1182D2A03D0A2F16A
:1018A8002A00012807D804F18801694401F8642C4A
:1018B80001340133DEE7303A012AFAD80DF1100C71
:1018C8000022604611F801EB02EB0309AEF1300A81
:1018D800BAF1010F17D902F188030DEB030202F8E0
:1018E800788C03A9022210F0ADFF039B93F800A0A7
:1018F800BAF1000F0BD004232B6000236B6028463D
:1019080023B0BDE8F08F01320CF801EBDAE7C1171C
:10191800FFF76AFF2246834609AB234458460193E2
:101928000AEB02040092FEF785FCDDE9002350452E
:1019380002D809F1FF33BCE71BF80A100AF1010AC3
:1019480003F8011BEAE700002DE9F04F04468BB0CD
:101958004FF4006009F092FE064640B14FF414704F
:1019680009F08CFE814620B9304609F089FE112421
:101978005BE02146012202F0BBF9044600284ED163
:1019880031464FF400620DF12603484602F0F7FA9B
:10199800F28B6F4CC2F3C703B2690193A26096F849
:1019A8002030726907936260B6F80CB009F09CFDAC
:1019B8006268019BA7685A4391071CBF22F0030283
:1019C800043293B20693BBB21F4604934FF40063EC
:1019D800002502930123E268A8462C465743DFF806
:1019E80070A1C7F34F37059303950095029B9B455C
:1019F8001FD30DF1260331464846029A02F0BFFA7A
:101A0800BDF826300293034618B9029A002A40F01E
:101A18009C804846009302F035FC009B1C463046EB
:101A280009F02EFE484609F02BFE20460BB0BDE813
:101A3800F08F019B032B08D1012D79D0022D7ED088
:101A480055B916F80B40E40806E0019B022B6BD150
:101A5800002D51D0012D5CD00BF1010301351FFA87
:101A680083FB019BEDB2AB4224D1DAF80420009B42
:101A7800934219D2DAF80C2039465A43C2F34F3848
:101A88004046012209F09AFD70B1059B63B1DAF86E
:101A98001C10DAF818002F4A0139394440445568B7
:101AA80089B2224680B2A84700252C46009A013206
:101AB80093B20093039A013293B20393039A069B5D
:101AC800934293D8049B5A1E93B20493002B90D050
:101AD800DAF80C7000225F43C7F34F3739464046A7
:101AE80009F06CFD031E4FF0000518BF01232C46BA
:101AF80005930395009579E7079B16F80B4033B9D2
:101B080004F01F02640004F4E0741444A4E7A4B2CF
:101B1800A2E7079B16F80B201BB904EB422294B2EC
:101B28009AE704EB0222FAE7019B042B94D183E79E
:101B380016F80B20D20002F4FC622244EFE716F8F4
:101B48000B10054A02EA0122F7E79B464EE700BF61
:101B5800144300200043002000F8FFFFD0F8943120
:101B68002DE97043002B044654DDD0F89031002B4A
:101B780050DBC35C282B2AD00AF05EF905462046C4
:101B88000AF05AF9064620460AF03EF92F280AD8E4
:101B980029283DD9A0F12A03052B39D8DFE803F01D
:101BA800192E3833381E5E2832D12846FEF7AEFC8F
:101BB800804689463046FEF7A9FC42464B4613F05C
:101BC8007BF8FEF7CBFF014620460AF025F90020F6
:101BD8000DE031462846FFF71FF9F4E700212846B3
:101BE800FFF7AEFA28B10C4810F05EFF0120BDE8FF
:101BF800708329463046FFF7C3F9E4E731462846A3
:101C0800FFF702F8DFE729463046FEF7FBFFDAE781
:101C18000020D8E70320EAE7525F0108000000002F
:101C28002DE9F04F814685B000200F460AF0D4F820
:101C3800282104464FF0000A0AF0D8F83846FEF783
:101C4800F9FA504580460BD220460AF0F5F80025EF
:101C5800C9F804004846C9F8005005B0BDE8F08F3F
:101C680040F2BE8017F80A10A1F13003092B68D999
:101C78002F2900F2A680272940F2A58028390729B4
:101C880000F2A180DFE801F0A2ACCACE9FD09FCCC1
:101C9800514630460093FFF7BFF8009B06461846AA
:101CA800FFF766F801463046FEF7AEFF7249FEF7C9
:101CB800A9FF064601357B5DA3F13002092A45D903
:101CC8002E2B00F0B5805E2B42D1454540D2D4F88A
:101CD8009031E35C5E2B3BD07B195B78283B012B72
:101CE80036D90020654ADFF890B101357B5DA3F154
:101CF8003001092901D8A84544D8FEF707FC8246D7
:101D080030468B46FEF702FC02460B46CDE900231F
:101D180012F0A0FF02460B4650465946FEF74EFC0D
:101D280053A3D3E90023FEF7D9FE00287ED1DDE9CD
:101D3800000152465B4612F0BFFFFEF70FFF064652
:101D480006E055460026DFF834A1B4E745459FD3A1
:101D5800314620460AF060F8D4F8903105F1FF3A90
:101D6800E35C2A2B01D02F2B20D17B5D5E2B1DD06D
:101D78002046FFF7F3FE0546C0B120460FF0A2FD4E
:101D8800002065E7114600920393FFF745F8039B8F
:101D980082461846FEF7ECFF01465046FEF734FF30
:101DA8005946FEF72FFF0135009A9FE7D4F8903186
:101DB800E35C5E2B07D12046FFF7D0FE054610B145
:101DC800DBE75E2903D00AF1010A37E7282120461C
:101DD8000AF00CF8F7E7FFF7C1FE05460028CCD15A
:101DE800D4F890312046E35C282BF4D10AF00CF8A3
:101DF800D4F89031E35C5E2B05D12046FFF7AEFEA8
:101E080005460028B9D1D4F89031E35C2A2BDAD101
:101E180007EB0A035B785E2BD5D0CCE72A21D6E7FF
:101E28002F21D4E72B21D2E72D21D0E70425A7E7DE
:101E380045458DD2DFF848B00135785D3038C2B2FB
:101E4800092A3FF638AFA8457FF635AFFEF790FF71
:101E58005946FEF7E1FF01463046FEF7D5FE5146EA
:101E680006465846FFF78CF801358346E5E700BF7C
:101E7800EF39FAFE422E3640000040420000204171
:101E8800CDCCCC3D052000F035B900000E4B10B587
:101E98009A6986B042F010029A619B69012403F0A6
:101EA80010030193019B0923CDE90234032307485A
:101EB80002A9059304940DF04DFE054BC3F880412B
:101EC800C3F88C4106B010BD00100240001001405C
:101ED8000000224238B50D4B00251A680C4C22F43C
:101EE80070421A601A681E2042F440521A60012398
:101EF800C4F88C31C4F8803100F0FCF8C4F88C5177
:101F0800FFF7C0FFC4F8805138BD00BF0010014082
:101F18000000224238B501250B4B0C4C1A681E20D4
:101F280022F470421A601A6842F440521A60C4F8E7
:101F3800805100F0DFF80023C4F88C31FFF7A2FFCE
:101F4800C4F88C5138BD00BF001001400000224287
:101F580038B5114B114D1A68FB2422F470421A60EF
:101F68001A6842F400421A600123C5F88C31C5F89A
:101F78008031FFF787FFD5F80C0110B9C5F880014B
:101F880006E0013C14F0FF0403D1FFF7C3FF012072
:101F980038BDFFF777FFEEE700100140000022424E
:101FA80038B500250C4C0D4BC4F880511A6822F442
:101FB80070421A601A6842F440521A60FFF762FFD2
:101FC800C4F88C51FFF75EFF0123C4F88031FFF796
:101FD80059FFC4F8805138BD00002242001001406A
:101FE80070B5002501260C4C0C4BC4F880511A68BA
:101FF80022F470421A601A6842F440521A60FFF7DD
:1020080041FFC4F88C61FFF73DFFC4F88061FFF71A
:1020180039FFC4F8805170BD000022420010014011
:102028002DE9F0410027124B124E1A68044622F49B
:1020380070421A601A68082542F440521A60C6F8BD
:102048008071FFF71FFF4FF00108E309C6F88C31D4
:10205800C6F88081FFF716FF013DC6F88071FFF7CB
:1020680011FF640015F0FF05E4B2EED1BDE8F08180
:1020780000100140000022422DE9F8430024164BCD
:1020880006461A681E2022F470421A601A6808254B
:1020980042F400421A6000F02DF8A1464FF0010802
:1020A8000E4FC7F88091FFF7EDFEC7F88081D7F88B
:1020B8000C316400E4B20BB10134E4B2013D15F017
:1020C800FF05EED126B9FFF78BFF2046BDE8F88360
:1020D800FFF766FFF9E700BF001001400000224249
:1020E80010B5044604200DF069FC014B1C6010BDBE
:1020F8007C0200200B4B70B51B684FF0E02458435E
:1021080000236569A169A2699142FCD095BFAE1A06
:102118005B189B199B1A98BF5B18834200D370BD4C
:102128001146F0E77C02002038B505460024A54298
:1021380000D838BD4FF47A70FFF7DCFF0134F6E7BA
:102148000020704708B518B1012807D0012008BD44
:1021580008F05EFD003818BF0120F8E70DF0FEF921
:102168000020F4E770B50D4616461C46EBB118B1D1
:1021780001280DD0012070BDDCB222463146284628
:1021880008F006FE08B90020F5E708F041FDF4E77D
:10219800C1EB42262846A9194FF400720DF01CFA2B
:1021A800013C05F50075F5D1EDE70420E3E770B5CE
:1021B8000D4616461C46EBB118B101280DD001207A
:1021C80070BDDCB222463146284608F015FE08B933
:1021D8000020F5E708F01CFDF4E7C1EB422628468D
:1021E800A9194FF400720DF0B3FA013C05F500751A
:1021F800F5D1EDE70420E3E710B5144688B90329C3
:102208001ED8DFE801F01E0902064FF400732360B0
:1022180005E00823238002E008F0C6FC20600021C6
:102228000FE0012815D103290AD801A353F821F09A
:102238004B220008552200084F2200081B220008E4
:102248000421084610BD4FF40073E3E7024B1B88D6
:10225800DDE70121F5E700BF0000002000207047FE
:1022680008F098BB08F08CBB70B54FF40D7008F0FF
:1022780091FB164C206020B34FF40D7008F08AFBD8
:10228800002860600CBF012402244FF4147008F089
:1022980081FB0F4E0F4D30604FF4147008F07AFB3D
:1022A80028604FF4007008F075FB0B4B022C186087
:1022B80009D133683BB12B682BB1B0FA80F04009E3
:1022C80070BD0446E1E70120FAE700BF880200205C
:1022D800840200209002002080020020602884BF31
:1022E8002038C0B2704700000023F7B502461178C5
:1022F8000133DBB2013019B1FA2BF7D1FF2027E007
:10230800FA2BFBD0531F114611F8010C013A2E2865
:1023180002D09A42F7D10021684610F0D6FD042574
:102328006B461878FFF7DAFF013D15F0FF0503F853
:10233800010BF6D10C4E3746002457F8040B0378EE
:1023480063B16946FDF76CFF20B944EA0510C0B2D5
:1023580003B0F0BD0134E4B2042CEED10135072DF1
:1023680006F11006E7D1C9E7A85F010800687047C1
:1023780003460068596870470B0A017043700B0CDC
:10238800090E8370C1707047110A02704170110CF8
:10239800120EC2701A0A037142711A0C1B0E817058
:1023A8008271C3717047024400F8011B9042FBD14F
:1023B800704783690239023B8B4283BF4389C06AF5
:1023C80001FB030000207047194638B50368550A19
:1023D800846C5A8945EAC1500023490AFEF778FF00
:1023E80002460434206830B1824202D3121A0834FB
:1023F800F8E76068104438BDC2F307238A76CB76C5
:102408000378032B01BF120C0A75120A4A7570472C
:10241800034600F10B010020C20142EA500213F802
:10242800010B02448B4202F0FF00F5D1704710B552
:10243800044641780020024601314901022A0CBFB6
:102448000322A35C02F101021FBF03EBC0339BB25E
:1024580003EB500398B29142F0D810BD03680146CF
:1024680010B553B11846024610F8014B1F2C10D96D
:102478003A2CF8D1581C824202D04FF0FF3007E0C6
:102488001B78A3F13000C3B2012BF6D801320A60E1
:1024980010BD0020FCE738B50D46044618B90023E6
:1024A80009202B6038BD0368002BF8D01A78002A61
:1024B800F5D0D98882889142F1D15878FFF740FE4B
:1024C80010F00100EBD12368EBE738B5054600248E
:1024D80035F8020B08B9204638BD08F009FD620836
:1024E80002EBC432C3B21A4492B2030A03EB52039A
:1024F80003EBC2339CB2EBE701380A4411F8013B05
:10250800914200F8013FF9D170472DE9F041066B7F
:1025180000F1340804460123324641464078FFF76B
:1025280046FE0546A8B9636AE269F31A9342E07069
:1025380002D2A778012F02D82846BDE8F081E369C6
:1025480041461E44324601236078FFF730FE013FC2
:10255800F0E70125F0E7C3780BB1FFF7D6BF1846BF
:10256800704738B5036B05468B420C4610D0FFF711
:10257800F2FF60B922460123687805F13401FFF7BC
:10258800F1FD00281CBF4FF0FF3401202C6338BD3B
:102598000020FCE70129F8B50C4640F2898006685E
:1025A800B3698B4240F284803378013B032B7FD898
:1025B800DFE803F002293C4E01EB5105716A304611
:1025C80001EB5521FFF7CDFF10B14FF0FF30F8BDFB
:1025D800716A6F1CC5F308053544304601EB572175
:1025E80095F83450FFF7BDFF0028EED1C7F3080770
:1025F800374497F8343045EA0320E3074CBF000915
:10260800C0F30B00E3E7716A304601EB1421FFF7D2
:10261800A8FF0028D9D1640004F4FF74344494F866
:10262800353094F8340040EA0320D0E7716A304628
:1026380001EBD411FFF795FF0028C6D1A00000F4E4
:10264800FE7034303044FFF791FE20F07040BEE752
:10265800D0E9043153EA01022AD0C5798268022DF3
:102668007789A4EB02020CD1013B41F1FF315B0AEF
:1026780043EAC153B3FBF7F39A4219D81AD0601C46
:10268800A5E7032D02D183699342F8D8716A3046D1
:1026980001EBD411FFF765FF002896D1A00000F4E4
:1026A800FE7034303044FFF761FE20F000408EE7C2
:1026B80001208CE76FF0004089E72DE9F0474FF0E3
:1026C800010A0546174698460239C66A01F007040A
:1026D8000AFA04F406EB1136C1F3C809E4B231462C
:1026E80028460136FFF73DFFE0B905EB090292F8ED
:1026F8003430234214BF01210021414515D06340E5
:10270800013F82F8343085F803A00CD0640014F03F
:10271800FF04EAD109F10109B9F5007F4FF001047E
:10272800E3D3DCE70120BDE8F0870220FBE70000E7
:10273800002310B5C3704FF0FF3303630446FFF75F
:1027480010FF034660BB4AF65522B4F83212914294
:1027580028D104F16A00FFF709FE134A20F07F40F0
:10276800904216D004F18600FFF700FE20F07F406B
:1027780090420ED00D4904F137023F3412F8013B64
:1027880011F8010B9442A3EB000304D0002BF5D001
:102798000223184610BD002B14BF02230123F8E7BB
:1027A8000423F6E70323F4E74641540018600108C0
:1027B8000023F0B50B6085B00F461546FFF74EFEB7
:1027C800061EC0F27981B14B53F82640002C00F068
:1027D80075813C60237805F0FE0563B16078FFF7EA
:1027E800AFFCC70707D41DB110F0040500D00A25B7
:1027F800284605B0F0BD0023F0B223706070FFF7E3
:10280800A1FCC10700F15C810DB14207EFD40021A2
:102818002046FFF78DFF022840F092806F463A4627
:1028280004F5FD7304F23A2113F8040C10B11846AC
:10283800FFF79CFD10338B4242F8040BF4D10026BD
:1028480057F8045B002D74D029462046FFF770FF27
:1028580001286FD801287DD104F13E0304F17301EA
:1028680013F8012F002A71D18B42F9D1B4F89C30AA
:10287800B3F5807F6AD194F8A030092B66D104F1B2
:102888007C00FFF775FD4FF0FF332E1841F1000172
:10289800B3428A415AD304F18800FFF767FD94F8E0
:1028A800A220E061012AA27050D194F8A1309A4088
:1028B80093B26381002B49D004F19000FFF756FDD5
:1028C800831C002B0746A36140DB256204F18C00C2
:1028D800FFF74CFD4319E36204F18400FFF746FD5E
:1028E80092B207FB02339E42054471F10001656212
:1028F8002CD304F19400FFF739FD0146A06220466D
:10290800FFF757FD01462046FFF72BFED0B904F12B
:10291800480304F5127213F8141C812905D11846CE
:10292800FFF724FD022800F0CD8020339A42F2D12F
:102938000CE003200136042E82D1042806D101E0E0
:10294800042801D1012553E7012801D90D254FE7B6
:1029580000257FE7B4F83F30B3F5007FF6D1B4F82F
:102968004A1021B904F15800FFF700FD014694F818
:102978004420E161531E012BA270E7D894F841600E
:102988006681002EE2D0731E3342DFD1B4F8457061
:102998003B072781DAD1B4F8470018B904F154008D
:1029A800FFF7E4FCB4F84230002BCFD001FB02FE65
:1029B80003EB171CF4446045C8D3A0EB0C00B042ED
:1029C800B0FBF6F2C2D340F6F57082425BD94FF6FF
:1029D800F576B24294BF0226032602322B440CEB52
:1029E8000500032EA26125626362E06254D1B4F847
:1029F8005E303B43AAD104F16000FFF7B7FC9200B8
:102A080002F2FF12B1EB522FA0629FD34FF0FF33B7
:102A1800C4E904338023032E23712BD1B4F8643026
:102A2800012B27D12046691CFFF79BFD10BB4AF6F6
:102A38005523B4F8322220719A421BD104F1340094
:102A4800FFF794FC124B984214D104F50670FFF777
:102A58008DFC03F1FF5303F500532033984209D14D
:102A680004F50770FFF782FC606104F50870FFF752
:102A78007DFC2061074A00251388267001339BB22C
:102A88001380E380B4E60126A7E700BF9402002084
:102A9800525261419C020020002F3FF457AF022E92
:102AA80003EB0E004FEA42031BBF9B1802F0010222
:102AB8001A4602EB5302A3E70B2599E60C2597E685
:102AC800032595E64FF0FF330426C4E90433D1E724
:102AD80001292DE9F84306460C46174608D98369AB
:102AE8008B4205D90378022B60D003D8012B21D063
:102AF800022550E0033B012BFAD8416A01EBD411BF
:102B0800FFF72FFD0546002845D13378A40004F4CB
:102B1800FE743434042B344407D02046FFF726FCD7
:102B280027F0704700F07040074339462046FFF70A
:102B380023FC2EE001EB5108416A01EB5821FFF715
:102B480010FD054638BB08F10109C8F3080814F060
:102B58000104B0441FBF98F834203B0103F0F00390
:102B680002F00F0214BF1343FBB288F8343001237C
:102B7800716A3046F37001EB5921FFF7F2FC054604
:102B880048B9C9F30803334444B1C7F3071783F8B6
:102B980034700123F3702846BDE8F88393F8342095
:102BA800C7F3032722F00F021743F0E7416A01EB4E
:102BB8001421FFF7D6FC05460028ECD1640004F484
:102BC800FF74344484F83470C7F3072784F83570E9
:102BD800DFE701292DE9F84306460C461746056844
:102BE80002D80220BDE8F883AB698B42F9D962B9F3
:102BF800A14621463046FFF7CDFCA046044698B9C9
:102C08002B78042B3ED00020ECE72B78042B02D144
:102C1800C379022BECD04FF0FF3239462846FFF734
:102C280057FF0028E4D0DDE70128DAD0411C39D06D
:102C38002B78042B17D16B695A1C1CD108F101029F
:102C4800A2420CD02B78042B08D1002349462846F1
:102C5800A2EB0902FFF731FD0028C3D1A146AB69F9
:102C6800A342C6D8CCE7002241462846FFF730FFEA
:102C78000028E0D0B6E701336B612B7943F00103FC
:102C88002B71DBE70FB9F771BDE7F379032BBAD1E5
:102C9800B368BB42B7D8B2691344BB42B3D302236B
:102CA800F371B0E701209DE770B5C3790446032BA3
:102CB80010D181688369CD18A94202D10020E07142
:102CC80070BD4E1C32462068FFF702FF0028F7D17E
:102CD8003146F1E70020F3E7F8B50446FFF73BFC7F
:102CE8000546002842D12378032B37D12779012FB5
:102CF80034D1552304F1340601464FF400723046AE
:102D0800FFF751FB84F83232AA2384F83332522376
:102D18004122722184F8343084F83530612384F8F4
:102D2800372084F8363084F81B3284F8181284F877
:102D3800191284F81A22616904F50770FFF71CFB61
:102D4800216904F50870FFF717FB226A3B46013238
:102D5800314660782263FFF72AFA257100226078ED
:102D68001146FFF749FA003818BF0120F8BD2DE9D0
:102D7800F04100258D76036B06460C466BB303685D
:102D88001A78042A3DD14FF040082E46DF6897F89C
:102D980023309D4201D376B90AE018F01F0F08BF0F
:102DA80008F10208002137F8080008F069F8B0B9FE
:102DB8003F230126A37600232644B37663733B7929
:102DC8002373DB061AD407F13800FFF7D1FAC4E9F8
:102DD8000001BB896381FB892381BDE8F081FF285D
:102DE80081BFA319020A01369A76FE2EE0D8A319EC
:102DF800987608F1020801350136C8E70020014637
:102E0800E5E7C36B01330CD0076C37F8020B28B128
:102E1800002108F035F800284ED10025002325446C
:102E2800AB7600232E271846716BA57E4E1E16F82A
:102E3800012F0130202A26D0052A08BFE5220928BB
:102E480007D104EB030C0DB98CF81A708CF80D70CF
:102E5800013304EB030C8CF80D209DB9A2F1410E4F
:102E6800BEF1190F0CD808288CBF4FF0100E4FF088
:102E7800080E91F80C8018EA0E0F1CBF2032D2B24F
:102E88008CF81A2001330B28D1D12DB9E218957688
:102E98000A7B002A08BF0023002223445A73CB7AF6
:102EA80001F11C002373FFF761FAC4E900020B8BE0
:102EB8002381CB8A638190E7FF2881BF6319020AC7
:102EC80001359A76FE2DA8D86319987601359CE7C6
:102ED8002DE9F84F07468946056800295BD12E6918
:102EE800002E68D0AB699E4228BF01262A78AB69BC
:102EF800042A7CD1A6F1020A023B9A4528BF4FF06A
:102F0800000A4FF0010BD046E96A284601EB183158
:102F1800FFF727FB00285AD1AA6908F007030BFA24
:102F280003F3C8F3C801DBB2901E6A18444692F84E
:102F3800342008F10108804502EA030229BF002372
:102F48005B0098464FF4805138BFDBB2AABB02340D
:102F5800631E033325D8012321461A462846FFF766
:102F6800ACFB02281CD001286BD0B9F1000F33D17B
:102F78000223FB712B78042B50D1FB79022B4DD106
:102F8800D5E90532023A93422C615DD32B7943F09F
:102F980001032B7105E0FFF7FDFA0128044603D869
:102FA80001242046BDE8F88F431C4AD0AB69834210
:102FB800F7D84E469AE7012698E7C2450AD0002B73
:102FC800B3D10131B1F5007F9ED20123ADE74FF0B7
:102FD800FF34BDE70024BBE7FB79022BCAD1731C81
:102FE800A342C7D0BB68F31ABB610323C1E73446C9
:102FF800AB690134A34204D8012E01D10024D0E7E3
:10300800022421463846FFF7C5FA0028B2D0012825
:10301800C6D0013015D0B442EAD1EFE74FF0FF3205
:1030280021462846FFF754FD48B9B9F1000FA7D04B
:10303800224649462846FFF74BFD0028A0D0012824
:10304800AED14FF0FF34ACE7013B6B619EE703283C
:103058004B8B04BF8A8A43EA0243184670472DE91E
:10306800F047036B876A05468A462037C3B1046870
:103078002278042A0CBF4FF080524FF40012BA4253
:103088000ED9C7F30808B8F1000F52D1C16A01334D
:10309800036339B92389B3EB571F4AD800232B633D
:1030A80004200CE0B4F80A9009F1FF3919EA57290D
:1030B8003FD1FFF76FFA0128064602D80220BDE883
:1030C800F087421C01D10120F9E7A36983422AD87D
:1030D800BAF1000FE2D02846E96AFFF7F9FE064682
:1030E800002839D00128E9D0431CECD0EB792046E0
:1030F80043F00403EB71FFF72EFA01460028E2D1F2
:1031080004F134004FF40072FFF74DF931462046C0
:10311800FFF74FF94FF0010A638920634B450FD839
:10312800A0EB0900206331462046EE62FFF741F923
:10313800286308F1340844440020AF626C63BEE79A
:10314800204684F803A0FFF7E0F90028BBD1206BE4
:1031580009F101090130DFE70720B0E72DE9F04167
:1031680005460068296BC668FFF7FBF9044620B9D5
:10317800696B0B78852B03D002242046BDE8F081CB
:1031880020223046FFF7B8F9214628467778FFF71E
:1031980066FF04460028F0D1296B2868FFF7E1F99B
:1031A80004460028E9D1696B0B78C02BE4D12022B2
:1031B800B018FFF7A1F9BB1E102B25D801374FEA2D
:1031C8004718402700212846FFF749FF04460028F2
:1031D800D3D1296B2868FFF7C4F904460028CCD15D
:1031E800696B0B78C12BC7D1F01920222037FFF764
:1031F80083F9B845E6D83046FFF719F97488241AD8
:1032080018BF01246400B8E70424B6E72DE9F047A5
:10321800FF27054688463E4604244FF6FF7AD0F835
:103228000090296B09B99CB172E04846FFF799F9FB
:10323800044600286CD1686B0378002B7BD099F882
:103248000020042A19D1B8F1000F05D0832B58D1DA
:1032580000242046BDE8F087852B52D1AB6A28466A
:10326800EB63FFF77BFF0446002851D1D9F80C30F7
:103278001B7903F03F03AB71EBE7C27AE52B02F051
:103288003F02AA7149D02E2B47D022F02001A1F18C
:10329800080CDCF1000141EB0C0141453DD10F2A3E
:1032A80040D15C0637D5AA6A477B03F0BF03EA63BF
:1032B800427BBA4231D1418B79BB0D264FF0010ECA
:1032C80002782C6C02F03F02013A7243DFF86CC0BE
:1032D8001CF8016B865BBEF1000F20D0FE2A1CD8BB
:1032E800B64624F81260013201310D29F0D1017877
:1032F800490604D5FE2A10D8002124F81210013BF3
:10330800DEB200212846FFF7AAFE0446002888D02E
:1033180000232B639DE79E42CAD0FF26F1E756455E
:10332800E2D0FAE71EB9FFF773F8B84290D04FF031
:10333800FF33EB638DE70424EAE700BF316001083F
:10334800F8B5056806462B780C46042B0CBF4FF0E1
:1033580080524FF400128A4201D80220F8BDCA06F2
:10336800FBD18268816212BB022B12D82B89B3EB86
:10337800541FF2D9A86AC6E90B200028EDD000EB4B
:1033880054203435C4F308042544306375630020A1
:10339800E4E7AB6AC271002BE8D01A466F897F0256
:1033A800BC42114605D22846FFF703F8E3E7134667
:1033B800F3E73046FFF7EEF8431C024606D0012833
:1033C800CBD9AB698342C8D9E41BE9E70120C5E73B
:1033D8002DE9F04F002185B00446D0F80090FFF7A2
:1033E800AFFF804670B999F80030042B31D1206CBA
:1033F800FFF76BF8074600212046FFF707FF054651
:1034080020B18046404605B0BDE8F08FD9F80C30B1
:103418009A8CBA42EFD1402693F823B05D4505D186
:10342800236C33F81530002BE5D1EBE7F306D9F818
:103438000C3008BF0236985B07F05AFD236C8246B1
:1034480033F8150007F054FD8245D4D10236013512
:10345800E4E74FF0FF0A4FF0FF335646E363484670
:10346800216BFFF77EF8002859D1656B2F78002F64
:103478007BD0EA7AE52F02F03F03A37103D010074F
:1034880005D50F2B05D04FF0FF33E3634BE00F2B2F
:1034980050D1D4F840B0BBF1000F3AD0790640D5EE
:1034A800A36A95F80DA007F0BF07E3636B7B53454C
:1034B80039D16B8B002B36D10D2301202E7806F0E5
:1034C8003F06013E5E432A4B13F8011B695A60B35D
:1034D800FE2E039327D80846029107F009FD731CB6
:1034E80001903BF81600009307F002FD019B834210
:1034F80019D10299009E0846039B1E4A9342E3D1C4
:103508002B785A0603D510B13BF816305BB9013F4A
:10351800FEB200212046FFF7A2FD00289FD080467A
:1035280070E7BE42C2D0FF26F3E74FF6FF72914222
:10353800E3D0F8E72EB92846FEF76AFF50453FF476
:1035480061AFA26BD37ADB079DD405F10B0115F8A7
:10355800013B12F8010BA942A3EB000302D0002B98
:10356800F5D090E7002B8ED14CE74FF0040849E7DF
:10357800316001083E6001082DE9F74F05460368F0
:1035880000938A4611F8013B2F2BFAD05C2BF8D018
:103598000023AB609AF800301F2B00F2F2808022E3
:1035A80000212846AB6BDA7203B0BDE8F04FFFF795
:1035B800C7BEFF2E11D07F31C9B27D290FD81AF8A6
:1035C80002200237A2F1400102EB04243E29A4B2F2
:1035D80006D982F080027E2A02D9062061E01746C9
:1035E8000121204607F04CFC0028F6D07F2806D899
:1035F8009F4911F8012B12B19042FAD1EDE72BF84F
:1036080016000136C1E031F81620202A02D02E2AF1
:1036180040F0D480013ECEE00131DCE0C84505D25F
:10362800B2424FD1B9F10B0F44D102E0B9F10B0FFF
:103638003AD14FF00B0944F00304E4B2AB6B1A78AB
:10364800E52A04BF05221A70B9F1080F04BFBF00AC
:10365800FFB207F00C030C2B03D007F00302032A78
:1036680002D144F00204E4B2A1070BD407F0030727
:10367800012F04BF44F01004E4B2042B04BF44F04B
:103688000804E4B2AB6B2846DC72FFF7A1FEAB6B13
:10369800DB7A00284FD0042803D113F0040F08BFA9
:1036A800052003B0BDE8F08FB24203D044F0030414
:1036B800E4B2C3D8BF0032464FF00B094FF00808F8
:1036C800FFB2B6E07F2831D9019207F011FC002142
:1036D80007F0D6FB44F0020CFF28019A5FFA8CFC35
:1036E80015D909F1FF31884504D344F00304C846CD
:1036F800E4B29EE0A96B040A01F8084008F1010849
:10370800A96B644601F8080008F1010891E038B196
:10371800584C14F8011B002900F099808142F8D117
:103728004CF0030C5F205FFA8CFCE9E7A446EFE756
:1037380047F00207E4E75A07B3D4AB79DB0640F158
:103748008480009B1878042875D1AB68EA79EB610E
:103758002B6923F0FF0313432B62EB6B6B62009B17
:10376800DB6803F13400FEF701FEA86093F821201E
:1037780003F1380002F00202EA71FEF7F9FDC5E92B
:10378800040100263746D5F840B01AF807107A1C0D
:103798001F290C4604D92F2902D05C297FF409AFD0
:1037A8005244117892462F2902F10102F9D05C297E
:1037B800F7D0ABF10201002E7FF425AF4FF00003E4
:1037C8002BF81630002E3FF408AF20210B22A86BEF
:1037D800FEF7E9FD00213BF81120202A3FF41CAF39
:1037E8002E2A3FF419AF1F2C8CBF00240124A400FB
:1037F80009B144F00304ABF1020030F816202E2A78
:1038080001D0013EF9D14FF000084FF008094746B2
:103818003BF811004A1C00283FF410AF202805D0BF
:103828002E287FF4FBAEB2423FF4FCAE44F0030412
:10383800E4B21146ECE7A96A009BC1F308013431F0
:103848001944FFF704FCA8609BE7052029E7A0F1CD
:10385800410189B219297FF66BAFA0F1610189B2E4
:1038680019299EBF203847F0010780B248E700BFFA
:10387800216001082A600108F8B50E4600210446B7
:103888000768FFF75DFD98B905463846216BFEF7D6
:1038980068FE68B93A78636B042A1B780CD11B065A
:1038A8000ED5054601212046FFF7D9FB0028ECD0AC
:1038B800042808BF072006E0E52B01D0002BF0D133
:1038C8000135B542EED1F8BD03682DE9F041DE6857
:1038D80005463046FEF7ABFDB070000AF070E96BA4
:1038E80028467778FFF72CFD4FF0010804462CB9DD
:1038F800296B2868FEF735FE044628B1022C28BF3C
:103908000224E0B2BDE8F08120223146686BFEF760
:10391800F3FD2B6883F80380002FEFD0214628465B
:10392800FFF79DFB20360446013FE0E72DE9F04F05
:10393800D0F83880044698F80B5097B015F0A005D9
:1039480040F07081076C37F81590B9F1000F51D12C
:1039580026683378042B40F08D800F230E35B5FB95
:10396800F3F52046A91CFFF787FF814600283DD1C3
:10397800A36A0135A3EB4513E363E3795A073BD404
:103988008523F468402200212046FEF70CFD2370B1
:10399800C023384684F82030FEF797FD0121002225
:1039A80084F82400000A84F8250040230846C1262C
:1039B800944604EB010E5D1CE65404F805C002337E
:1039C80021B137F8121009B10132D2B20D0AE1540F
:1039D8000EF803500233DD06F2D137F812500130E9
:1039E800C0B2002DE7D184F823206070484617B094
:1039F800BDE8F08F0135A6E74FF4007103F003032B
:103A0800E3717089D4E90432E0FB01322046C4E94D
:103A18000432FFF749F958BB2368616A0493E369E4
:103A280004A80693236A13918DF8173023F0FF0337
:103A3800CDE90839FFF784FCD0B904A8FFF78EFB5D
:103A4800B0B9D4E90423F0683830FEF79DFCD4E916
:103A58000423F0682830FEF797FCE379F26843F016
:103A6800010382F8213004A8FFF72EFF002887D031
:103A78008146BBE70C22414604A8FEF73DFD9DF8B0
:103A88001B30DB0740F1D9804FF0010BDFF80CA2A7
:103A980088F80B90C4F840900B22404604A9FEF722
:103AA8002BFDBBF1050F57D95B46B81E30F8022F26
:103AB800002A42D107210DF1100C03F00F0202F188
:103AC8003000392888BF02F137000F2B0CF8010DA0
:103AD80001F1FF324FEA131040D87E2002F158035B
:103AE8006B4403F8500C0023A1F1020C9A4208EB36
:103AF800030003D918F80310202932D10346072AF6
:103B08008FBF202102F15801694411F8501C98BF59
:103B1800013203F8011BA3EB08010729EFD920465E
:103B2800FFF756FC814600287FD10BF1010BBBF152
:103B3800640FB1D14FF0070958E7102102F0010CCA
:103B48000CEB430313F4803F18BF83EA0A030139DF
:103B58004FEA5202F2D1A9E75B46ABE711460346AA
:103B6800ABE77F31C9B27D2902D89C45C6D0013365
:103B78000133BBE7A16A2046A1EB4511FFF7E0FB43
:103B8800814600287FF432AFA06BFEF741FC0F2777
:103B98004FF6FF7801903046216BFEF7E2FC814634
:103BA80000287FF423AF4FF00D0C636B019AE9B244
:103BB800D4F840E05A734A1E0CFB02F28446DFF840
:103BC800E0A0DF7218739876D876404518BF3EF8A3
:103BD80012001AF8019B0CF1010C03F8090018BF38
:103BE800013203EB090B4FEA1029002808BF4046B1
:103BF800BCF10D0F8BF80190E7D1404502D03EF89B
:103C080012200AB941F04001197001230021204611
:103C1800F370FFF724FA814600287FF4E7AE013DF0
:103C2800B9D11FE04FF00609E0E604287FF4DEAEC4
:103C38009DF81B3088F80B3027649DF81B30204610
:103C48009B0743BF0D230C35B5FBF3F5012548BF92
:103C580001352946FFF710FE814600287FF4C6AEDD
:103C6800013D87D13046216BFEF77BFC8146002859
:103C78007FF4BCAE01462022606BFEF794FBD4E9CA
:103C88000D010B22FEF738FCD4E90D23DB7A03F093
:103C9800180313730123F370A8E600BF2110010075
:103CA800316001081FB5CDE9001003A8144603913F
:103CB800FEF7D4FB031E15DB0C4A52F8231009B19A
:103CC80000200870019808B10021017042F8230013
:103CD80030B1012C08D10022684601A9FEF768FD21
:103CE80004B010BD0B20FBE70020F9E79402002088
:103CF8002DE9F04798B0914605460191002800F05B
:103D08003A81002302F01F0703603A4602A901A87E
:103D1800FEF74EFD002840F09B80029E4FF48C6019
:103D28000696FEF79DFA8046002800F02681069A3E
:103D380003AB149300F5007316900199D36006A89D
:103D4800FFF71AFC044628B9149B93F90B30002B93
:103D5800B8BF062419F01C0F00F0F180002C7AD0AF
:103D6800042C71D106A8FFF7E1FD044600286BD1A9
:103D780047F00807FEF772FA33780446042B40F040
:103D8800AC80F2682E6002F13400FEF7EFFAA8600A
:103D980002F13800FEF7ECFAC5E9040102F1080067
:103DA80092F82130002203F002032146EB71FEF75E
:103DB800E3FAF36821461A75F0680C30FEF7DCFA6E
:103DC8002021F36806A85A75F3681971F36883F817
:103DD800342083F8352083F8362083F83720F368B9
:103DE80083F8382083F8392083F83A2083F83B2079
:103DF80083F83C2083F83D2083F83E2083F83F2059
:103E0800F36883F8282083F8292083F82A2083F888
:103E18002B2083F82C2083F82D2083F82E2083F87C
:103E28002F200122F36883F82120FFF74DFD044677
:103E380050B9A968D9B102462846FEF7CAFE044619
:103E4800A9680139316194B14046FEF70BFA204662
:103E580018B0BDE8F0879DF81E3013F0110F79D126
:103E680019F0040F40F0838019F0080F82D13B0746
:103E78001399336B69642B64307848BF47F0200787
:103E8800042869D1F26802F13400FEF76FFAA860DD
:103E980002F13800FEF76CFAC5E9040192F8213006
:103EA8009DF81F2003F00203EB71089BEB610A9B4E
:103EB80023F0FF0313432B62159B6B62002400233E
:103EC800002285F8294085F82870C5E90C23F38875
:103ED800AC64EC632E60AB80B6E7202201461398F1
:103EE8000E30FEF749FA139821461630FEF744FAC9
:103EF800139BDA7213993078FFF7A9F800228146EC
:103F08003046FEF779FA0022139B1A775A779A7788
:103F1800DA770123F370B9F1000FA8D0494606A853
:103F2800D6F830A0FEF755FE044600288CD151463D
:103F38003046FEF716FB09F1FF31044682E7002CF4
:103F480082D19DF81E30D90613D419F0020F8ED0F5
:103F5800DA078CD5072477E7FFF779F8A86001F12D
:103F68001C00FEF703FA002328616B61A6E708240A
:103F78006AE7042468E709206AE7112068E72DE961
:103F8800F04F87B0019300231646019A89461360C3
:103F980005A90446FEF77FFA0546A0BB94F8295008
:103FA8008DBB94F8283013F00103029300F0B08021
:103FB800D4E90432D4E90C011B1A62EB0102B342C2
:103FC80072F1000238BF1E4604F14C0BDEB1D4E991
:103FD8000C23C2F30801002940F08B80DDF814A0FF
:103FE800510ABAF80A8041EAC35108F1FF3818EAC1
:103FF80001081FD152EA030109D1A068012811D88C
:10400800022584F82950284607B0BDE8F08FA16C36
:1040180019B12046FEF7D8F9F0E72046A16BFEF764
:10402800B9FAEBE7421C04D10123029D84F8293038
:10403800E9E7A0635046A16BFEF7BBF90028DFD083
:10404800B6F5007F08EB000734D3BAF80A2008EB6E
:10405800562191424FEA5623494688BFA2EB0803EE
:104068009AF801003A460393FEF77CF80028DBD162
:1040780094F82820039B12F0400F0BD0E06BC01B74
:10408800984207D24FF40072594609EB4020FEF7D8
:1040980033FA039B5F02D4E90C32DB1942F10002C8
:1040A800C4E90C32019B019A1B68B9443B44136074
:1040B800F61B8BE7E26BBA421AD094F828309AF8CC
:1040C80001005B060BD501235946FEF770F800285E
:1040D800AAD194F8283023F0400384F8283001232B
:1040E8003A4659469AF80100FEF73CF800289BD159
:1040F800E763216B4846C1F30801C1F50077B74271
:1041080028BF37464C313A462144FEF7F5F9C2E755
:10411800072578E72DE9F04194B001A90546FEF797
:10412800BAF9044648BB95F8283013F0200424D087
:104138005B06019E0FD50123EA6B707805F14C01EF
:10414800FEF735F8002840F09B8095F8283023F0DA
:10415800400385F82830FEF781F833788046042B31
:1041680064D12846FEF7A0FD044630B94FF4187014
:10417800FEF776F8074620B91124204614B0BDE8AA
:10418800F0812B68696A0293EB69F06004932B6AEB
:1041980002A88DF80F3023F0FF03CDE90634119102
:1041A800FFF7CEF8044600283CD102A8FEF7D6FF58
:1041B8000446002836D1F268137943F020031371BE
:1041C800EB79F26843F0010382F82130F068A968BE
:1041D8003430FEF7D1F8D5E90423F0683830FEF71B
:1041E800D3F8D5E90423F0682830FEF7CDF8F06855
:1041F80041460C30FEF7C0F8F36802A85C75F36816
:104208001C745C749C74DC74FFF75EFB044648B94C
:104218003046FEF761FD044695F8283023F0200368
:1042280085F828303846FEF71DF8A6E73046296C91
:10423800FEF797F9044600289FD16F6CFB7A394640
:1042480043F02003FB72AA682868FEF7D5F82969AD
:1042580007F11C00FEF790F8414607F11600FEF73B
:104268008BF80123BC74FC743046F370FEF734FD00
:1042780095F82830044623F0200385F828307CE799
:1042880001247AE713B50446FFF744FF28B920460E
:1042980001A9FEF700F900B9206002B010BD2DE9B0
:1042A800F04F87B005A9044615461F46FEF7F3F8F8
:1042B800064620BB94F829600EBBA36C002B00F0C7
:1042C8008C80B7F1FF3F08BFB5F1FF3F3AD11D46DB
:1042D800D4F80880022755F804BBB8F1000F29D09C
:1042E80040464FF0000A014681462046FEF752F943
:1042F80001280AF1010A08D8022684F82960304604
:1043080007B0BDE8F08F8046EAE7431C01D10126DB
:10431800F3E709F101098145E5D00237BB4521BF23
:104328002B4643F808ABC5F804801D46059B9B69DE
:104338008342E8D8A36C5F451F6000F22881002300
:104348002B60DCE7D4E90483454577EB03023CBFE7
:10435800A8463B4658EA0302C4E90C83CFD018F1BB
:10436800FF3A43F1FF3952464B462046FEF72CF8F8
:10437800059F0146A0633846FEF71BF80028BBD00E
:10438800C8F308017D890029B9D04FEA5A2242EAC8
:10439800C952013D1540E26B0544AA42AFD094F8DA
:1043A80028307878590604F14C060BD5012331469C
:1043B800FDF7FDFE0028AAD194F8283023F0400329
:1043C80084F82830314601232A467878FDF7CAFE5A
:1043D800064600289BD1E56391E7D4E90412A94277
:1043E80072EB070307D294F8283003F00203002B7E
:1043F80004BF0D461746D4E90C1000230022C4E977
:104408000C2355EA070339D1D4E90C23D4E9040174
:1044180090429941BFF473AFC4E9042394F828305B
:1044280043F0200384F8283069E70025236BC3F3A1
:104438000803002BE8D0E26BAA42E5D094F82830B4
:10444800059F5B06787804F14C080CD5012341469A
:10445800FDF7ADFE00287FF45AAF94F8283023F01A
:10446800400384F8283001232A4641467878FDF72E
:1044780079FE00287FF44BAFE563C5E7DDF814A0AB
:1044880051EA0003BAF80A204FEA422B31D04FF024
:10449800000911F1FF3840F1FF33681E67F1000190
:1044A8005A4601934B46FCF713FF4B46CDE90201F0
:1044B8005A4640460199FCF70BFF029B8342039B37
:1044C8008B4116D3CBF1000101EA0801C4E90C19AC
:1044D800691A0D46A16B67F100070029A5D0D846D7
:1044E8004FF00009AB4579EB070311D3A846B9464D
:1044F80017E0A16851B92046FEF7EAFC01280146F9
:104508003FF4FAAE421C3FF402AFA060A163E4E7B7
:1045180094F8283020469B071DD5FEF7D9FC0146A4
:10452800E0B9D4E90C3213EB080349EB0202C4E901
:104538000C32C8F30803002B3FF477AF5046FDF761
:1045480038FF00283FF4D8AE4FEA582848EAC9583F
:1045580000EB08056AE7FEF71DF801464A1C3FF420
:10456800D6AE01297FF6C8AEDAF818308B427FF64E
:10457800C3AED4E90C3013EB0B0340F10000B5EBEC
:104588000B05C4E90C30A16367F10007AAE71126FF
:10459800B5E6F0B587B00446019100285ED0002248
:1045A80002A901A8FEF704F90546002848D1029F90
:1045B8004FF48C602760FDF753FE064600284FD065
:1045C80003ABA363236800F50072206401992046B9
:1045D800DA60FEF7D1FF054660BBA36B93F90B3099
:1045E800002B20DBA379DB0634D5387804282CD1BE
:1045F800A368E279E361236923F0FF03134323628D
:10460800FA68E36B02F134006362FDF7AFFEA06065
:1046180002F13800FDF7ACFEC4E9040192F821303C
:1046280003F00203E371FB8800212046A380FEF714
:1046380087FE05463046FDF715FE042D0CD00DB15A
:1046480000232360284607B0F0BD616BFEF7FFFC2E
:10465800A060E8E70525EDE70525F1E70925F1E77D
:104668001125EFE72DE9FF410F4669460546FDF79D
:1046780012FF044660BB37B93946284604B0BDE886
:10468800F041FEF75DBE4FF48C60FDF7E9FD06468C
:1046980010B301ABAB632B6800F5007228642146A8
:1046A8002846DA60FEF7B2FD10F0FB0804460CD18C
:1046B80039462846FEF75BFB41462846FEF7CFFC05
:1046C8000428044614BF044600243046FDF7CAFDFA
:1046D800204604B0BDE8F0811124F9E770B505461D
:1046E8000C461646FDF7F6FB7020FDF799FCFDF722
:1046F8002FFCE8B2FDF794FCFDF72AFC2644B442EF
:1047080001D1002508E014F8010BFDF789FCFDF73D
:104718001FFC05460028F2D0FDF7FCFB284670BDBB
:10472800F8B5044615460E46FDF7D4FB7020FDF794
:1047380077FCFDF70DFCE0B2FDF772FCFDF708FC15
:10474800FDF7C8FB7120FDF76BFC0024FDF700FCAA
:104758006F1EAC4203D1BDE8F840FDF7DBBB381B48
:1047680018BF0120FDF788FC30550134F1E700003F
:104778002F4BF0B59A6987B042F010029A619B6995
:10478800012403F010030193019B4FF40053CDE97A
:1047980002340323002502262648274F02A9059341
:1047A80004940BF0D7F902A92248CDE902650BF071
:1047B800D1F9FDF76BFB1420C7F8B451FDF7B4FC31
:1047C8003220C7F8B441FDF7AFFC224669462846B7
:1047D8008DF80050FFF782FF22466946A420FFF7B4
:1047E8007DFF16232246694680208DF80030FFF7AA
:1047F80075FF0C232246694688208DF80030FFF7A4
:104808006DFF32466946A120FFF78AFF9DF8003008
:10481800302B0BD19DF80130032B07D143F2030154
:1048280006480EF0DBF8284607B0F0BD2046FBE747
:104838000010024000100140000022423E600108C2
:104848002DE9FF410A21484E8DF8070033780133DE
:10485800DBB2B3FBF1F201FB1232D2B2337002B316
:10486800092B1ED900209DF80730DB0611D13F4BDC
:1048780093F9201093F820200029A9BF4FF6FF7163
:1048880002F07F0222F01F029981A8BFD98283F823
:1048980020203378F02B84BF0A23337004B0BDE89E
:1048A800F081012202200DF10701FFF739FF9DF881
:1048B800072002F00F02531E042BD3D8FF23934086
:1048C800DB430027294D63F03F03DFF8A48085F818
:1048D800203005F10C0495F820303B41DA0724D547
:1048E800042238F8170003A9FFF71AFF95F83030AB
:1048F8009DF80C1013F0010F9DF80D209DF80E3057
:104908009DF80F0021D04FEA012C0CF4706C624422
:1049180062811A0202F470620244228001F0F003FC
:10492800802B1EBF0023638123800137052F04F1EC
:104938000204D0D1AB89EA8A13439BB20BB98DF834
:1049480007300023012033708DE74FEA012C1B024A
:10495800C2F5F0720CF4706C03F47063A2EB0C02F5
:10496800184422806081D9E7C40200204800002052
:104978004A6001081FB5062201AB02A9FFF7FFFA3A
:10498800F0B99DF80830472B1CD19DF80930492B08
:1049980018D19DF80A30462B14D19DF80B30382BCE
:1049A80010D19DF80C30372B01D0392B0AD19DF846
:1049B8000D00613818BF0120400005B05DF804FB08
:1049C8000120FAE70220F8E703784278DB0892082A
:1049D800DB0203EB4213827803EBD20080B270470C
:1049E80073B5064601F1100404EB4205AC4202D14E
:1049F800002002B070BD03226946304601ABFFF7C4
:104A0800BEFA28B96846FFF7DFFF24F8020FEDE782
:104A18000120EEE737B5072201AB05460C46FFF744
:104A2800AEFAA0B994F904202379002A0DDA0222FB
:104A380003F007039A4092B221462846A4F81224AC
:104A4800FFF7CEFF003818BF012003B030BD0120AA
:104A5800FBE700F112014FF4007200F212200EF091
:104A68003CBA00F212214FF4007212300EF035BA3F
:104A780038B505460C4643F6F4420021D0F8180430
:104A880005F01CFF0120D5F81824611C02F54053DD
:104A9800C3F8D41C00FA04F1C3F8D84C0C18C3F8B6
:104AA800E41CC3F8E84C8C1C8140C3F8E01C0221CC
:104AB80002F544520A44C3F8DC4CC3F8D00CC3F8DE
:104AC800CC1CC3F8BC2C38BD73B50D46164601ABDB
:104AD80001220DF103010446FFF751FA9DF8032066
:104AE80072B18DB1B24206D9236B1A440023204615
:104AF800FFF7D5FB04E02946204601ABFFF73FFA54
:104B08009DF8030002B070BD236B1A442B46EEE7F4
:104B18002DE9FF41884616461F46012202AB0DF1DA
:104B280007010546FFF72BFA9DF80740F92C13D02B
:104B380003D8012C05D001200BE00234E4B2012C8B
:104B4800F9D84FF4807200212846FFF7BDFF0028EE
:104B5800F7D104B0BDE8F0810422284603A9FFF785
:104B6800B3FF0428E7D1BDF80D302846A8F814345F
:104B78009DF80C300DF10701C3F38202DB0748BF33
:104B88009DF80F303A7048BF3360012202ABFFF73F
:104B9800F6F99DF80700003818BF0120D9E7000092
:104BA800F8B50C46D1F8181401F54052D2F8D03CAB
:104BB8002BB10023D2F8E40CC2F8D03CF8BDD2F8EF
:104BC800D45CD2F8C03C2B44D2F8C45C9D422EDCA5
:104BD800D2F8C83C002B4FD1D2F8CC3C0B4413F888
:104BE800022C023101F8022C13F8013C4FF49672A2
:104BF80001F8013CFFF768FFD4F8182420B9012117
:104C080002F54053C3F8C81C02F54052D2F8C03C24
:104C1800D2F8C41C02305B1AC2F8CC0C1033C000A6
:104C2800C2F8C03CC2F8C40CD2F8D42C1344D4F84F
:104C38001814DF1001F54055D5F8C04CE010B0EB62
:104C4800E30F0A5C0BD0461CBE428B5D1CBF0918E3
:104C580089784FEA032318BF43EA01431A4304F053
:104C680007031A410649D5F8D43C31F813001C440F
:104C78001040C5F8C04CA1E74FF0FF309EE700BFD9
:104C88005C6001082DE9F84305460C4642F202161D
:104C980043F2021721462846FFF782FF021E01DA77
:104CA800104644E0D4F8180400F54053D3F8E41C47
:104CB800914242D1B1F5805F80F2BA804FF4005240
:104CC800002100F5817005F0F9FD0020D4F81834B2
:104CD80003F5405203F50456D2F8E41C013681422C
:104CE80027DCD2F8D80C03F544530130C2F8D40CB1
:104CF800023348000231C2F8E00CC2F8DC1CC2F8EA
:104D0800BC3C21462846D4F81864FFF749FFD4F87C
:104D1800183406F5405603F54053C6F8EC0CD3F8A2
:104D2800EC0CD3F8E42C9042EBD0C3F8F00CBDE8BF
:104D3800F88306F8010F0130D1E7D3F8E81C914257
:104D480079D0D3F8DC1C914270DCD3F8BC1CD3F8C2
:104D5800EC0C01F1010CC3F8BCCC0870D4F8183481
:104D680003F54053D3F8F00C40F6B73E15E0C3F80E
:104D7800BC8C8B5D8CF80030D4F8183403EB400100
:104D8800B1F902C18445D2D003F54051D1F8BC1C19
:104D98003B44CB1A7345CAD86046D4F8181401F5B9
:104DA8004053D3F8E49CD3F8BCCC81450CF10108FE
:104DB8000144DCDD895DC3F8BC8CC3F8EC1C8CF8BD
:104DC8000010D4F818C40CF54053D3F8DC1CB1F526
:104DD800805F1DDAD3F8F00C0CEB410EAEF802013F
:104DE800D3F8EC0C0CEB010E0EF80600D3F8E00C2F
:104DF80001318142C3F8DC1C0ADBB0F5805F07D0C3
:104E0800D3F8D41C40000131C3F8E00CC3F8D41C1B
:104E1800C3F8F02CD3F8BC2CBC4462457FF63AAFFB
:104E2800511EC3F8BC1C12F8010C80E710469BE722
:104E38004FF0FF307BE76FF0010078E72DE9F04F86
:104E48000C464FF0000B8FB004939DF86430089225
:104E58000593CB890A9006938B89DFF888911344D0
:104E6800013B07934B79012201EB43035B8A0293D1
:104E780001F1120303930DF133010DABFFF77FF836
:104E880020469DF83310FFF7F3FD237C049E03F0C2
:104E980040030993CDF804B0019B069A934234DA93
:104EA80000274FF0FF32089D1FFA86FA18E0D4F861
:104EB800183403F54050D0F8BC1C03F544530233B2
:104EC800994218D94B1EC0F8BC3C11F8018CB4F8B3
:104ED800123443451FDD90451FD101374246013545
:104EE800079B9D42E3DD189B9A424CD1059B022B00
:104EF80058D1029B4AE021460A980B92FFF7C2FE5E
:104F080010F1020F80460B9A03D100200FB0BDE8C4
:104F1800F08F0028DBDA0120F8E7EFB1189B9A42FE
:104F28000ED0BFB2039B681E791CC01BD9F80C7049
:104F380033F812308AB2514680B2B8470027CDE71D
:104F4800059B022BFAD1BFB27A1C681EC01B029BBC
:104F5800D9F80C7092B2EEE7531CBFD0189B9A4256
:104F680009D00399D9F8043031F81220681E514647
:104F780080B29847B2E7059B022BAFD1D9F804302D
:104F8800029A681EF3E7039B33F81230B1B29BB262
:104F9800F7B1BFB2013DE81B7A1CD9F80C5092B2A8
:104FA80080B2A847099BD3B10F4B069A13F80B3070
:104FB8001E44049BF31A934206DB0C4B0BF1010BC6
:104FC80013F80B60049B1E44019B0133019363E7B4
:104FD8001A46D9F80450BDF81C00A847E2E7013684
:104FE800F2E700BF00430020546001085860010840
:104FF80082B02DE9F04F85B00F939FB24FEA134965
:105008005379BDF840A002EB43035B8A05460C4682
:105018009046BDF842600393BAF1000F00F09B8000
:10502800002E00F0988053894B451ED9384480B231
:105038000AF1FF32024492B2904216D204F1FF3CC8
:105048004944634489B29BB299420ED2B2F5A07F1B
:105058000BD2B3F5A07F08D2DDF80CC0CDF800C0A4
:10506800DFF8FCC0DCF808B0D847B8F80820BA4226
:105078001DD96B1EE8191A4480B292B2904216D21A
:1050880004EB090189B2731E0B449BB299420ED2FC
:10509800B2F5A07F0BD2B3F5A07F08D2DDF80CC023
:1050A800CDF800C0DFF8B8C0DCF808B0D847B8F8C9
:1050B8000AC0B8F80E1009EB06030CEB01029A427D
:1050C80020DAE81980B20AF1FF32024492B2904223
:1050D80018D204F1FF3EF444013B6144234489B2F1
:1050E8009BB299420ED2B2F5A07F0BD2B3F5A07F46
:1050F80008D2DDF80CC0CDF800C0DFF864C0DCF8D9
:1051080008B0D847B8F80830B8F80C0057441A184F
:10511800BA4220DA6A1E1344013F1844EA1980B2E1
:1051280092B2904217D204EB090189B2731E0B4464
:105138009BB299420FD2B2F5A07F0CD2B3F5A07FF3
:1051480009D2039C1094064CA468A44605B0BDE897
:10515800F04F02B0604705B0BDE8F04F02B07047AD
:10516800004300202DE9F0411F464FF0FF3305466C
:105178000C46164688B004930122284603AB0DF16D
:105188000B01FEF7FCFE38B99DF80B302C2B05D02F
:105198003B2B6ED0212B5ED0012049E0A368092269
:1051A8000593E3682846069304F1080103ABFEF76C
:1051B800E6FE0028F0D194F9103094F81080002B06
:1051C80039DB9DF80A80B8F1020F0BD108AB13E95F
:1051D800030022460090ADF8041030463946059B7E
:1051E800FFF706FF6389228904993B443244009102
:1051F80028462146CDF804809BB292B2FFF71EFEE6
:105208000122284603AB0DF10901FEF7B8FE9DF80F
:10521800092042B12B6B284603931A440023FFF759
:105228003EF80028ECD09DF80900003818BF01208E
:1052380008B0BDE8F0812046FFF70BFC022208F019
:10524800070802FA08F22146284692B2FFF7C8FB7F
:105258000028B6D0A0E7214628460DF10A0304AA83
:10526800FFF756FC002897D19DF80B303B2B83D1D4
:10527800DEE70220DCE700002DE9F84F04464FF492
:105288001470884691461E46BDF828A006F0F6F927
:10529800071E40F21C400CBF4FF0110B4FF0000BE3
:1052A80006F0ECF9051E43F6F44008BF4FF0110B69
:1052B80006F0E4F9C5F81804002869D0BBF1000F1E
:1052C80066D1214601223846FEF712FD0446002821
:1052D8004CD13846FFF74EFB2946041E384618BF06
:1052E8002724FFF797FB2A88002818BF2724B242F3
:1052F8004CD86B88534549D8B61AAAEB030006EB7D
:10530800D67600EBD07008EB660609EB60021FFA50
:1053180086F81FFA82F90123DFF878A08AF80030AE
:1053280024BB4B46424629463846FFF71BFF95F9F2
:1053380010308346002B02DA2846FFF792FBB5F8B7
:105348001464002E08BF0A269AF80030013EB6B24F
:1053580023B10A20FCF7E8FE002EF5D1BBF1020FBD
:1053680004D09AF800305C46002BD9D13846FEF7B5
:1053780089FF384606F084F9D5F8180406F080F954
:10538800284606F07DF92046BDE8F88F2824C2E7B4
:105398001124EEE7C502002010222DE9F043012474
:1053A800022589B00DEB020000210DF0B1FC3A4B4B
:1053B8003A4E9A69DFF8E88042F020029A619A69C9
:1053C800304602F020020192019A9A694FF48071E6
:1053D80042F004029A619A69DFF8C89002F0040268
:1053E8000292029A9A69002742F010029A619B6918
:1053F800002203F010030393039B0AF099FC002298
:10540800404604210AF094FC274B304604A9CDE914
:10541800044306950AF09EFB202304A92348CDE9FE
:10542800043906940AF096FB4FF48073304604A9B9
:10543800CDE90434CDE906750AF08CFB4FF400433E
:10544800304604A9CDE9043906940AF083FB042305
:10545800404604A9CDE90434CDE906750AF07AFB83
:105468003A46214606200AF057FA06200AF084FA3E
:105478002246214617200AF04FFA17200AF07CFA34
:105488002A46214628200AF047FA28200AF074FA0A
:1054980009B0BDE8F08300BF0010024000080140D9
:1054A80000140140000021100000111000100140FC
:1054B80070B505460C461646FCF70CFD2820FCF78F
:1054C800AFFDFCF745FD280AFCF7AAFDFCF740FDF7
:1054D800E8B2FCF7A5FDFCF73BFD2644B44201D138
:1054E800002508E014F8010BFCF79AFDFCF730FDE5
:1054F80005460028F2D0FCF70DFD284670BD0000D7
:10550800002307B51A460E498DF8050011F8010B5E
:105518000132D2B20344B82ADBB2F7D15B42084960
:1055280048F247008DF80430FFF7C2FF022201A9B4
:1055380048F2FF00FFF7BCFF002003B05DF804FB52
:105548009E600108F8B5044615460E46FCF7C2FCF5
:105558002820FCF765FDFCF7FBFC200AFCF760FD42
:10556800FCF7F6FCE0B2FCF75BFDFCF7F1FCFCF79E
:10557800B1FC2920FCF754FD0024FCF7E9FC6F1E60
:10558800AC4203D1BDE8F840FCF7C4BC381B18BFD7
:105598000120FCF771FD30550134F1E7374BF0B5C8
:1055A8009A6989B042F010029A619B69012403F05C
:1055B80010030193019B4FF40053CDE904340323F6
:1055C800002602252E482F4F04A9079306940AF0B7
:1055D800C1FA04A92A48CDE904560AF0BBFAFCF737
:1055E80055FC0A20C7F8B461FCF79EFD0A20C7F8ED
:1055F800B441FCF799FD04A92148CDE90565049556
:105608000AF0A8FA6420FCF78FFD042248F2401043
:1056180002A9FFF797FF02A91B488DF80C600DF04F
:10562800DDF91A4902A8FAF7FBFD18BB224602A9C0
:1056380048F240008DF80850FFF73AFF02A92246C9
:1056480048F24700FFF77EFF9DF808105F2905D84C
:105658000F480DF0C3F92046FFF752FF0A20FCF768
:1056680063FD0023012248F2400002A98DF80830AA
:10567800FFF71EFF002009B0F0BD00BF0010024078
:1056880000100140000022427C6001088860010887
:105698008D6001082DE9FF470A21564D8DF8070056
:1056A8002B780133DBB2B3FBF1F201FB1232D2B239
:1056B8002B7012B3092B20D900209DF8073003F076
:1056C8008F03802B11D14C4B93F9201093F8202095
:1056D8000029A9BF4FF6FF7102F07F0222F01F02D6
:1056E8009981A8BFD98283F820202B78F02B84BF1A
:1056F8000A232B7004B0BDE8F087012248F24E104F
:105708000DF10701FFF71EFF9DF907309DF807808F
:10571800002B08F00F040BDA052C09D8002301220E
:1057280048F24E100DF10B018DF80B30FFF7C0FE5B
:10573800E2B2013C042CBFD8FF2393408DF80B3014
:10574800DB4300272C4C63F03F0394F8209084F847
:105758002030A389DFF8A4A0A382E38A04F10C0611
:10576800E38394F820303B41DB0720D504223AF844
:10577800170003A9FFF7E6FE94F830309DF80F10E4
:1057880013F0010F9DF80E309DF80D009DF80C20C8
:1057980018BFC3F5487302EB002217BFA3EB012320
:1057A80003EB01237281338004BF32807381013798
:1057B800052F06F10206D4D1114BA1891A8891420E
:1057C80003D8E28A5B889A4206D918F00E0F06D0F1
:1057D800E389A381238BE38200232B7008E0A38A4B
:1057E80084F82090A381E38BE38280238DF807302F
:1057F800012062E7C6020020480000205661010827
:10580800CA020020194B30B59A6987B042F00402E9
:105818009A619A69012402F004020092009A9A6936
:10582800134D42F010029A619B69022203F01003A3
:105838000193019B0023CDE902430323284602A9D3
:10584800CDE904230AF086F94FF40043284602A95B
:10585800029304940AF07EF92023064802A90293D1
:1058680004940AF077F907B030BD00BF0010024079
:105878000008014000100140012838B5264D1ED10E
:105888002870202125480AF04DFA88BB0A20FCF729
:105898004BFC0023202121482B700AF043FA0028F2
:1058A80034D04FF400411E480AF03CFA80B301217D
:1058B8001B480AF037FA01282CD0002038BD2B7875
:1058C800002BDED1202115480AF02CFA0128F4D14A
:1058D8004FF4004112480AF025FA01280446ECD199
:1058E80001460F480AF01EFA0028E6D12C70E5E7B9
:1058F8004FF400410A480AF015FA0028C6D00121E1
:1059080007480AF00FFA0128DCD1BFE70120D5E7E4
:105918000220D3E70320D1E7020000200010014055
:10592800000801404FF48072054B06495A614FF454
:1059380000725A61C8608021596119611A61704703
:1059480000100140000C014038B54FF08833134C6B
:10595800134D236063600023E3604FF480732B6171
:105968004FF400736B6140236B610E4B9A8848F6C5
:1059780089139A4202D1012009F0AAFF4023A068A6
:105988002B614FF400732B614FF033332360636056
:105998004FF6FF7380B2E36038BD00BF000C0140D2
:1059A80000100140CA02002010B50C46FFF7BAFFEC
:1059B8004FF48072054B06491A614FF400725A6120
:1059C800CC608021596119611A6110BD0010014035
:1059D800000C014008B5FFF7A5FFBDE80840FFF738
:1059E800B3BF0000014B1889FFF79CBFCA02002013
:1059F8004FF48072054B06491A614FF400725A61E0
:105A0800C8608021596119611A617047001001400E
:105A1800000C0140C20200F4FC6302EBD02298188B
:105A280080B2704749F241322DE9F84FDFF83C92D5
:105A38000546B9F804300E469342B9F80A00B9F899
:105A48000C8003D045F2103293423AD14FF40077DC
:105A58004FF080094FF4807B854CDFF818A2FFF7E0
:105A680061FF2B0AEDB2C4F810B040466761CAF86E
:105A78000C30C4F81490C4F810902761C4F810B022
:105A88006761CAF80C50C4F81490C4F810902761E4
:105A9800FFF748FF330AC4F810B06761CAF80C3042
:105AA800C4F81490C4F810902761F6B2C4F810B086
:105AB8006761CAF80C60C4F81490C4F810902761A4
:105AC80069E046F6040293420AD199F80630012BA0
