:020000040800F2
:1000000000C00020ED9F0008597800085B780008C8
:100010005D7800085F780008617800080000000043
:1000200000000000000000000000000063780008ED
:10003000657800080000000067780008697800080B
:1000400035A0000835A0000835A000086D7800082C
:1000500035A0000835A000087978000835A0000810
:1000600035A0000835A0000835A0000835A000081C
:1000700035A0000835A0000835A0000835A000080C
:1000800035A0000835A0000835A0000835A00008FC
:1000900035A0000835A0000835A000087F780008CA
:1000A00035A0000835A0000835A0000835A00008DC
:1000B00035A000088578000835A0000835A00008A4
:1000C00035A0000835A0000835A0000835A00008BC
:1000D00035A000089178000835A0000835A0000878
:1000E000B178000835A0000835A0000835A0000848
:1000F00035A0000835A0000835A0000835A000088C
:1001000035A0000835A0000835A0000835A000087B
:1001100035A0000835A0000835A0000835A000086B
:1001200035A0000835A0000835A0000835A000085B
:1001300000000000000000000000000000000000BF
:1001400000000000000000000000000000000000AF
:10015000000000000000000000000000000000009F
:10016000000000000000000000000000000000008F
:10017000000000000000000000000000000000007F
:10018000000000000000000000000000000000006F
:10019000000000000000000000000000000000005F
:1001A000000000000000000000000000000000004F
:1001B000000000000000000000000000000000003F
:1001C000000000000000000000000000000000002F
:1001D000000000000000000000000000000000001F
:0401E0005FF8E0F1F3
:1001E80010B5054C237833B9044B13B10448AFF369
:1001F80000800123237010BD480200200000000089
:10020800CCFF000808B5034B1BB103490348AFF303
:10021800008008BD000000004C020020CCFF000850
:10022800034613F8012B002AFBD1181A013870472E
:1002380010F8012B11F8013B012A28BF9A42F7D088
:10024800D01A704781F0004102E000BF83F00043FC
:1002580030B54FEA41044FEA430594EA050F08BF59
:1002680090EA020F1FBF54EA000C55EA020C7FEA1D
:10027800645C7FEA655C00F0E2804FEA5454D4EB9A
:100288005555B8BF6D420CDD2C4480EA020281EA64
:10029800030382EA000083EA010180EA020281EA9C
:1002A8000303362D88BF30BD11F0004F4FEA0131EE
:1002B8004FF4801C4CEA113102D0404261EB4101FD
:1002C80013F0004F4FEA03334CEA133302D0524283
:1002D80063EB430394EA050F00F0A780A4F101043F
:1002E800D5F1200E0DDB02FA0EFC22FA05F2801879
:1002F80041F1000103FA0EF2801843FA05F359415F
:100308000EE0A5F120050EF1200E012A03FA0EFCDD
:1003180028BF4CF0020C43FA05F3C01851EBE37107
:1003280001F0004507D54FF0000EDCF1000C7EEB24
:1003380000006EEB0101B1F5801F1BD3B1F5001F62
:100348000CD349085FEA30004FEA3C0C04F1010481
:100358004FEA445212F5800F80F09A80BCF1004FAA
:1003680008BF5FEA500C50F1000041EB045141EA2C
:10037800050130BD5FEA4C0C404141EB0101013CF5
:1003880028BFB1F5801FE9D291F0000F04BF0146E4
:100398000020B1FA81F308BF2033A3F10B03B3F1B6
:1003A80020020CDA0C3208DD02F1140CC2F10C0246
:1003B80001FA0CF021FA02F10CE002F11402D8BFA4
:1003C800C2F1200C01FA02F120FA0CFCDCBF41EA70
:1003D8000C019040E41AA2BF01EB0451294330BD3F
:1003E8006FEA04041F3C1CDA0C340EDC04F114041C
:1003F800C4F1200220FA04F001FA02F340EA0300F3
:1004080021FA04F345EA030130BDC4F10C04C4F138
:10041800200220FA02F001FA04F340EA0300294618
:1004280030BD21FA04F0294630BD94F0000F83F462
:10043800801306BF81F480110134013D4EE77FEA45
:10044800645C18BF7FEA655C29D094EA050F08BF91
:1004580090EA020F05D054EA000C04BF1946104672
:1004680030BD91EA030F1EBF0021002030BD5FEAB6
:10047800545C05D14000494128BF41F0004130BDDE
:1004880014F580043CBF01F5801130BD01F0004532
:1004980045F0FE4141F470014FF0000030BD7FEAA5
:1004A800645C1ABF194610467FEA655C1CBF0B46A0
:1004B800024650EA013406BF52EA033591EA030FB7
:1004C80041F4002130BD00BF90F0000F04BF0021AF
:1004D800704730B54FF4806404F132044FF00005E2
:1004E8004FF0000150E700BF90F0000F04BF00215B
:1004F800704730B54FF4806404F1320410F00045C1
:1005080048BF40424FF000013EE700BF42004FEABB
:10051800E2014FEA31014FEA02701FBF12F07F4338
:1005280093F07F4F81F06051704732F07F4208BFEF
:10053800704793F07F4F04BF41F40021704730B5F6
:100548004FF4607401F0004521F000411CE700BF42
:1005580050EA010208BF704730B54FF000050AE0C5
:1005680050EA010208BF704730B511F0004502D5C6
:10057800404261EB41014FF4806404F132045FEAC8
:10058800915C3FF4D8AE4FF003025FEADC0C18BF71
:1005980003325FEADC0C18BF033202EBDC02C2F163
:1005A800200300FA03FC20FA02F001FA03FE40EAF5
:1005B8000E0021FA02F11444BDE600BF70B54FF0F9
:1005C800FF0C4CF4E06C1CEA11541DBF1CEA1355D7
:1005D80094EA0C0F95EA0C0F00F0DEF82C4481EA3F
:1005E800030621EA4C5123EA4C5350EA013518BF5F
:1005F80052EA033541F4801143F4801338D0A0FB4C
:1006080002CE4FF00005E1FB02E506F00042E0FBF8
:1006180003E54FF00006E1FB03569CF0000F18BFFE
:100628004EF0010EA4F1FF04B6F5007F64F54074A6
:1006380004D25FEA4E0E6D4146EB060642EAC62139
:1006480041EA55514FEAC52040EA5E504FEACE2EA6
:10065800B4F1FD0C88BFBCF5E06F1ED8BEF1004FA9
:1006680008BF5FEA500E50F1000041EB045170BD25
:1006780006F0004646EA010140EA020081EA030169
:10068800B4EB5C04C2BFD4EB0C0541EA045170BD65
:1006980041F480114FF0000E013C00F3AB8014F1DF
:1006A800360FDEBF002001F0004170BDC4F1000428
:1006B800203C35DA0C341BDC04F11404C4F12005A9
:1006C80000FA05F320FA04F001FA05F240EA020004
:1006D80001F0004221F0004110EBD37021FA04F63A
:1006E80042EB06015EEA430E08BF20EAD37070BDF4
:1006F800C4F10C04C4F1200500FA04F320FA05F053
:1007080001FA04F240EA020001F0004110EBD37054
:1007180041F100015EEA430E08BF20EAD37070BDC4
:10072800C4F1200500FA05F24EEA020E20FA04F39D
:1007380001FA05F243EA020321FA04F001F000414C
:1007480021FA04F220EA020000EBD3705EEA430EBD
:1007580008BF20EAD37070BD94F0000F0FD101F0EC
:100768000046400041EB010111F4801F08BF013C25
:10077800F7D041EA060195F0000F18BF704703F063
:100788000046520043EB030313F4801F08BF013DEA
:10079800F7D043EA0603704794EA0C0F0CEA1355A6
:1007A80018BF95EA0C0F0CD050EA410618BF52EA60
:1007B8004306D1D181EA030101F000414FF0000066
:1007C80070BD50EA410606BF1046194652EA430674
:1007D80019D094EA0C0F02D150EA013613D195EAE8
:1007E8000C0F05D152EA03361CBF104619460AD130
:1007F80081EA030101F0004141F0FE4141F470013A
:100808004FF0000070BD41F0FE4141F4780170BD29
:1008180070B54FF0FF0C4CF4E06C1CEA11541DBF8E
:100828001CEA135594EA0C0F95EA0C0F00F0A7F890
:10083800A4EB050481EA030E52EA03354FEA0131BD
:1008480000F088804FEA03334FF0805545EA1313D0
:1008580043EA12634FEA022245EA111545EA106598
:100868004FEA00260EF000419D4208BF964244F12F
:10087800FD0404F5407402D25B084FEA3202B61A4E
:1008880065EB03055B084FEA32024FF480104FF422
:10089800002CB6EB020E75EB030E22BFB61A754696
:1008A80040EA0C005B084FEA3202B6EB020E75EB29
:1008B800030E22BFB61A754640EA5C005B084FEA91
:1008C8003202B6EB020E75EB030E22BFB61A75465E
:1008D80040EA9C005B084FEA3202B6EB020E75EB69
:1008E800030E22BFB61A754640EADC0055EA060E2A
:1008F80018D04FEA051545EA16754FEA06164FEA6D
:10090800C30343EA52734FEAC2025FEA1C1CC0D118
:1009180011F4801F0BD141EA00014FF000004FF0A5
:10092800004CB6E711F4801F04BF01430020B4F166
:10093800FD0C88BFBCF5E06F3FF6AFAEB5EB030C1E
:1009480004BFB6EB020C5FEA500C50F1000041EB1B
:10095800045170BD0EF0004E4EEA113114EB5C04E8
:10096800C2BFD4EB0C0541EA045170BD41F48011BB
:100978004FF0000E013C90E645EA060E8DE60CEAC3
:10098800135594EA0C0F08BF95EA0C0F3FF43BAFE0
:1009980094EA0C0F0AD150EA01347FF434AF95EA97
:1009A8000C0F7FF425AF104619462CE795EA0C0F7B
:1009B80006D152EA03353FF4FDAE1046194622E748
:1009C80050EA410618BF52EA43067FF4C5AE50EA22
:1009D80041047FF40DAF52EA43057FF4EBAE12E712
:1009E8004FF0FF3C06E000BF4FF0010C02E000BFF3
:1009F8004FF0010C4DF804CD4FEA410C7FEA6C5CD6
:100A08004FEA430C18BF7FEA6C5C1BD001B050EA78
:100A1800410C0CBF52EA430C91EA030F02BF90EA63
:100A2800020F0020704710F1000F91EA030F58BF22
:100A3800994208BF90422CBFD8176FEAE37040F084
:100A4800010070474FEA410C7FEA6C5C02D150EA22
:100A5800013C07D14FEA430C7FEA6C5CD6D152EADD
:100A6800033CD3D05DF8040B704700BF84461046A2
:100A780062468C461946634600E000BF01B5FFF7A1
:100A8800B7FF002848BF10F1000F01BD4DF808ED71
:100A9800FFF7F4FF0CBF012000205DF808FB00BF42
:100AA8004DF808EDFFF7EAFF34BF012000205DF89C
:100AB80008FB00BF4DF808EDFFF7E0FF94BF0120E9
:100AC80000205DF808FB00BF4DF808EDFFF7CEFFEA
:100AD80094BF012000205DF808FB00BF4DF808ED29
:100AE800FFF7C4FF34BF012000205DF808FB00BFFA
:100AF8004FEA410C7FEA6C5C02D150EA013C0AD112
:100B08004FEA430C7FEA6C5C02D152EA033C02D103
:100B18004FF0000070474FF0010070474A0011D2B3
:100B280012F5001211D20DD56FF47873B3EB62523F
:100B38000ED44FEAC12343F0004343EA505323FA4B
:100B480002F070474FF00000704750EA013002D1C0
:100B58004FF0FF3070474FF0000070474FEA4102F6
:100B6800B2F1E04324BFB3F5001CDCF1FE5C0DD903
:100B780001F0004C4FEAC0024CEA5070B2F1004F4D
:100B880040EB830008BF20F00100704711F0804F50
:100B980021D113F13872BCBF01F00040704741F415
:100BA80080114FEA5252C2F11802C2F1200C10FA19
:100BB8000CF320FA02F018BF40F001004FEAC123FD
:100BC8004FEAD32303FA0CFC40EA0C0023FA02F3A1
:100BD8004FEA4303CCE77FEA625307D150EA013377
:100BE8001EBF4FF0FE4040F44000704701F0004047
:100BF80040F0FE4040F40000704700BF80F0004025
:100C080002E000BF81F0004142001FBF5FEA4103DC
:100C180092EA030F7FEA226C7FEA236C6AD04FEADC
:100C28001262D2EB1363C1BFD21841404840414021
:100C3800B8BF5B42192B88BF704710F0004F40F4D3
:100C4800000020F07F4018BF404211F0004F41F4EF
:100C5800000121F07F4118BF494292EA030F3FD0BB
:100C6800A2F1010241FA03FC10EB0C00C3F12003CE
:100C780001FA03F100F0004302D5494260EB40005D
:100C8800B0F5000F13D3B0F1807F06D340084FEAC8
:100C9800310102F10102FE2A51D2B1F1004F40EBBD
:100CA800C25008BF20F0010040EA03007047490025
:100CB80040EB0000013A28BFB0F5000FEDD2B0FAC2
:100CC80080FCACF1080CB2EB0C0200FA0CF0AABFE5
:100CD80000EBC25052421843BCBFD0401843704783
:100CE80092F0000F81F4000106BF80F40000013289
:100CF800013BB5E74FEA41037FEA226C18BF7FEA60
:100D0800236C21D092EA030F04D092F0000F08BFA1
:100D18000846704790EA010F1CBF0020704712F088
:100D28007F4F04D1400028BF40F00040704712F1C7
:100D380000723CBF00F50000704700F0004343F02C
:100D4800FE4040F4000070477FEA226216BF084662
:100D58007FEA23630146420206BF5FEA412390EA25
:100D6800010F40F4800070474FF0000304E000BF1B
:100D780010F0004348BF40425FEA000C08BF7047CC
:100D880043F0964301464FF000001CE050EA010290
:100D980008BF70474FF000030AE000BF50EA0102A5
:100DA80008BF704711F0004302D5404261EB410192
:100DB8005FEA010C02BF84460146002043F0B643B7
:100DC80008BFA3F18053A3F50003BCFA8CF2083ADC
:100DD800A3EBC25310DB01FA02FC634400FA02FCE5
:100DE800C2F12002BCF1004F20FA02F243EB0200EC
:100DF80008BF20F00100704702F1200201FA02FC4E
:100E0800C2F1200250EA4C0021FA02F243EB020040
:100E180008BF20EADC7070474FF0FF0C1CEAD05284
:100E28001EBF1CEAD15392EA0C0F93EA0C0F6FD045
:100E38001A4480EA010C400218BF5FEA41211ED023
:100E48004FF0006343EA501043EA5111A0FB01310F
:100E58000CF00040B1F5000F3EBF490041EAD371E4
:100E68005B0040EA010062F17F02FD2A1DD8B3F160
:100E7800004F40EBC25008BF20F00100704790F0CF
:100E8800000F0CF0004C08BF49024CEA502040EA21
:100E980051207F3AC2BFD2F1FF0340EAC2507047E7
:100EA80040F400004FF00003013A5DDC12F1190F25
:100EB800DCBF00F000407047C2F10002410021FA97
:100EC80002F1C2F1200200FA02FC5FEA310040F1AF
:100ED800000053EA4C0308BF20EADC70704792F028
:100EE800000F00F0004C02BF400010F4000F013A60
:100EF800F9D040EA0C0093F0000F01F0004C02BF5B
:100F0800490011F4000F013BF9D041EA0C018FE7C9
:100F18000CEAD15392EA0C0F18BF93EA0C0F0AD0CF
:100F280030F0004C18BF31F0004CD8D180EA0100F5
:100F380000F00040704790F0000F17BF90F0004F8E
:100F4800084691F0000F91F0004F14D092EA0C0F70
:100F580001D142020FD193EA0C0F03D14B0218BF03
:100F6800084608D180EA010000F0004040F0FE4049
:100F780040F40000704740F0FE4040F440007047E5
:100F88004FF0FF0C1CEAD0521EBF1CEAD15392EA64
:100F98000C0F93EA0C0F69D0A2EB030280EA010C54
:100FA80049024FEA402037D04FF0805343EA1111ED
:100FB80043EA10130CF000408B4238BF5B0042F14B
:100FC8007D024FF4000C8B4224BF5B1A40EA0C00F0
:100FD800B3EB510F24BFA3EB510340EA5C00B3EB22
:100FE800910F24BFA3EB910340EA9C00B3EBD10F10
:100FF80024BFA3EBD10340EADC001B0118BF5FEA62
:101008001C1CE0D1FD2A3FF650AF8B4240EBC2508A
:1010180008BF20F0010070470CF0004C4CEA50204B
:101028007F32C2BFD2F1FF0340EAC250704740F49A
:1010380000004FF00003013A37E792F0000F00F08C
:10104800004C02BF400010F4000F013AF9D040EA0A
:101058000C0093F0000F01F0004C02BF490011F49E
:10106800000F013BF9D041EA0C0195E70CEAD15396
:1010780092EA0C0F08D142027FF47DAF93EA0C0F7D
:101088007FF470AF084676E793EA0C0F04D14B0261
:101098003FF44CAF08466EE730F0004C18BF31F013
:1010A800004CCAD130F000427FF45CAF31F000430D
:1010B8007FF43CAF5FE700BF4FF0FF3C06E000BFA6
:1010C8004FF0010C02E000BF4FF0010C4DF804CDC9
:1010D8004FEA40024FEA41037FEA226C18BF7FEAD9
:1010E800236C11D001B052EA530C18BF90EA010FDB
:1010F80058BFB2EB030088BFC81738BF6FEAE1706A
:1011080018BF40F0010070477FEA226C02D15FEA05
:10111800402C05D17FEA236CE4D15FEA412CE1D071
:101128005DF8040B704700BF844608466146FFE738
:101138000FB5FFF7C9FF002848BF10F1000F0FBD1A
:101148004DF808EDFFF7F4FF0CBF012000205DF813
:1011580008FB00BF4DF808EDFFF7EAFF34BF012098
:1011680000205DF808FB00BF4DF808EDFFF7E0FF31
:1011780094BF012000205DF808FB00BF4DF808ED82
:10118800FFF7D2FF94BF012000205DF808FB00BFE5
:101198004DF808EDFFF7C8FF34BF012000205DF8C7
:1011A80008FB00BF4FEA4002B2F1FE4F0FD34FF0E9
:1011B8009E03B3EB12620DD94FEA002343F00043BC
:1011C80010F0004F23FA02F018BF404270474FF06A
:1011D8000000704712F1610F01D1420205D110F0F1
:1011E800004008BF6FF0004070474FF000007047A4
:1011F80042000ED2B2F1FE4F0BD34FF09E03B3EB79
:10120800126209D44FEA002343F0004323FA02F0A4
:1012180070474FF00000704712F1610F01D1420290
:1012280002D14FF0FF3070474FF00000704700BF09
:101238007BB972B90029BEBF00204FF0004106E01B
:1012480008BF00281CBF6FF000414FF0FF3000F0CE
:10125800DDB9ADF1080C6DE904CE002909DB002BDE
:101268001ADB00F06DF8DDF804E0DDE9022304B0D4
:101278007047404261EB4101002B1BDB00F060F836
:10128800DDF804E0DDE9022304B0404261EB4101EE
:10129800524263EB43037047524263EB430300F04F
:1012A8004FF8DDF804E0DDE9022304B0404261EBC9
:1012B80041017047524263EB430300F041F8DDF807
:1012C80004E0DDE9022304B0524263EB43037047B4
:1012D80038B505460C460022002328462146FFF76C
:1012E800DFFB28B928462146BDE8384000F00AB897
:1012F800284604F1004100F005F8404261EB410145
:1013080038BD00BFD0B500220B4B06460F46FFF78D
:1013180055F9FFF703FC0446FFF7D6F80022074B00
:10132800FFF74CF902460B4630463946FEF78EFF6A
:10133800FFF7F4FB2146D0BD0000F03D0000F0416E
:101348002DE9F047089E0D4604468E46002B4CD1E9
:101358008A42944667D9B2FA82F353B102FA03FC7F
:10136800C3F1200201FA03FE20FA02F242EA0E0E4D
:101378009C404FEA1C47BEFBF7F11FFA8CF507FBB0
:1013880011EE01FB05F0220C42EA0E4290420AD906
:101398001CEB020201F1FF3E80F01981904240F2FD
:1013A800168102396244121AB2FBF7F007FB1022C9
:1013B80000FB05F5A4B244EA0244A5420AD91CEB95
:1013C800040400F1FF3280F00481A54240F201815B
:1013D8006444023840EA01400021641B1EB1DC402D
:1013E8000023C6E90043BDE8F0878B4208D9002EE8
:1013F80000F0EA800021C6E900050846BDE8F0874C
:10140800B3FA83F1002948D1AB4202D3824200F2F9
:10141800F880841A65EB030201209646002EE2D07C
:10142800C6E9004EDFE702B9FFDEB2FA82F3002B0D
:1014380040F08E80881A0121170C1FFA82FEB0FB3B
:10144800F7F507FB1500220C42EA00420EFB05F0F7
:10145800904208D91CEB020205F1FF3802D29042F3
:1014680000F2CC804546121AB2FBF7F007FB1022B7
:101478000EFB00FEA4B244EA0244A64508D91CEBC0
:10148800040400F1FF3202D2A64500F2B4801046EF
:10149800A4EB0E0440EA0540A0E7C1F120078B4009
:1014A80022FA07FC4CEA030C25FA07FA4FEA1C4912
:1014B800BAFBF9F88D4020FA07F309FB18AA1FFABE
:1014C8008CFE2B4300FA01F508FB0EF01C0C44EAD5
:1014D8000A44A04202FA01F20BD91CEB040408F1F9
:1014E800FF3A80F08680A04240F28380A8F102088B
:1014F8006444241A98B2B4FBF9F309FB134403FBC0
:101508000EFE40EA0444A64508D91CEB040403F186
:10151800FF306AD2A64568D9023B644443EA0840D2
:10152800A0FB0293A4EB0E049C42C8469E4654D3EB
:1015380051D0002E67D0B5EB080364EB0E04CB4006
:1015480004FA07F71F43CC40C6E9007400214AE7B4
:1015580002FA03FCC3F12000C1409D4024FA00F0C8
:101568004FEA1C472843B1FBF7F507FB15111FFA93
:101578008CFE020C42EA014205FB0EF1914204FA8C
:1015880003F408D91CEB020205F1FF382FD291426F
:101598002DD9023D6244521AB2FBF7F107FB112222
:1015A80080B240EA024001FB0EF2824208D91CEBED
:1015B800000001F1FF3816D2824214D90239604482
:1015C800801A41EA05413AE7314630460BE7714651
:1015D800E9E61046FEE64D45ABD2B9EB020863EBEF
:1015E8000C0E0138A5E74146EAE7034696E745466B
:1015F800D1E7D0467DE76444023849E7023D6244BA
:1016080031E708460AE73146EDE600BF704700BFFC
:1016180005F0EABB10B5044605F00CFC230A5B0094
:10162800603B03F0FE0005F0B1FC05F045FCE0B2BC
:1016380005F0ACFC05F040FC05F0FCFBA12005F032
:10164800A5FC05F039FC002005F0CEFC044605F0A9
:1016580011FC204610BD38B504460D4605F0EAFBDE
:10166800230A5B00603B03F0FE0005F08FFC05F0E9
:1016780023FCE0B205F08AFC05F01EFC284605F0C4
:1016880085FC05F019FC05F0F5FBBDE838400A209B
:1016980000F0B2BB70B50D468418A4B2A04200D1C8
:1016A80070BD461CFFF7B6FFB6B205F8010B304611
:1016B800F4E770B504460E468518ADB2AC4200D1C9
:1016C80070BD204616F8011B0134FFF7C4FFA4B211
:1016D800F4E72DE9F04105460C4614200AF0A4F978
:1016E80055EA040306460FD080460746012D74F1DB
:1016F8000002A7EB06030CDAF21806EB6303984521
:1017080013D100233B7001E0302303803046BDE84D
:10171800F081284621460A220023FFF789FD30324E
:1017280005460C4607F8012BE0E798F8001012F878
:10173800010D08F8010B1170E1E72DE9F04F0024C5
:101748000E46A3B06022214605460AA809940BF06C
:10175800DDFA3046FEF764FDA04607462346BB4245
:101768000EDB04F188030DEB0304002309A804F839
:10177800643C0BF095FA284609A900F0B9F833E063
:10178800F25CF1182D2A03D0A2F12A00012807D80B
:1017980004F18801694401F8642C01340133DEE75F
:1017A800303A012AFAD80DF1100C0022604611F8DF
:1017B80001EB02EB0309AEF1300ABAF1010F17D9B8
:1017C80002F188030DEB030202F8788C03A90222C8
:1017D8000BF0D8F9039B93F800A0BAF1000F0BD0D7
:1017E80004232B6000236B60284623B0BDE8F08FEC
:1017F80001320CF801EBDAE7C117FFF76AFF22465E
:10180800834609AB2344584601930AEB020400922D
:10181800FEF706FDDDE90023504502D809F1FF3344
:10182800BCE71BF80A100AF1010A03F8011BEAE7F2
:10183800D0F894312DE97043002B044654DDD0F8DC
:101848009031002B50DBC35C282B2AD005F0D0FF49
:101858000546204605F0CCFF0646204605F0B0FFB9
:101868002F280AD829283DD9A0F12A03052B39D8D1
:10187800DFE803F0192E3833381E5E2832D12846A7
:10188800FEF744FE804689463046FEF73FFE424654
:101898004B460DF0B7FAFFF761F90146204605F00F
:1018A80097FF00200DE031462846FFF7B5FAF4E728
:1018B80000212846FFF744FC28B10C480BF0F0F94A
:1018C8000120BDE8708329463046FFF759FBE4E75D
:1018D80031462846FFF798F9DFE729463046FFF7F3
:1018E80091F9DAE70020D8E70320EAE79A0001082F
:1018F8002DE9F04F814685B000200F4605F047FFDF
:10190800282104464FF0000A05F04CFF3846FEF740
:1019180087FC504580460BD2204605F069FF00251C
:10192800C9F804004846C9F8005005B0BDE8F08F72
:1019380040F2BE8017F80A10A1F13003092B68D9CC
:101948002F2900F2A680272940F2A58028390729E7
:1019580000F2A180DFE801F0A2ACCACE9FD09FCCF4
:10196800514630460093FFF757FA009B0646184643
:10197800FFF7FEF901463046FFF746F97249FFF7CF
:1019880041F9064601357B5DA3F13002092A45D9A4
:101998002E2B00F0B5805E2B42D1454540D2D4F8BD
:1019A8009031E35C5E2B3BD07B195B78283B012BA5
:1019B80036D90020654ADFF890B101357B5DA3F187
:1019C8003001092901D8A84544D8FEF79FFD824671
:1019D80030468B46FEF79AFD02460B46CDE90023BA
:1019E8000DF0DEF902460B4650465946FEF7E6FD75
:1019F80053A3D3E90023FFF771F800287ED1DDE96E
:101A0800000152465B460DF0FDF9FFF7A7F80646C0
:101A180006E055460026DFF834A1B4E745459FD3D4
:101A28003146204605F0D4FED4F8903105F1FF3A4E
:101A3800E35C2A2B01D02F2B20D17B5D5E2B1DD0A0
:101A48002046FFF7F5FE0546C0B1204609F0F4FF31
:101A5800002065E7114600920393FFF7DDF9039B29
:101A680082461846FFF784F901465046FFF7CCF83E
:101A78005946FFF7C7F80135009A9FE7D4F8903127
:101A8800E35C5E2B07D12046FFF7D2FE054610B176
:101A9800DBE75E2903D00AF1010A37E7282120464F
:101AA80005F080FEF7E7FFF7C3FE05460028CCD116
:101AB800D4F890312046E35C282BF4D105F080FE61
:101AC800D4F89031E35C5E2B05D12046FFF7B0FED9
:101AD80005460028B9D1D4F89031E35C2A2BDAD135
:101AE80007EB0A035B785E2BD5D0CCE72A21D6E733
:101AF8002F21D4E72B21D2E72D21D0E70425A7E712
:101B080045458DD2DFF848B00135785D3038C2B22E
:101B1800092A3FF638AFA8457FF635AFFFF728F911
:101B28005946FFF779F901463046FFF76DF85146F7
:101B380006465846FFF724FA01358346E5E700BF15
:101B4800EF39FAFE422E36400000404200002041A4
:101B5800CDCCCC3D052000F035B900000E4B10B5BA
:101B68009A6986B042F010029A619B69012403F0D9
:101B780010030193019B0923CDE90234032307488D
:101B880002A90593049408F0DDFB054BC3F88041D6
:101B9800C3F88C4106B010BD00100240001001408F
:101BA8000000224238B50D4B00251A680C4C22F46F
:101BB80070421A601A681E2042F440521A600123CB
:101BC800C4F88C31C4F8803100F0FCF8C4F88C51AA
:101BD800FFF7C0FFC4F8805138BD00BF00100140B6
:101BE8000000224238B501250B4B0C4C1A681E2008
:101BF80022F470421A601A6842F440521A60C4F81B
:101C0800805100F0DFF80023C4F88C31FFF7A2FF01
:101C1800C4F88C5138BD00BF0010014000002242BA
:101C280038B5114B114D1A68FB2422F470421A6022
:101C38001A6842F400421A600123C5F88C31C5F8CD
:101C48008031FFF787FFD5F80C0110B9C5F880017E
:101C580006E0013C14F0FF0403D1FFF7C3FF0120A5
:101C680038BDFFF777FFEEE7001001400000224281
:101C780038B500250C4C0D4BC4F880511A6822F475
:101C880070421A601A6842F440521A60FFF762FF05
:101C9800C4F88C51FFF75EFF0123C4F88031FFF7C9
:101CA80059FFC4F8805138BD00002242001001409D
:101CB80070B5002501260C4C0C4BC4F880511A68ED
:101CC80022F470421A601A6842F440521A60FFF710
:101CD80041FFC4F88C61FFF73DFFC4F88061FFF74E
:101CE80039FFC4F8805170BD000022420010014045
:101CF8002DE9F0410027124B124E1A68044622F4CF
:101D080070421A601A68082542F440521A60C6F8F0
:101D18008071FFF71FFF4FF00108E309C6F88C3107
:101D2800C6F88081FFF716FF013DC6F88071FFF7FE
:101D380011FF640015F0FF05E4B2EED1BDE8F081B3
:101D480000100140000022422DE9F8430024164B00
:101D580006461A681E2022F470421A601A6808257E
:101D680042F400421A6000F02DF8A1464FF0010835
:101D78000E4FC7F88091FFF7EDFEC7F88081D7F8BE
:101D88000C316400E4B20BB10134E4B2013D15F04A
:101D9800FF05EED126B9FFF78BFF2046BDE8F88393
:101DA800FFF766FFF9E700BF00100140000022427C
:101DB80010B50446042008F0F9F9014B1C6010BD69
:101DC800640200200B4B70B51B684FF0E0245843A9
:101DD80000236569A169A2699142FCD095BFAE1A3A
:101DE8005B189B199B1A98BF5B18834200D370BD80
:101DF8001146F0E76402002038B505460024A542E4
:101E080000D838BD4FF47A70FFF7DCFF0134F6E7ED
:101E180070B505460C461646FFF7C4FE7020FFF75E
:101E280067FFFFF7FDFEE8B2FFF762FFFFF7F8FE76
:101E38002644B44201D1002508E014F8010BFFF74D
:101E480057FFFFF7EDFE05460028F2D0FFF7CAFE60
:101E5800284670BDF8B5044615460E46FFF7A2FEA3
:101E68007020FFF745FFFFF7DBFEE0B2FFF740FF0A
:101E7800FFF7D6FEFFF796FE7120FFF739FF002423
:101E8800FFF7CEFE6F1EAC4203D1BDE8F840FFF766
:101E9800A9BE381B18BF0120FFF756FF3055013483
:101EA800F1E700002F4BF0B59A6987B042F01002B5
:101EB8009A619B69012403F010030193019B4FF47D
:101EC8000053CDE902340323002502262648274F74
:101ED80002A90593049408F035FA02A92248CDE92D
:101EE800026508F02FFAFFF739FE1420C7F8B4513D
:101EF800FFF782FF3220C7F8B441FFF77DFF224683
:101F0800694628468DF80050FFF782FF2246694649
:101F1800A420FFF77DFF16232246694680208DF80E
:101F28000030FFF775FF0C232246694688208DF89C
:101F38000030FFF76DFF32466946A120FFF78AFFA0
:101F48009DF80030302B0BD19DF80130032B07D1C1
:101F580043F2030106480AF03DFE284607B0F0BDEB
:101F68002046FBE70010024000100140000022421A
:101F7800B30001082DE9FF410A21484E8DF80700FA
:101F880033780133DBB2B3FBF1F201FB1232D2B288
:101F9800337002B3092B1ED900209DF80730DB06E9
:101FA80011D13F4B93F9201093F820200029A9BFA5
:101FB8004FF6FF7102F07F0222F01F029981A8BF3D
:101FC800D98283F820203378F02B84BF0A2333701A
:101FD80004B0BDE8F081012202200DF10701FFF7EE
:101FE80039FF9DF8072002F00F02531E042BD3D8A7
:101FF800FF239340DB430027294D63F03F03DFF8BD
:10200800A48085F8203005F10C0495F820303B4178
:10201800DA0724D5042238F8170003A9FFF71AFFB6
:1020280095F830309DF80C1013F0010F9DF80D2035
:102038009DF80E309DF80F0021D04FEA012C0CF4CA
:10204800706C624462811A0202F470620244228057
:1020580001F0F003802B1EBF00236381238001372A
:10206800052F04F10204D0D1AB89EA8A13439BB24D
:102078000BB98DF807300023012033708DE74FEA44
:10208800012C1B02C2F5F0720CF4706C03F470633F
:10209800A2EB0C02184422806081D9E76802002074
:1020A80030000020C000010810222DE9F04301246F
:1020B800022589B00DEB020000210AF027FE3A4BF9
:1020C8003A4E9A69DFF8E88042F020029A619A69EC
:1020D800304602F020020192019A9A694FF4807109
:1020E80042F004029A619A69DFF8C89002F004028B
:1020F8000292029A9A69002742F010029A619B693B
:10210800002203F010030393039B08F009FA00224E
:102118004046042108F004FA274B304604A9CDE9CB
:102128000443069508F00EF9202304A92348CDE9B5
:102138000439069408F006F94FF48073304604A970
:10214800CDE90434CDE9067508F0FCF84FF40043F6
:10215800304604A9CDE90439069408F0F3F80423BD
:10216800404604A9CDE90434CDE9067508F0EAF83B
:102178003A462146062007F0C7FF062007F0F4FF7D
:1021880022462146172007F0BFFF172007F0ECFF73
:102198002A462146282007F0B7FF282007F0E4FF49
:1021A80009B0BDE8F08300BF0010024000080140FC
:1021B800001401400000211000001110001001401F
:1021C80070B505460C461646FFF7ECFC2820FFF7CD
:1021D8008FFDFFF725FD280AFFF78AFDFFF720FD91
:1021E800E8B2FFF785FDFFF71BFD2644B44201D195
:1021F800002508E014F8010BFFF77AFDFFF710FD42
:1022080005460028F2D0FFF7EDFC284670BD000017
:10221800002307B51A460E498DF8050011F8010B81
:102228000132D2B20344B82ADBB2F7D15B42084983
:1022380048F247008DF80430FFF7C2FF022201A9D7
:1022480048F2FF00FFF7BCFF002003B05DF804FB75
:10225800EC000108F8B5044615460E46FFF7A2FC47
:102268002820FFF745FDFFF7DBFC200AFFF740FDBC
:10227800FFF7D6FCE0B2FFF73BFDFFF7D1FCFFF715
:1022880091FC2920FFF734FD0024FFF7C9FC6F1EDD
:10229800AC4203D1BDE8F840FFF7A4BC381B18BF17
:1022A8000120FFF751FD30550134F1E7374BF0B508
:1022B8009A6989B042F010029A619B69012403F07F
:1022C80010030193019B4FF40053CDE90434032319
:1022D800002602252E482F4F04A90793069408F0DC
:1022E80031F804A92A48CDE9045608F02BF8FFF77D
:1022F80035FC0A20C7F8B461FFF77EFD0A20C7F84D
:10230800B441FFF779FD04A92148CDE90565049595
:1023180008F018F86420FFF76FFD042248F2401017
:1023280002A9FFF797FF02A91B488DF80C600AF075
:1023380051FC1A4902A8FDF77BFF18BB224602A9E7
:1023480048F240008DF80850FFF73AFF02A92246EC
:1023580048F24700FFF77EFF9DF808105F2905D86F
:102368000F480AF037FC2046FFF752FF0A20FFF714
:1023780043FD0023012248F2400002A98DF80830ED
:10238800FFF71EFF002009B0F0BD00BF001002409B
:102398000010014000002242CA000108D6000108CE
:1023A800DB0001082DE9FF470A21564D8DF807008B
:1023B8002B780133DBB2B3FBF1F201FB1232D2B25C
:1023C8002B7012B3092B20D900209DF8073003F099
:1023D8008F03802B11D14C4B93F9201093F82020B8
:1023E8000029A9BF4FF6FF7102F07F0222F01F02F9
:1023F8009981A8BFD98283F820202B78F02B84BF3D
:102408000A232B7004B0BDE8F087012248F24E1071
:102418000DF10701FFF71EFF9DF907309DF80780B2
:10242800002B08F00F040BDA052C09D80023012231
:1024380048F24E100DF10B018DF80B30FFF7C0FE7E
:10244800E2B2013C042CBFD8FF2393408DF80B3037
:10245800DB4300272C4C63F03F0394F8209084F86A
:102468002030A389DFF8A4A0A382E38A04F10C0634
:10247800E38394F820303B41DB0720D504223AF867
:10248800170003A9FFF7E6FE94F830309DF80F1007
:1024980013F0010F9DF80E309DF80D009DF80C20EB
:1024A80018BFC3F5487302EB002217BFA3EB012343
:1024B80003EB01237281338004BF328073810137BB
:1024C800052F06F10206D4D1114BA1891A88914231
:1024D80003D8E28A5B889A4206D918F00E0F06D014
:1024E800E389A381238BE38200232B7008E0A38A6E
:1024F80084F82090A381E38BE38280238DF8073052
:10250800012062E76902002030000020A4010108D0
:102518006C0200204FF48072054B06495A614FF453
:1025280000725A61C8608021596119611A61704747
:1025380000100140000C014038B54FF08833134CAF
:10254800134D236063600023E3604FF480732B61B5
:102558004FF400736B6140236B610E4B9A8848F609
:1025680089139A4202D1012007F0AAFD4023A068EE
:102578002B614FF400732B614FF03333236063609A
:102588004FF6FF7380B2E36038BD00BF000C014016
:10259800001001406C02002010B50C46FFF7BAFF8E
:1025A8004FF48072054B06491A614FF400725A6164
:1025B800CC608021596119611A6110BD0010014079
:1025C800000C014008B5FFF7A5FFBDE80840FFF77C
:1025D800B3BF0000014B1889FFF79CBF6C020020B5
:1025E8004FF48072054B06491A614FF400725A6124
:1025F800C8608021596119611A6170470010014053
:10260800000C014049F241322DE9F84FDFF83C92C5
:102618000546B9F804300E469342B9F80A00B9F8ED
:102628000C8003D045F2103293423AD14FF4007730
:102638004FF080094FF4807B854CDFF818A2FFF734
:1026480069FF2B0AEDB2C4F810B040466761CAF8BA
:102658000C30C4F81490C4F810902761C4F810B076
:102668006761CAF80C50C4F81490C4F81090276138
:10267800FFF750FF330AC4F810B06761CAF80C308E
:10268800C4F81490C4F810902761F6B2C4F810B0DA
:102698006761CAF80C60C4F81490C4F810902761F8
:1026A80069E046F6040293420AD199F80630012BF4
:1026B80001BFB9F8003003F1FF335B1B9DB2B5E7EA
:1026C80041F66312934272D1B9F8007099F806A0E6
:1026D8005F4C013FBAF1000F4FD1FFF71BFF4FF4DA
:1026E800007380224FF480705A497F1BBFB220616B
:1026F8003D0A6361C1F80CA0626122612361206117
:102708006361C1F80CA06261226123612061636189
:10271800FFB2CD606261226123612061636140463E
:10272800CF60626122612361FFF7F4FE4FF4807588
:102738004FF400734748320A25616361C260802202
:10274800B9F80210F6B2013962612261236125618C
:102758006361C6600E12C9B262612261236125619C
:102768006361C66062612261236125616361C16042
:10277800626122612361BDE8F88FFFF7CBFE4FF459
:1027880000734FF4807033492A0A20616361CA607C
:102798008022EDB262612261236120616361CD60B4
:1027A80062613D122261236120616361B0E745F2F5
:1027B8001052934237D14FF400774FF080094FF40D
:1027C800807B234CDFF88CA0FFF7A4FE2B0A013096
:1027D800C4F810B080B26761CAF80C30C4F814901D
:1027E800C4F810902761FFF795FE4046EDB2C4F893
:1027F80010B06761CAF80C50C4F81490C4F810906F
:102808002761FFF787FE330A0130C4F810B080B2A1
:102818006761CAF80C30C4F81490C4F810902761A6
:10282800FFF778FE31E799F80630012B01BFB9F8B8
:10283800003003F1FF335B1B9DB22946FFF7ACFE66
:1028480031464046BDE8F84FFFF7A6BE6C020020AF
:1028580000100140000C01402DE9F74FA84D41F64A
:102868006313AA79AE88012A25D146F60402964256
:1028780001D09E4222D10138C0B2062896BFA14B92
:1028880000271F5C45F210539E4240F025814FF40B
:1028980058503946FFF780FE41F663118E422B8867
:1028A8006A88994C00F0C080B9062ED593422ED282
:1028B8002A806B802BE02AB99E4203D107289CBF4F
:1028C800924B185C49F241339E42D4D046F6040339
:1028D8009E42D0D045F210339E42CCD045F21053E0
:1028E8009E42C8D041F663139E42C4D0072896BFC3
:1028F800874B0021195C032041F4805103B0BDE8E7
:10290800F04FFFF749BE1F46F7E09342D0D845F293
:1029180010539E42B5F800906F88B5F80AA0B5F834
:102928000C8040F0818009F1FF334FF480764FF03E
:1029380080094FF0000B01937B1E4FF40077754D13
:1029480050460093FFF7E6FD0AF10100266180B2C8
:102958006761C5F80CB0C4F81490C4F810902761EA
:10296800FFF7D8FD0AF10200266180B26761C5F859
:102978000CB0C4F81490C4F810902761FFF7CAFD92
:10298800019B0AF103001912266180B26761E960B0
:10299800C4F81490C4F810902761FFF7BBFD9DF8A8
:1029A8000410266140466761E960C4F81490C4F8D1
:1029B80010902761FFF7AEFD08F10100266180B293
:1029C8006761C5F80CB0C4F81490C4F8109027617A
:1029D800FFF7A0FD08F10200266180B26761C5F823
:1029E8000CB0C4F81490C4F810902761FFF792FD5A
:1029F800009B08F103001912266180B26761E96043
:102A0800C4F81490C4F810902761FFF783FD9DF86F
:102A1800003026616761EB60C4F81490C4F8109028
:102A2800276103B0BDE8F08F4FF4007680274FF49C
:102A380080794FF0000A6889FFF76CFD2B88DFF872
:102A4800D480013B1A12DBB2C4F81090A8896661E1
:102A5800C8F80CA0676127612661C4F81090666108
:102A6800C8F80CA0676127612661C4F810906661F8
:102A7800C8F80C20676127612661C4F81090666168
:102A8800C8F80C30676127612661FFF743FD6B8842
:102A9800C4F81090013B1A12DBB26661C8F80CA0AA
:102AA800676127612661C4F810906661C8F80CA0B8
:102AB800676127612661C4F810906661C8F80C2028
:102AC800676127612661C4F810906661C8F80C3008
:102AD800676127612661A4E745F210339E420CD056
:102AE80041F663139E4208D046F60402964247F028
:102AF80008037FF408AF47F00A073620C9E600BF8D
:102B08006C020020B601010800100140AE01010866
:102B1800BD010108000C014008B5FFF773FDFFF780
:102B280059FD4FF48072074B07491A614FF4007240
:102B3800088806495A61C8608021596119611A617B
:102B480008BD00BF001001406A020020000C0140CF
:102B58002DE9F74F019249F24132DFF8908205469C
:102B6800B8F804300E469342B8F80A00B8F80CB02A
:102B78009F4C03D045F21032934236D1FFF7CAFC7E
:102B88004FF400774FF0800A4FF48072DFF86492B8
:102B9800290AEDB2226158466761C9F80C10C4F8D9
:102BA80014A0C4F810A0276122616761C9F80C500D
:102BB800C4F814A0C4F810A02761FFF7ABFC4FF4C9
:102BC8008072310AF6B222616761C9F80C10C4F844
:102BD80014A0C4F810A0276122616761C9F80C60CD
:102BE800C4F814A0C4F810A0B1E045F21052934202
:102BF80057D1FFF78FFC4FF4007980274FF480738B
:102C0800DFF8F0A12A0A0130236180B2C4F81490D9
:102C1800CAF80C2067612761C4F81090FFF77AFCA6
:102C28004FF480735846EDB22361C4F81490CAF883
:102C38000C504FF4807567612761C4F81090FFF756
:102C480069FC310A0130256180B2C4F81490F6B2EB
:102C5800CAF80C1067612761C4F81090FFF75AFC96
:102C68002561C4F81490CAF80C6067612761C4F83C
:102C780010904FF400734FF48070B8F808205D4945
:102C880060616361CA6080226261226123612061A0
:102C980001986361C86062612261236103B0BDE885
:102CA800F08F41F663118B4298F8062051D122B972
:102CB800B8F80030013B5B1B9DB2FFF72BFC4FF4CB
:102CC800007780234FF48072DFF828A1290AEDB23B
:102CD800226158466761CAF80C1063612361276155
:102CE80022616761CAF80C50636123612761226120
:102CF8006761CAF80C10636123612761226167610B
:102D0800CAF80C50636123612761FFF703FC802335
:102D18004FF48072310AF6B222616761CAF80C106A
:102D280063612361276122616761CAF80C6063618E
:102D38002361276122616761CAF80C10636123610E
:102D4800276122616761CAF80C60636123612761AA
:102D58008FE746F604018B4238D1012A08BFB8F83C
:102D680000304FF4007704BF03F1FF335B1B4FF0D3
:102D7800800A08BF9DB2FFF7CDFB4FF480721D4B50
:102D8800290AEDB2226158466761D960C4F814A0D7
:102D9800C4F810A0276122616761DD60C4F814A03F
:102DA800C4F810A02761FFF7B5FB4FF48072114BF0
:102DB800310AF6B222616761D960C4F814A0C4F878
:102DC80010A0276122616761DE6009E7012A01BF5F
:102DD800B8F8003003F1FF335B1B9DB22946FFF7BB
:102DE800DBFB31465846FFF7D7FB42E76C02002071
:102DF80000100140000C01402DE9F8438146BE2037
:102E0800FFF788FB4FF4007580264FF48078052380
:102E18001F4C204FC4F8108048466561FB6066610E
:102E280026612561C4F810806561FDF75DFB16A376
:102E3800D3E90023FDF7C2FBFDF770FE0123F8601C
:102E4800666126612561C4F810806561FB60FF2317
:102E5800666126612561C4F810806561FB60002306
:102E6800666126612561C4F810806561FB60666152
:102E780026612561C4F810806561FB606661266182
:102E88002561BDE8F88300BF66666666666604402D
:102E980000100140000C01404E4B4FF4A0719A887D
:102EA80000284AD1598049F241319871F0208A426C
:102EB800188007D046F604018A4203D045F2103143
:102EC8008A4213D12C2119812A2159812B219981D8
:102ED80046F604018A4203D045F210318A4229D1CC
:102EE8004FF4A0721A804FF4F07211E045F21051BD
:102EF8008A420FD14FF430521A814FF428525A8126
:102F08004FF42C529A814FF4F0721A804FF44872A1
:102F18005A800FE041F663118A4205D12C221A81AA
:102F28002B225A812A22EDE722221A8120225A8155
:102F380021229A810020FFF78FBC1980F021598047
:102F480049F2413101208A42987103D045F210318B
:102F58008A420FD12C2119812A2159812B2199814B
:102F680046F604018A4230D14FF4F0721A804FF4C9
:102F7800A072CDE746F604018A4206D12C221A81B6
:102F88002B225A812A229A81EEE745F210518A4271
:102F98000BD14FF430521A814FF428525A814FF412
:102FA8002C529A814FF448729CE741F663118A4289
:102FB80005D12C221A812A225A812B22F1E72222BA
:102FC8001A8121225A812022B3E745F210318A4220
:102FD800CAD0AFE76C0200202DE9F8431C4C064626
:102FE80023886588A2885D4346F604039A424FF019
:102FF800000121D194F80690B9F1010F1CD12A27BC
:103008004FF02B080846A1716781A4F80C80FFF7E0
:10301800F9FA84F80690A4F80A80A781FFF7DAFA8B
:103028004FF4807400224FF400718020094B0A4F3E
:10303800AA4205D1BDE8F8830846FFF7E3FAEDE7B1
:103048001C6101325961FE60586118611961EFE72E
:103058006C02002000100140000C01404F4B2DE98C
:10306800F04F9A6987B042F008029A619A69012480
:1030780002F008020092009A9A69494842F0100248
:103088009A619B6902A903F010030193019B4FF415
:10309800F863CDE9023403230494059307F052F949
:1030A8004FF6FF7302A93F48029307F04BF932200D
:1030B80007F006F821460020FFF76EFA322006F0E6
:1030C800FFFF0020FFF77EFAA0F1FF03364C9BB20A
:1030D800B3F57F4FA08002D2B0F5134F7ED1D32035
:1030E800FFF718FAFFF728FAFFF726FAFFF724FA8E
:1030F8000002A080FFF720FAA388184349F2413361
:1031080080B29842A08069D0BF20FFF703FAFFF78A
:1031180013FAFFF711FAFFF70FFAFFF70DFA00029B
:10312800A080FFF709FAA388184346F6040380B283
:103138009842A08052D0D420FFF7ECF9FFF7FCF9B1
:10314800FFF7FAF9FFF7F8F90002A080FFF7F4F9A2
:10315800A388184345F2103380B29842A0803DD02E
:103168004FF45A40FFF7D6F9FFF7E6F94FF45B4002
:10317800FFF7D0F9FFF7E0F90002A0804FF45C40B8
:10318800FFF7C8F9FFF7D8F9A388184380B2B0F55C
:10319800004F45F2105309D1A3801FE000100240F0
:1031A80000100140000C01406C0200209842A080F1
:1031B80014D0A120FFF7AEF9FFF7BEF9A080FFF702
:1031C800BBF90002A080FFF7B7F9A388184345F2BE
:1031D800617380B2984200F01381A08049F24132B5
:1031E800A388934240F00F81CF20FFF793F9002086
:1031F800FFF7F6F9C120FFF7F3F93020FFF7F0F9F0
:10320800ED20FFF787F96420FFF7EAF90320FFF7BD
:10321800E7F91220FFF7E4F98120FFF7E1F9E82048
:10322800FFF778F98520FFF7DBF91020FFF7D8F9C9
:103238007A20FFF7D5F9CB20FFF76CF93920FFF793
:10324800CFF92C20FFF7CCF90020FFF7C9F934207B
:10325800FFF7C6F90220FFF7C3F9F720FFF75AF97D
:103268002020FFF7BDF9EA20FFF754F90020FFF707
:10327800B7F9FFF7B5F9C020FFF74CF91B20FFF7A6
:10328800AFF9C120FFF746F90120FFF7A9F9C520DA
:10329800FFF740F93020FFF7A3F9FFF7A1F9C7209E
:1032A800FFF738F9B720FFF79BF93620FFF732F917
:1032B8004820FFF795F93A20FFF72CF95520FFF73A
:1032C8008FF9B120FFF726F90020FFF789F91A20B6
:1032D800FFF786F9B620FFF71DF90A20FFF780F9F6
:1032E800A220FFF77DF9F220FFF714F90020FFF77D
:1032F80077F92620FFF70EF90120FFF771F9E02092
:10330800FFF708F90F20FFF76BF92A20FFF768F994
:103318002820FFF765F90820FFF762F90E20FFF76C
:103328005FF90820FFF75CF95420FFF759F9A92045
:10333800FFF756F94320FFF753F90A20FFF750F932
:103348000F20FFF74DF90020FFF74AF9FFF748F97A
:10335800FFF746F9FFF744F9E120FFF7DBF8002013
:10336800FFF73EF91520FFF73BF91720FFF738F96B
:103378000720FFF735F91120FFF732F90620FFF78C
:103388002FF92B20FFF72CF95620FFF729F93C20BD
:10339800FFF726F90520FFF723F91020FFF720F99A
:1033A8000F20FFF71DF93F20FFF71AF9FFF718F96B
:1033B8000F20FFF715F92B20FFF7ACF80020FFF7D7
:1033C8000FF9FFF70DF90120FFF70AF93F20FFF782
:1033D80007F92A20FFF79EF80020FFF701F9FFF709
:1033E800FFF8FFF7FDF8EF20FFF7FAF81120FFF7D5
:1033F80091F8782006F064FE2920FFF78BF81EE08C
:1034080041F66313C8E646F60402934201F0EB80E6
:1034180000F2588744F23552934202F09D871FD834
:1034280041F66312934203F0428044F231529342D0
:1034380002F0DD8641F20552934202F00684002034
:10344800FFF72AFD0122054B4FF6FF70C3F8A821AC
:10345800FFF7C2FD07B0BDE8F08F00BF00002242B1
:1034680045F20842934202F04D8345F210529342CE
:1034780001F05B8145F210329342E0D1ED20FFF775
:1034880049F80120FFF7ACF8FE20FFF7A9F8EE2075
:10349800FFF740F8DE20FFF7A3F82120FFF7A0F898
:1034A800F120FFF737F80120FFF79AF8DF20FFF740
:1034B80031F81020FFF794F8C420FFF72BF88F207D
:1034C800FFF78EF8C620FFF725F80020FFF788F8E9
:1034D800E220FFF785F8FFF783F8FFF781F8BF20B0
:1034E800FFF718F8AA20FFF77BF8B020FFF712F8CB
:1034F8000D20FFF775F80020FFF772F80D20FFF791
:103508006FF80020FFF76CF81120FFF769F800202A
:10351800FFF766F81920FFF763F80020FFF760F857
:103528002120FFF75DF80020FFF75AF82D20FFF75C
:1035380057F80020FFF754F83D20FFF751F8002016
:10354800FFF74EF85D20FFF74BF80020FFF748F82B
:103558005D20FFF745F80020FFF742F8B120FEF79D
:10356800D9FF8020FFF73CF80020FFF739F88B20BF
:10357800FFF736F80020FFF733F89620FFF730F80A
:103588000020FFF72DF8B220FEF7C4FF0020FFF758
:1035980027F8FFF725F80220FFF722F80020FFF7A9
:1035A8001FF80320FFF71CF80020FFF719F8B320D5
:1035B800FEF7B0FF0020FFF713F8FFF711F8FFF749
:1035C8000FF8FFF70DF8FFF70BF8FFF709F8FFF70B
:1035D80007F8FFF705F8FFF703F8FFF701F8FEF71C
:1035E800FFFFFEF7FDFFFEF7FBFFFEF7F9FFFEF713
:1035F800F7FFFEF7F5FFFEF7F3FFFEF7F1FFFEF723
:10360800EFFFFEF7EDFFFEF7EBFFFEF7E9FFFEF732
:10361800E7FFFEF7E5FFB420FEF77CFF8B20FEF7FF
:10362800DFFF0020FEF7DCFF9620FEF7D9FF002021
:10363800FEF7D6FFA120FEF7D3FF0020FEF7D0FF4C
:10364800B520FEF767FF0220FEF7CAFF0020FEF74D
:10365800C7FF0320FEF7C4FF0020FEF7C1FF0420C8
:10366800FEF7BEFF0020FEF7BBFFB620FEF752FFB5
:103678000020FEF7B5FFFEF7B3FFB720FEF74AFFBD
:103688000020FEF7ADFFFEF7ABFF3F20FEF7A8FFD7
:103698000020FEF7A5FF5E20FEF7A2FF0020FEF740
:1036A8009FFF6420FEF79CFF0020FEF799FF8C2007
:1036B800FEF796FF0020FEF793FFAC20FEF790FF81
:1036C8000020FEF78DFFDC20FEF78AFF0020FEF7C2
:1036D80087FF7020FEF784FF0020FEF781FF90200F
:1036E800FEF77EFF0020FEF77BFFEB20FEF778FF5A
:1036F8000020FEF775FFDC20FEF772FF0020FEF7C2
:103708006FFFB820FEF706FF0020FEF769FFFEF7FF
:1037180067FFFEF765FFFEF763FFFEF761FFFEF741
:103728005FFFFEF75DFFFEF75BFFBA20FEF7F2FED4
:103738002420FEF755FF0020FEF752FFFEF750FF4A
:10374800FEF74EFFC120FEF7E5FE2020FEF748FFFA
:103758000020FEF745FF5420FEF742FF0020FEF749
:103768003FFFFF20FEF73CFF0020FEF739FFC22095
:10377800FEF7D0FE0A20FEF733FF0020FEF730FFE9
:103788000420FEF72DFF0020FEF72AFFC320FEF7D6
:10379800C1FE3C20FEF724FF0020FEF721FF3A205F
:1037A800FEF71EFF0020FEF71BFF3920FEF718FF6B
:1037B8000020FEF715FF3720FEF712FF0020FEF766
:1037C8000FFF3C20FEF70CFF0020FEF709FF362014
:1037D800FEF706FF0020FEF703FF3220FEF700FF8A
:1037E8000020FEF7FDFE2F20FEF7FAFE0020FEF770
:1037F800F7FE2C20FEF7F4FE0020FEF7F1FE29204C
:10380800FEF7EEFE0020FEF7EBFE2620FEF7E8FEB0
:103818000020FEF7E5FE2420FEF7E2FE0020FEF77A
:10382800DFFE2420FEF7DCFE0020FEF7D9FE232071
:10383800FEF7D6FE0020FEF7D3FE3C20FEF7D0FEB2
:103848000020FEF7CDFE3620FEF7CAFE0020FEF768
:10385800C7FE3220FEF7C4FE0020FEF7C1FE2F206F
:10386800FEF7BEFE0020FEF7BBFE2C20FEF7B8FEDA
:103878000020FEF7B5FE2920FEF7B2FE0020FEF775
:10388800AFFE2620FEF7ACFE0020FEF7A9FE24209E
:10389800FEF7A6FE0020FEF7A3FE2420FEF7A0FEFA
:1038A8000020FEF79DFE2320FEF79AFE0020FEF77B
:1038B80097FEC420FEF72EFE6220FEF791FE002040
:1038C800FEF78EFE0520FEF78BFE0020FEF788FE31
:1038D8008420FEF785FE0020FEF782FEF020FEF72A
:1038E8007FFE0020FEF77CFE1820FEF779FE002000
:1038F800FEF776FEA420FEF773FE0020FEF770FEAA
:103908001820FEF76DFE0020FEF76AFE5020FEF735
:1039180067FE0020FEF764FE0C20FEF761FE002023
:10392800FEF75EFE1720FEF75BFE0020FEF758FE4E
:103938009520FEF755FE0020FEF752FEF320FEF715
:103948004FFE0020FEF74CFEE620FEF749FE002061
:10395800FEF746FEC520FEF7DDFD3220FEF740FEED
:103968000020FEF73DFE4420FEF73AFE0020FEF759
:1039780037FE6520FEF734FE0020FEF731FE762084
:10398800FEF72EFE0020FEF72BFE8820FEF728FE0D
:103998000020FEF725FEC620FEF7BCFD2020FEF71E
:1039A8001FFE0020FEF71CFE1720FEF719FE002060
:1039B800FEF716FE0120FEF713FE0020FEF710FEAC
:1039C800C720FEF7A7FD0020FEF70AFEFEF708FE57
:1039D800FEF706FEFEF704FEC820FEF79BFD00205A
:1039E800FEF7FEFDFEF7FCFDFEF7FAFDFEF7F8FD1B
:1039F800C920FEF78FFD0020FEF7F2FDFEF7F0FD6F
:103A0800FEF7EEFDFEF7ECFDFEF7EAFDFEF7E8FD3A
:103A1800FEF7E6FDFEF7E4FDFEF7E2FDFEF7E0FD4A
:103A2800FEF7DEFDFEF7DCFDFEF7DAFDFEF7D8FD5A
:103A3800FEF7D6FDFEF7D4FDE020FEF76BFD16205D
:103A4800FEF7CEFD0020FEF7CBFD1C20FEF7C8FDDB
:103A58000020FEF7C5FD2120FEF7C2FD0020FEF77D
:103A6800BFFD3620FEF7BCFD0020FEF7B9FD46205D
:103A7800FEF7B6FD0020FEF7B3FD5220FEF7B0FDBD
:103A88000020FEF7ADFD6420FEF7AAFD0020FEF73A
:103A9800A7FD7A20FEF7A4FD0020FEF7A1FD8B20EC
:103AA800FEF79EFD0020FEF79BFD9920FEF798FD8E
:103AB8000020FEF795FDA820FEF792FD0020FEF7F6
:103AC8008FFDB920FEF78CFD0020FEF789FDC4208C
:103AD800FEF786FD0020FEF783FDCA20FEF780FD75
:103AE8000020FEF77DFDD220FEF77AFD0020FEF7CC
:103AF80077FDD920FEF774FD0020FEF771FDE02068
:103B0800FEF76EFD0020FEF76BFDF320FEF768FD63
:103B18000020FEF765FDE120FEF7FCFC1620FEF70D
:103B28005FFD0020FEF75CFD1C20FEF759FD00201C
:103B3800FEF756FD2220FEF753FD0020FEF750FD4C
:103B48003620FEF74DFD0020FEF74AFD4520FEF722
:103B580047FD0020FEF744FD5220FEF741FD0020FE
:103B6800FEF73EFD6420FEF73BFD0020FEF738FD22
:103B78007A20FEF735FD0020FEF732FD8B20FEF798
:103B88002FFD0020FEF72CFD9920FEF729FD0020CF
:103B9800FEF726FDA820FEF723FD0020FEF720FDF6
:103BA800B920FEF71DFD0020FEF71AFDC420FEF720
:103BB80017FD0020FEF714FDCA20FEF711FD0020B6
:103BC800FEF70EFDD220FEF70BFD0020FEF708FDE4
:103BD800D820FEF705FD0020FEF702FDE020FEF7E5
:103BE800FFFC0020FEF7FCFCF320FEF7F9FC0020A8
:103BF800FEF7F6FCE220FEF78DFC0520FEF7F0FC50
:103C08000020FEF7EDFC0B20FEF7EAFC0020FEF793
:103C1800E7FC1B20FEF7E4FC0020FEF7E1FC342063
:103C2800FEF7DEFC0020FEF7DBFC4420FEF7D8FCA4
:103C38000020FEF7D5FC4F20FEF7D2FC0020FEF74F
:103C4800CFFC6120FEF7CCFC0020FEF7C9FC7920F0
:103C5800FEF7C6FC0020FEF7C3FC8820FEF7C0FC78
:103C68000020FEF7BDFC9720FEF7BAFC0020FEF707
:103C7800B7FCA620FEF7B4FC0020FEF7B1FCB72085
:103C8800FEF7AEFC0020FEF7ABFCC220FEF7A8FC56
:103C98000020FEF7A5FCC720FEF7A2FC0020FEF7D7
:103CA8009FFCD120FEF79CFC0020FEF799FCD62053
:103CB800FEF796FC0020FEF793FCDD20FEF790FC53
:103CC8000020FEF78DFCF320FEF78AFC0020FEF7AB
:103CD80087FCE320FEF71EFC0520FEF781FC002090
:103CE800FEF77EFC0A20FEF77BFC0020FEF778FC3E
:103CF8001C20FEF775FC0020FEF772FC3320FEF74F
:103D08006FFC0020FEF76CFC4420FEF769FC0020E5
:103D1800FEF766FC5020FEF763FC0020FEF760FC0F
:103D28006220FEF75DFC0020FEF75AFC7820FEF7C3
:103D380057FC0020FEF754FC8820FEF751FC0020B9
:103D4800FEF74EFC9720FEF74BFC0020FEF748FCE0
:103D5800A620FEF745FC0020FEF742FCB720FEF740
:103D68003FFC0020FEF73CFCC220FEF739FC002097
:103D7800FEF736FCC720FEF733FC0020FEF730FCC8
:103D8800D120FEF72DFC0020FEF72AFCD520FEF7F7
:103D980027FC0020FEF724FCDD20FEF721FC002094
:103DA800FEF71EFCF320FEF71BFC0020FEF718FCB4
:103DB800E420FEF7AFFB0120FEF712FC0020FEF71F
:103DC8000FFC0120FEF70CFC0020FEF709FC022086
:103DD800FEF706FC0020FEF703FC2A20FEF700FC95
:103DE8000020FEF7FDFB3C20FEF7FAFB0020FEF763
:103DF800F7FB4B20FEF7F4FB0020FEF7F1FB5D20FC
:103E0800FEF7EEFB0020FEF7EBFB7420FEF7E8FB65
:103E18000020FEF7E5FB8420FEF7E2FB0020FEF71A
:103E2800DFFB9320FEF7DCFB0020FEF7D9FBA22086
:103E3800FEF7D6FB0020FEF7D3FBB320FEF7D0FB3E
:103E48000020FEF7CDFBBE20FEF7CAFB0020FEF7E0
:103E5800C7FBC420FEF7C4FB0020FEF7C1FBCD2042
:103E6800FEF7BEFB0020FEF7BBFBD320FEF7B8FB36
:103E78000020FEF7B5FBDD20FEF7B2FB0020FEF7C1
:103E8800AFFBF320FEF7ACFB0020FEF7A9FBE52013
:103E9800FEF740FB0020FEF7A3FBFEF7A1FBFEF7B1
:103EA8009FFBFEF79DFB0220FEF79AFB0020FEF722
:103EB80097FB2920FEF794FB0020FEF791FB3C209E
:103EC800FEF78EFB0020FEF78BFB4B20FEF788FBEE
:103ED8000020FEF785FB5D20FEF782FB0020FEF741
:103EE8007FFB7420FEF77CFB0020FEF779FB842023
:103EF800FEF776FB0020FEF773FB9320FEF770FBBE
:103F08000020FEF76DFBA220FEF76AFB0020FEF7FB
:103F180067FBB320FEF764FB0020FEF761FBBE20C1
:103F2800FEF75EFB0020FEF75BFBC420FEF758FBA4
:103F38000020FEF755FBCD20FEF752FB0020FEF7D0
:103F48004FFBD320FEF74CFB0020FEF749FBDC209B
:103F5800FEF746FB0020FEF743FBF320FEF740FB8D
:103F68000020FEF73DFBE620FEF7D4FA1120FEF70D
:103F780037FB0020FEF734FB3420FEF731FB00202E
:103F8800FEF72EFB5620FEF72BFB0020FEF728FB42
:103F98007620FEF725FB0020FEF722FB7720FEF7B0
:103FA8001FFB0020FEF71CFB6620FEF719FB002014
:103FB800FEF716FB8820FEF713FB0020FEF710FB28
:103FC8009920FEF70DFB0020FEF70AFBBB20FEF749
:103FD80007FB0020FEF704FB9920FEF701FB0020F9
:103FE800FEF7FEFA6620FEF7FBFA0020FEF7F8FA65
:103FF8005520FEF7F5FA0020FEF7F2FA5520FEF7F5
:10400800EFFA0020FEF7ECFA4520FEF7E9FA002067
:10401800FEF7E6FA4320FEF7E3FA0020FEF7E0FA9F
:104028004420FEF7DDFA0020FEF7DAFAE720FEF773
:1040380071FA3220FEF7D4FA0020FEF7D1FA5520A3
:10404800FEF7CEFA0020FEF7CBFA7620FEF7C8FA84
:104058000020FEF7C5FA6620FEF7C2FA0020FEF738
:10406800BFFA6720FEF7BCFA0020FEF7B9FA67200E
:10407800FEF7B6FA0020FEF7B3FA8720FEF7B0FA8B
:104088000020FEF7ADFA9920FEF7AAFA0020FEF705
:10409800A7FABB20FEF7A4FA0020FEF7A1FA9920A0
:1040A800FEF79EFA0020FEF79BFA7720FEF798FAB3
:1040B8000020FEF795FA4420FEF792FA0020FEF75A
:1040C8008FFA5620FEF78CFA0020FEF789FA232093
:1040D800FEF786FA0020FEF783FA3320FEF780FA0F
:1040E8000020FEF77DFA4520FEF77AFA0020FEF759
:1040F80077FAE820FEF70EFA0020FEF771FAFEF7CD
:104108006FFA9920FEF76CFA0020FEF769FA87200B
:10411800FEF766FA0020FEF763FA8820FEF760FAD9
:104128000020FEF75DFA7720FEF75AFA0020FEF726
:1041380057FA6620FEF754FA0020FEF751FA882055
:10414800FEF74EFA0020FEF74BFAAA20FEF748FACF
:104158000020FEF745FABB20FEF742FA0020FEF7E2
:104168003FFA9920FEF73CFA0020FEF739FA66205C
:10417800FEF736FA0020FEF733FA5520FEF730FA3C
:104188000020FEF72DFA5520FEF72AFA0020FEF748
:1041980027FA4420FEF724FA0020FEF721FA4420EB
:1041A800FEF71EFA0020FEF71BFA5520FEF718FA54
:1041B8000020FEF715FAE920FEF7ACF9AA20FEF771
:1041C8000FFA0020FEF70CFAFEF70AFAFEF708FAD3
:1041D800FEF7A0F9AA20FEF703FACF20FEF79AF916
:1041E8000020FEF7FDF9FEF7FBF9FEF7F9F9FEF7F7
:1041F800F7F9FEF7F5F9FEF7F3F9FEF7F1F9FEF72F
:10420800EFF9FEF7EDF9FEF7EBF9FEF7E9F9FEF73E
:10421800E7F9FEF7E5F9FEF7E3F9FEF7E1F9FEF74E
:10422800DFF9FEF7DDF9F020FEF774F90020FEF75C
:10423800D7F95020FEF7D4F90020FEF7D1F9FEF7A0
:10424800CFF9FEF7CDF9F320FEF764F90020FEF769
:10425800C7F9F920FEF75EF90620FEF7C1F910202C
:10426800FEF7BEF92920FEF7BBF90020FEF7B8F9E2
:104278003A20FEF74FF95520FEF7B2F91120FEF764
:1042880049F9642005F01CFF2920FEF743F9352081
:10429800FEF740F90020FEF7A3F95120FEF73AF99E
:1042A800FF20FEF79DF95320FEF734F92C20FEF786
:1042B80097F95520FEF72EF98220FEF791F92C2068
:1042C800FFF79BB849F22832934201F07E8200F250
:1042D800C98049F22032934201F0678349F22532BE
:1042E800934201F09E8148F6891293427FF4A7A871
:1042F80001210020FEF750F94AF6A4010320FEF739
:104308004BF900210C20FEF747F940F60C010D206F
:10431800FEF742F94FF42C510E20FEF73DF9B0217B
:104328001E20FEF739F942F63F310120FEF734F935
:104338004FF4C0610220FEF72FF900211020FEF78C
:104348002BF946F278011120FEF726F90021052005
:10435800FEF722F900210620FEF71EF94EF61C7121
:104368001620FEF719F903211720FEF715F940F278
:1043780033210720FEF710F900210B20FEF70CF976
:1043880000210F20FEF708F900214120FEF704F96B
:1043980000214220FEF700F900214820FEF7FCF832
:1043A80040F23F114920FEF7F7F800214A20FEF7B6
:1043B800F3F800214B20FEF7EFF84FF46F4144204B
:1043C800FEF7EAF800214520FEF7E6F840F23F1133
:1043D8004620FEF7E1F840F207713020FEF7DCF8DE
:1043E8004FF401713120FEF7D7F84FF401713220F4
:1043F800FEF7D2F840F202513320FEF7CDF840F232
:1044080007513420FEF7C8F84FF401713520FEF744
:10441800C3F84FF401713620FEF7BEF840F202519E
:104428003720FEF7B9F840F202313A20FEF7B4F827
:1044380040F202313B20FEF7AFF800212320FEF7BF
:10444800ABF800212420FEF7A7F84FF400412520FF
:10445800FEF7A2F800214F20FEF79EF800214E201B
:1044680001F04CBB4BF20552934201F0FF844CF231
:104478000552934201F0F38549F2313293427EF4BA
:10448800DEAF41F21401E720FEF786F84FF48071A1
:104498000120FEF781F84FF400710220FEF77CF846
:1044A80041F238010320FEF777F840F20221082094
:1044B800FEF772F800210920FEF76EF800210A20A5
:1044C800FEF76AF800210C20FEF766F800210D209F
:1044D800FEF762F800210F20FEF75EF80021102099
:1044E800FEF75AF807211120FEF756F8002112208E
:1044F800FEF752F800211320FEF74EF8C82005F009
:10450800DFFD41F290611020FEF746F840F22721C6
:104518001120FEF741F8322005F0D2FD0C211220BF
:10452800FEF73AF8322005F0CBFD4FF40061132076
:10453800FEF732F811212920FEF72EF80B212B2047
:10454800FEF72AF8322005F0BBFD00212020FEF7F7
:1045580023F840F23F112120FEF71EF800213020F9
:10456800FEF71AF84FF483713120FEF715F8002191
:104578003220FEF711F84FF401713520FEF70CF8E0
:1045880041F20A613620FEF707F840F2077137203A
:10459800FEF702F84FF483713820FDF7FDFF40F273
:1045A80007713920FDF7F8FF40F202413C20FDF782
:1045B800F3FF40F60F413D20FDF7EEFF00215020AC
:1045C800FDF7EAFFEF215120FDF7E6FF0021522019
:1045D800FDF7E2FF40F23F115320FDF7DDFF4FF4F6
:1045E8001C5101F0B3B91120FDF794FF142005F018
:1045F80067FDD020FDF78EFF0720FDF7F1FF422071
:10460800FDF7EEFF1D20FDF7EBFFD120FDF782FF40
:104618000020FDF7E5FF1A20FDF7E2FF0920FDF76E
:10462800DFFFD220FDF776FF0120FDF7D9FF22201A
:10463800FDF7D6FFC020FDF76DFF1020FDF7D0FF76
:104648003B20FDF7CDFF0020FDF7CAFF0220FDF754
:10465800C7FF1120FDF7C4FFC520FDF75BFF03204E
:10466800FDF7BEFFC820FDF755FF0020FDF7B8FF96
:104678002520FDF7B5FF2120FDF7B2FF0520FDF746
:10468800AFFF0020FDF7ACFF0A20FDF7A9FF65206A
:10469800FDF7A6FF2520FDF7A3FF7720FDF7A0FF74
:1046A8005020FDF79DFF0F20FDF79AFF0020FDF732
:1046B80097FFF820FDF72EFF0120FDF791FFFE2060
:1046C800FDF728FF0020FDF78BFF0220FDF788FF8C
:1046D8002020FDF71FFF3620FDF71CFF0820FDF7FF
:1046E8007FFF3A20FDF716FF5520FDF779FF2B20B5
:1046F800FDF710FF0020FDF773FFFDF771FF0120A4
:10470800FDF76EFF3F20FDF76BFF2A20FDF702FF44
:104718000020FDF765FFFDF763FF0120FDF760FF4F
:10472800DF20FDF75DFFFEF764BE55214FF47040B2
:10473800FDF732FFAA214FF20100FDF72DFF5221AC
:104748004FF20200FDF728FF08214FF20300FDF7A2
:1047580023FF01214FF20400FDF71EFF0D214FF446
:104768003040FDF719FF0D214BF20100FDF714FF52
:104778000D214BF20200FDF70FFF34214FF43640B4
:10478800FDF70AFF34214BF20160FDF705FF3421E4
:104798004BF20260FDF700FF0D214FF43140FDF7A9
:1047A800FBFE0D214BF20110FDF7F6FE0D214BF239
:1047B8000210FDF7F1FE34214FF43740FDF7ECFE0F
:1047C80034214BF20170FDF7E7FE34214BF2027001
:1047D800FDF7E2FE00214FF43240FDF7DDFE002137
:1047E8004BF20120FDF7D8FE00214BF20220FDF725
:1047F800D3FE24214FF43840FDF7CEFE24214BF69A
:104808000100FDF7C9FE24214BF60200FDF7C4FEA6
:1048180001214FF43F40FDF7BFFE0F214FF4334015
:10482800FDF7BAFE0F214BF20130FDF7B5FE0F215F
:104838004BF20230FDF7B0FE34214FF43940FDF75A
:10484800ABFE34214BF60110FDF7A6FE34214BF6E2
:104858000210FDF7A1FE08214FF43540FDF79CFE3C
:1048680008214BF20150FDF797FE08214BF2025048
:10487800FDF792FE03214FF44240FDF78DFE2421FF
:104888004FF43A40FDF788FE24214BF60120FDF74E
:1048980083FE24214BF60220FDF77EFE00214FF413
:1048A8003C40FDF779FE78214BF60140FDF774FE98
:1048B80000214BF60240FDF76FFE00214FF43D400A
:1048C800FDF76AFE78214BF60150FDF765FE0021E1
:1048D8004BF60250FDF760FE00214FF43E40FDF715
:1048E8005BFE64214BF60160FDF756FE00214FF494
:1048F8005140FDF751FE33214DF20110FDF74CFEFA
:1049080000214DF20210FDF747FE34214DF203104D
:10491800FDF742FE00214DF20410FDF73DFE3A215D
:104928004DF20510FDF738FE00214DF20610FDF797
:1049380033FE4A214DF20710FDF72EFE00214DF2FD
:104948000810FDF729FE5C214DF20910FDF724FE41
:1049580000214DF20A10FDF71FFE81214DF20B10C8
:10496800FDF71AFE00214DF20C10FDF715FEA621E9
:104978004DF20D10FDF710FE00214DF20E10FDF75F
:104988000BFEE5214DF20F10FDF706FE01214DF259
:104998001010FDF701FE13214DF21110FDF7FCFD7B
:1049A80001214DF21210FDF7F7FD54214DF21310BD
:1049B800FDF7F2FD01214DF21410FDF7EDFD822106
:1049C8004DF21510FDF7E8FD01214DF21610FDF727
:1049D800E3FDCA214DF21710FDF7DEFD02214DF26D
:1049E8001810FDF7D9FD00214DF21910FDF7D4FD7F
:1049F80002214DF21A10FDF7CFFD01214DF21B10D7
:104A0800FDF7CAFD02214DF21C10FDF7C5FD34214A
:104A18004DF21D10FDF7C0FD02214DF21E10FDF7ED
:104A2800BBFD67214DF21F10FDF7B6FD02214DF2C7
:104A38002010FDF7B1FD84214DF22110FDF7ACFDEA
:104A480002214DF22210FDF7A7FDA4214DF22310FB
:104A5800FDF7A2FD02214DF22410FDF79DFDB721BF
:104A68004DF22510FDF798FD02214DF22610FDF7B5
:104A780093FDCF214DF22710FDF78EFD02214DF257
:104A88002810FDF789FDDE214DF22910FDF784FD80
:104A980002214DF22A10FDF77FFDF2214DF22B1075
:104AA800FDF77AFD02214DF22C10FDF775FDFE2170
:104AB8004DF22D10FDF770FD03214DF22E10FDF77C
:104AC8006BFD10214DF22F10FDF766FD03214DF20D
:104AD8003010FDF761FD33214DF23110FDF75CFD1B
:104AE80003214DF23210FDF757FD6D214DF23310C1
:104AF800FDF752FD00214FF45240FDF74DFD3321E3
:104B08004DF20120FDF748FD00214DF20220FDF78E
:104B180043FD34214DF20320FDF73EFD00214DF207
:104B28000420FDF739FD3A214DF20520FDF734FD4B
:104B380000214DF20620FDF72FFD4A214DF20720F6
:104B4800FDF72AFD00214DF20820FDF725FD5C2127
:104B58004DF20920FDF720FD00214DF20A20FDF756
:104B68001BFD81214DF20B20FDF716FD00214DF2B2
:104B78000C20FDF711FDA6214DF20D20FDF70CFDCF
:104B880000214DF20E20FDF707FDE5214DF20F2023
:104B9800FDF702FD01214DF21020FDF7FDFC132168
:104BA8004DF21120FDF7F8FC01214DF21220FDF71E
:104BB800F3FC54214DF21320FDF7EEFC01214DF2D8
:104BC8001420FDF7E9FC82214DF21520FDF7E4FCE5
:104BD80001214DF21620FDF7DFFCCA214DF2172006
:104BE800FDF7DAFC02214DF21820FDF7D5FC002173
:104BF8004DF21920FDF7D0FC02214DF21A20FDF7E5
:104C0800CBFC01214DF21B20FDF7C6FC02214DF221
:104C18001C20FDF7C1FC34214DF21D20FDF7BCFC22
:104C280002214DF21E20FDF7B7FC67214DF21F202F
:104C3800FDF7B2FC02214DF22020FDF7ADFC8421E6
:104C48004DF22120FDF7A8FC02214DF22220FDF7AC
:104C5800A3FCA4214DF22320FDF79EFC02214DF276
:104C68002420FDF799FCB7214DF22520FDF794FC8F
:104C780002214DF22620FDF78FFCCF214DF227208F
:104C8800FDF78AFC02214DF22820FDF785FCDE2184
:104C98004DF22920FDF780FC02214DF22A20FDF774
:104CA8007BFCF2214DF22B20FDF776FC02214DF220
:104CB8002C20FDF771FCFE214DF22D20FDF76CFC38
:104CC80003214DF22E20FDF767FC10214DF22F2015
:104CD800FDF762FC03214DF23020FDF75DFC332126
:104CE8004DF23120FDF758FC03214DF23220FDF73B
:104CF80053FC6D214DF23320FDF74EFC00214FF49B
:104D08005340FDF749FC33214DF20130FDF744FCD7
:104D180000214DF20230FDF73FFC34214DF2033003
:104D2800FDF73AFC00214DF20430FDF735FC3A213D
:104D38004DF20530FDF730FC00214DF20630FDF74D
:104D48002BFC4A214DF20730FDF726FC00214DF2DD
:104D58000830FDF721FC5C214DF20930FDF71CFC01
:104D680000214DF20A30FDF717FC81214DF20B307E
:104D7800FDF712FC00214DF20C30FDF70DFCA621C9
:104D88004DF20D30FDF708FC00214DF20E30FDF715
:104D980003FCE5214DF20F30FDF7FEFB01214DF23A
:104DA8001030FDF7F9FB13214DF21130FDF7F4FB3C
:104DB80001214DF21230FDF7EFFB54214DF2133073
:104DC800FDF7EAFB01214DF21430FDF7E5FB8221E6
:104DD8004DF21530FDF7E0FB01214DF21630FDF7DD
:104DE800DBFBCA214DF21730FDF7D6FB02214DF24D
:104DF8001830FDF7D1FB00214DF21930FDF7CCFB3F
:104E080002214DF21A30FDF7C7FB01214DF21B308C
:104E1800FDF7C2FB02214DF21C30FDF7BDFB34212A
:104E28004DF21D30FDF7B8FB02214DF21E30FDF7A3
:104E3800B3FB67214DF21F30FDF7AEFB02214DF2A7
:104E48002030FDF7A9FB84214DF22130FDF7A4FBAA
:104E580002214DF22230FDF79FFBA4214DF22330B1
:104E6800FDF79AFB02214DF22430FDF795FBB7219F
:104E78004DF22530FDF790FB02214DF22630FDF76B
:104E88008BFBCF214DF22730FDF786FB02214DF237
:104E98002830FDF781FBDE214DF22930FDF77CFB40
:104EA80002214DF22A30FDF777FBF2214DF22B302B
:104EB800FDF772FB02214DF22C30FDF76DFBFE2150
:104EC8004DF22D30FDF768FB03214DF22E30FDF732
:104ED80063FB10214DF22F30FDF75EFB03214DF2ED
:104EE8003030FDF759FB33214DF23130FDF754FBDB
:104EF80003214DF23230FDF74FFB6D214DF2333077
:104F0800FDF74AFB00214FF45440FDF745FB3321E0
:104F18004DF20140FDF740FB00214DF20240FDF744
:104F28003BFB34214DF20340FDF736FB00214DF2E7
:104F38000440FDF731FB3A214DF20540FDF72CFB0B
:104F480000214DF20640FDF727FB4A214DF20740AC
:104F5800FDF722FB00214DF20840FDF71DFB5C2107
:104F68004DF20940FDF718FB00214DF20A40FDF70C
:104F780013FB81214DF20B40FDF70EFB00214DF292
:104F88000C40FDF709FBA6214DF20D40FDF704FB8F
:104F980000214DF20E40FDF7FFFAE5214DF20F40DA
:104FA800FDF7FAFA01214DF21040FDF7F5FA132149
:104FB8004DF21140FDF7F0FA01214DF21240FDF7D4
:104FC800EBFA54214DF21340FDF7E6FA01214DF2B8
:104FD8001440FDF7E1FA82214DF21540FDF7DCFAA5
:104FE80001214DF21640FDF7D7FACA214DF21740BC
:104FF800FDF7D2FA02214DF21840FDF7CDFA002153
:105008004DF21940FDF7C8FA02214DF21A40FDF79A
:10501800C3FA01214DF21B40FDF7BEFA02214DF201
:105028001C40FDF7B9FA34214DF21D40FDF7B4FAE2
:1050380002214DF21E40FDF7AFFA67214DF21F40E5
:10504800FDF7AAFA02214DF22040FDF7A5FA8421C6
:105058004DF22140FDF7A0FA02214DF22240FDF762
:105068009BFAA4214DF22340FDF796FA02214DF256
:105078002440FDF791FAB7214DF22540FDF78CFA4F
:1050880002214DF22640FDF787FACF214DF2274045
:10509800FDF782FA02214DF22840FDF77DFADE2164
:1050A8004DF22940FDF778FA02214DF22A40FDF72A
:1050B80073FAF2214DF22B40FDF76EFA02214DF200
:1050C8002C40FDF769FAFE214DF22D40FDF764FAF8
:1050D80003214DF22E40FDF75FFA10214DF22F40CB
:1050E800FDF75AFA03214DF23040FDF755FA332106
:1050F8004DF23140FDF750FA03214DF23240FDF7F1
:105108004BFA6D214DF23340FDF746FA00214FF47A
:105118005540FDF741FA33214DF20150FDF73CFAB5
:1051280000214DF20250FDF737FA34214DF20350B9
:10513800FDF732FA00214DF20450FDF72DFA3A211D
:105148004DF20550FDF728FA00214DF20650FDF703
:1051580023FA4A214DF20750FDF71EFA00214DF2BD
:105168000850FDF719FA5C214DF20950FDF714FAC1
:1051780000214DF20A50FDF70FFA81214DF20B5034
:10518800FDF70AFA00214DF20C50FDF705FAA621A9
:105198004DF20D50FDF700FA00214DF20E50FDF7CB
:1051A800FBF9E5214DF20F50FDF7F6F901214DF21B
:1051B8001050FDF7F1F913214DF21150FDF7ECF9FC
:1051C80001214DF21250FDF7E7F954214DF2135029
:1051D800FDF7E2F901214DF21450FDF7DDF98221C6
:1051E8004DF21550FDF7D8F901214DF21650FDF793
:1051F800D3F9CA214DF21750FDF7CEF902214DF22D
:105208001850FDF7C9F900214DF21950FDF7C4F9FE
:1052180002214DF21A50FDF7BFF901214DF21B5042
:10522800FDF7BAF902214DF21C50FDF7B5F934210A
:105238004DF21D50FDF7B0F902214DF21E50FDF759
:10524800ABF967214DF21F50FDF7A6F902214DF287
:105258002050FDF7A1F984214DF22150FDF79CF96A
:1052680002214DF22250FDF797F9A4214DF2235067
:10527800FDF792F902214DF22450FDF78DF9B7217F
:105288004DF22550FDF788F902214DF22650FDF721
:1052980083F9CF214DF22750FDF77EF902214DF217
:1052A8002850FDF779F9DE214DF22950FDF774F900
:1052B80002214DF22A50FDF76FF9F2214DF22B50E1
:1052C800FDF76AF902214DF22C50FDF765F9FE2130
:1052D8004DF22D50FDF760F903214DF22E50FDF7E8
:1052E8005BF910214DF22F50FDF756F903214DF2CD
:1052F8003050FDF751F933214DF23150FDF74CF99B
:1053080003214DF23250FDF747F96D214DF233502C
:10531800FDF742F900214FF45640FDF73DF93321DE
:105328004DF20160FDF738F900214DF20260FDF7FA
:1053380033F934214DF20360FDF72EF900214DF2C7
:105348000460FDF729F93A214DF20560FDF724F9CB
:1053580000214DF20660FDF71FF94A214DF2076062
:10536800FDF71AF900214DF20860FDF715F95C21E7
:105378004DF20960FDF710F900214DF20A60FDF7C2
:105388000BF981214DF20B60FDF706F900214DF272
:105398000C60FDF701F9A6214DF20D60FDF7FCF850
:1053A80000214DF20E60FDF7F7F8E5214DF20F6090
:1053B800FDF7F2F801214DF21060FDF7EDF8132129
:1053C8004DF21160FDF7E8F801214DF21260FDF78A
:1053D800E3F854214DF21360FDF7DEF801214DF298
:1053E8001460FDF7D9F882214DF21560FDF7D4F865
:1053F80001214DF21660FDF7CFF8CA214DF2176072
:10540800FDF7CAF802214DF21860FDF7C5F8002132
:105418004DF21960FDF7C0F802214DF21A60FDF750
:10542800BBF801214DF21B60FDF7B6F802214DF2E1
:105438001C60FDF7B1F834214DF21D60FDF7ACF8A2
:1054480002214DF21E60FDF7A7F867214DF21F609B
:10545800FDF7A2F802214DF22060FDF79DF88421A6
:105468004DF22160FDF798F802214DF22260FDF718
:1054780093F8A4214DF22360FDF78EF802214DF236
:105488002460FDF789F8B7214DF22560FDF784F80F
:1054980002214DF22660FDF77FF8CF214DF22760FB
:1054A800FDF77AF802214DF22860FDF775F8DE2144
:1054B8004DF22960FDF770F802214DF22A60FDF7E0
:1054C8006BF8F2214DF22B60FDF766F802214DF2E0
:1054D8002C60FDF761F8FE214DF22D60FDF75CF8B8
:1054E80003214DF22E60FDF757F810214DF22F6081
:1054F800FDF752F803214DF23060FDF74DF83321E6
:105508004DF23160FDF748F803214DF23260FDF7A6
:1055180043F86D214DF23360FDF73EF855214FF405
:105528007040FDF739F8AA214FF20100FDF734F871
:1055380052214FF20200FDF72FF808214FF2030025
:10554800FDF72AF800214FF20400FDF725F8CC21D9
:105558004FF43140FDF720F800214BF20110FDF720
:105568001BF805214FF43640FDF716F870214FF46B
:105578003740FDF711F870214BF20170FDF70CF878
:1055880001214FF43840FDF707F803214BF60100DD
:10559800FDF702F803214BF60200FCF7FDFF03219B
:1055A8004BF60300FCF7F8FF02214FF43C40FCF7F0
:1055B800F3FF00214BF60140FCF7EEFF00214BF60C
:1055C8000240FCF7E9FFD0214FF44940FCF7E4FF23
:1055D80002214CF60110FCF7DFFF50214CF60210B7
:1055E800FCF7DAFF50214CF60310FCF7D5FF5021E9
:1055F8004CF60410FCF7D0FF00214FF45450FCF790
:10560800CBFF55214FF46850FCF7C6FF4FF4885084
:10561800FCF780FF012004F053FD4FF42450FDF700
:10562800ECBE47F6F001E520FCF7B6FF4FF48071B9
:105638000120FCF7B1FF4FF4E0610220FCF7ACFF5A
:1056480041F230010320FCF7A7FF00210420FCF7FA
:10565800A3FF40F202210820FCF79EFF0021092049
:10566800FCF79AFF00210A20FCF796FF00210C2086
:10567800FCF792FF00210D20FCF78EFF00210F2080
:10568800FCF78AFF00211020FCF786FF0721112074
:10569800FCF782FF00211220FCF77EFF0021132077
:1056A800FCF77AFF00210720FCF776FF41F29061B2
:1056B8001020FCF771FF40F227211120FCF76CFF46
:1056C8009D211220FCF768FF4FF4C8511320FCF706
:1056D80063FF25212920FCF75FFF0D212B20FCF714
:1056E8005BFF07213020FCF757FF40F203313120E0
:1056F800FCF752FF03213220FCF74EFF40F206214F
:105708003520FCF749FF08213620FCF745FF40F219
:1057180006413720FCF740FF4FF441713820FCF771
:105728003BFF07213920FCF737FF40F202613C209C
:10573800FCF732FF08213D20FCF72EFF0021502006
:10574800FCF72AFFEF215120FCF726FF0021522009
:10575800FCF722FF40F23F115320FCF71DFF4FF4E6
:1057680027416020FCF718FF01216120FCF714FF96
:1057780000216A20FCF710FF00218020FCF70CFFB5
:1057880000218120FCF708FF00218220FCF704FF9C
:1057980000218320FCF700FF00218420FCF7FCFE99
:1057A80000218520FCF7F8FE10219020FCF7F4FE7C
:1057B8004FF4C0619220FCF7EFFE40F2331107204E
:1057C800FCF7EAFE2221002098E141F28F01EC204B
:1057D800FCF7E2FE41F23421EF20FCF7DDFE4FF446
:1057E80080710120FCF7D8FE4FF4E0610220FCF73D
:1057F800D3FE41F230010320FCF7CEFE0021042045
:10580800FCF7CAFE40F202210820FCF7C5FE002181
:105818000920FCF7C1FE00210A20FCF7BDFE01218A
:105828000C20FCF7B9FE00210D20FCF7B5FE002185
:105838000F20FCF7B1FE00211020FCF7ADFE072178
:105848001120FCF7A9FE00211220FCF7A5FE00217B
:105858001320FCF7A1FE01210720FCF79DFE322052
:1058680004F02EFC41F290411020FCF795FE40F226
:1058780027211120FCF790FE322004F021FC8A2118
:105888001220FCF789FE322004F01AFC4FF4D051A4
:105898001320FCF781FE06212920FCF77DFE0D214F
:1058A8002B20FCF779FE322004F00AFC002120208E
:1058B800FCF772FE00212120FCF76EFE322004F076
:1058C800FFFB00213020FCF767FE40F20461312025
:1058D800FCF762FE40F205313220FCF75DFE002144
:1058E8003520FCF759FE40F609413620FCF754FEF6
:1058F8004FF401713720FCF74FFE40F20131382098
:10590800FCF74AFE40F207713920FCF745FE0021FA
:105918003C20FCF741FE40F60A213D20FCF73CFE06
:10592800322004F0CDFB00215020FCF735FEEF219A
:105938005120FCF731FE00215220FCF72DFE40F2E9
:105948003F115320FCF728FE4FF427416020FCF755
:1059580023FE01216120FCF71FFE00216A20FCF7CD
:105968001BFE00218020FCF717FE00218120FCF798
:1059780013FE00218220FCF70FFE00218320FCF794
:105988000BFE00218420FCF707FE00218520FCF790
:1059980003FE10219020FCF7FFFD4FF4C061922018
:1059A800FCF7FAFD40F23311A7E000210846FCF7A6
:1059B800F3FD4FF480710120FCF7EEFD4FF4E06138
:1059C8000220FCF7E9FD41F230010320FCF7E4FD79
:1059D80000210420FCF7E0FD40F202210820FCF73A
:1059E800DBFD00210920FCF7D7FD00210A20FCF788
:1059F800D3FD01210C20FCF7CFFD00210D20FCF781
:105A0800CBFD00210F20FCF7C7FD322004F058FB26
:105A180040F201110720FCF7BFFD322004F050FBD3
:105A28004FF486511020FCF7B7FD07211120FCF731
:105A3800B3FD4FF488711220FCF7AEFD4FF43061CE
:105A48001320FCF7A9FD00212920FCF7A5FD44F24D
:105A580010012B20FCF7A0FD00215020FCF79CFD35
:105A6800EF215120FCF798FD00215220FCF794FD0E
:105A780040F23F115320FCF78FFD4FF41C5160207A
:105A8800FCF78AFD01216120FCF786FD00216A20D0
:105A9800FCF782FD00218020FCF77EFD002181209B
:105AA800FCF77AFD00218220FCF776FD0021832097
:105AB800FCF772FD00218420FCF76EFD0021852093
:105AC800FCF76AFD10219020FCF766FD002192206A
