:020000040800F2
:1000000000C0002089C60008B59B0008BB9B000803
:10001000C19B0008C79B0008CD9B000800000000A2
:10002000000000000000000000000000D39B00085A
:10003000DF9B000800000000EB9B0008F79B000816
:10004000D1C60008D1C60008D1C60008059C00082A
:10005000D1C60008D1C60008199C0008D1C6000806
:10006000D1C60008D1C60008D1C60008D1C6000814
:10007000D1C60008D1C60008D1C60008D1C6000804
:10008000D1C60008D1C60008D1C60008D1C60008F4
:10009000D1C60008D1C60008D1C60008279C0008B8
:1000A000D1C60008D1C60008D1C60008D1C60008D4
:1000B000D1C60008359C0008D1C60008D1C600088A
:1000C000D1C60008D1C60008D1C60008D1C60008B4
:1000D000D1C60008499C0008D1C60008D1C6000856
:1000E000699C0008D1C60008D1C60008D1C6000826
:1000F000D1C60008D1C60008D1C60008D1C6000884
:10010000D1C60008D1C60008D1C60008D1C6000873
:10011000D1C60008D1C60008D1C60008D1C6000863
:10012000D1C60008D1C60008D1C60008D1C6000853
:1001300000000000000000000000000000000000BF
:1001400000000000000000000000000000000000AF
:10015000000000000000000000000000000000009F
:10016000000000000000000000000000000000008F
:10017000000000000000000000000000000000007F
:10018000000000000000000000000000000000006F
:10019000000000000000000000000000000000005F
:1001A000000000000000000000000000000000004F
:1001B000000000000000000000000000000000003F
:1001C000000000000000000000000000000000002F
:1001D000000000000000000000000000000000001F
:0401E0005FF8E0F1F3
:1001E80010B5054C237833B9044B13B10448AFF369
:1001F80000800123237010BD400200200000000091
:10020800DC39010808B5034B1BB103490348AFF3B8
:10021800008008BD0000000044020020DC3901080D
:1002280010F8012B11F8013B012A28BF9A42F7D098
:10023800D01A7047034613F8012B002AFBD1181A6D
:100248000138704781F0004102E000BF83F00043AD
:1002580030B54FEA41044FEA430594EA050F08BF59
:1002680090EA020F1FBF54EA000C55EA020C7FEA1D
:10027800645C7FEA655C00F0E2804FEA5454D4EB9A
:100288005555B8BF6D420CDD2C4480EA020281EA64
:10029800030382EA000083EA010180EA020281EA9C
:1002A8000303362D88BF30BD11F0004F4FEA0131EE
:1002B8004FF4801C4CEA113102D0404261EB4101FD
:1002C80013F0004F4FEA03334CEA133302D0524283
:1002D80063EB430394EA050F00F0A780A4F101043F
:1002E800D5F1200E0DDB02FA0EFC22FA05F2801879
:1002F80041F1000103FA0EF2801843FA05F359415F
:100308000EE0A5F120050EF1200E012A03FA0EFCDD
:1003180028BF4CF0020C43FA05F3C01851EBE37107
:1003280001F0004507D54FF0000EDCF1000C7EEB24
:1003380000006EEB0101B1F5801F1BD3B1F5001F62
:100348000CD349085FEA30004FEA3C0C04F1010481
:100358004FEA445212F5800F80F09A80BCF1004FAA
:1003680008BF5FEA500C50F1000041EB045141EA2C
:10037800050130BD5FEA4C0C404141EB0101013CF5
:1003880028BFB1F5801FE9D291F0000F04BF0146E4
:100398000020B1FA81F308BF2033A3F10B03B3F1B6
:1003A80020020CDA0C3208DD02F1140CC2F10C0246
:1003B80001FA0CF021FA02F10CE002F11402D8BFA4
:1003C800C2F1200C01FA02F120FA0CFCDCBF41EA70
:1003D8000C019040E41AA2BF01EB0451294330BD3F
:1003E8006FEA04041F3C1CDA0C340EDC04F114041C
:1003F800C4F1200220FA04F001FA02F340EA0300F3
:1004080021FA04F345EA030130BDC4F10C04C4F138
:10041800200220FA02F001FA04F340EA0300294618
:1004280030BD21FA04F0294630BD94F0000F83F462
:10043800801306BF81F480110134013D4EE77FEA45
:10044800645C18BF7FEA655C29D094EA050F08BF91
:1004580090EA020F05D054EA000C04BF1946104672
:1004680030BD91EA030F1EBF0021002030BD5FEAB6
:10047800545C05D14000494128BF41F0004130BDDE
:1004880014F580043CBF01F5801130BD01F0004532
:1004980045F0FE4141F470014FF0000030BD7FEAA5
:1004A800645C1ABF194610467FEA655C1CBF0B46A0
:1004B800024650EA013406BF52EA033591EA030FB7
:1004C80041F4002130BD00BF90F0000F04BF0021AF
:1004D800704730B54FF4806404F132044FF00005E2
:1004E8004FF0000150E700BF90F0000F04BF00215B
:1004F800704730B54FF4806404F1320410F00045C1
:1005080048BF40424FF000013EE700BF42004FEABB
:10051800E2014FEA31014FEA02701FBF12F07F4338
:1005280093F07F4F81F06051704732F07F4208BFEF
:10053800704793F07F4F04BF41F40021704730B5F6
:100548004FF4607401F0004521F000411CE700BF42
:1005580050EA010208BF704730B54FF000050AE0C5
:1005680050EA010208BF704730B511F0004502D5C6
:10057800404261EB41014FF4806404F132045FEAC8
:10058800915C3FF4D8AE4FF003025FEADC0C18BF71
:1005980003325FEADC0C18BF033202EBDC02C2F163
:1005A800200300FA03FC20FA02F001FA03FE40EAF5
:1005B8000E0021FA02F11444BDE600BF70B54FF0F9
:1005C800FF0C4CF4E06C1CEA11541DBF1CEA1355D7
:1005D80094EA0C0F95EA0C0F00F0DEF82C4481EA3F
:1005E800030621EA4C5123EA4C5350EA013518BF5F
:1005F80052EA033541F4801143F4801338D0A0FB4C
:1006080002CE4FF00005E1FB02E506F00042E0FBF8
:1006180003E54FF00006E1FB03569CF0000F18BFFE
:100628004EF0010EA4F1FF04B6F5007F64F54074A6
:1006380004D25FEA4E0E6D4146EB060642EAC62139
:1006480041EA55514FEAC52040EA5E504FEACE2EA6
:10065800B4F1FD0C88BFBCF5E06F1ED8BEF1004FA9
:1006680008BF5FEA500E50F1000041EB045170BD25
:1006780006F0004646EA010140EA020081EA030169
:10068800B4EB5C04C2BFD4EB0C0541EA045170BD65
:1006980041F480114FF0000E013C00F3AB8014F1DF
:1006A800360FDEBF002001F0004170BDC4F1000428
:1006B800203C35DA0C341BDC04F11404C4F12005A9
:1006C80000FA05F320FA04F001FA05F240EA020004
:1006D80001F0004221F0004110EBD37021FA04F63A
:1006E80042EB06015EEA430E08BF20EAD37070BDF4
:1006F800C4F10C04C4F1200500FA04F320FA05F053
:1007080001FA04F240EA020001F0004110EBD37054
:1007180041F100015EEA430E08BF20EAD37070BDC4
:10072800C4F1200500FA05F24EEA020E20FA04F39D
:1007380001FA05F243EA020321FA04F001F000414C
:1007480021FA04F220EA020000EBD3705EEA430EBD
:1007580008BF20EAD37070BD94F0000F0FD101F0EC
:100768000046400041EB010111F4801F08BF013C25
:10077800F7D041EA060195F0000F18BF704703F063
:100788000046520043EB030313F4801F08BF013DEA
:10079800F7D043EA0603704794EA0C0F0CEA1355A6
:1007A80018BF95EA0C0F0CD050EA410618BF52EA60
:1007B8004306D1D181EA030101F000414FF0000066
:1007C80070BD50EA410606BF1046194652EA430674
:1007D80019D094EA0C0F02D150EA013613D195EAE8
:1007E8000C0F05D152EA03361CBF104619460AD130
:1007F80081EA030101F0004141F0FE4141F470013A
:100808004FF0000070BD41F0FE4141F4780170BD29
:1008180070B54FF0FF0C4CF4E06C1CEA11541DBF8E
:100828001CEA135594EA0C0F95EA0C0F00F0A7F890
:10083800A4EB050481EA030E52EA03354FEA0131BD
:1008480000F088804FEA03334FF0805545EA1313D0
:1008580043EA12634FEA022245EA111545EA106598
:100868004FEA00260EF000419D4208BF964244F12F
:10087800FD0404F5407402D25B084FEA3202B61A4E
:1008880065EB03055B084FEA32024FF480104FF422
:10089800002CB6EB020E75EB030E22BFB61A754696
:1008A80040EA0C005B084FEA3202B6EB020E75EB29
:1008B800030E22BFB61A754640EA5C005B084FEA91
:1008C8003202B6EB020E75EB030E22BFB61A75465E
:1008D80040EA9C005B084FEA3202B6EB020E75EB69
:1008E800030E22BFB61A754640EADC0055EA060E2A
:1008F80018D04FEA051545EA16754FEA06164FEA6D
:10090800C30343EA52734FEAC2025FEA1C1CC0D118
:1009180011F4801F0BD141EA00014FF000004FF0A5
:10092800004CB6E711F4801F04BF01430020B4F166
:10093800FD0C88BFBCF5E06F3FF6AFAEB5EB030C1E
:1009480004BFB6EB020C5FEA500C50F1000041EB1B
:10095800045170BD0EF0004E4EEA113114EB5C04E8
:10096800C2BFD4EB0C0541EA045170BD41F48011BB
:100978004FF0000E013C90E645EA060E8DE60CEAC3
:10098800135594EA0C0F08BF95EA0C0F3FF43BAFE0
:1009980094EA0C0F0AD150EA01347FF434AF95EA97
:1009A8000C0F7FF425AF104619462CE795EA0C0F7B
:1009B80006D152EA03353FF4FDAE1046194622E748
:1009C80050EA410618BF52EA43067FF4C5AE50EA22
:1009D80041047FF40DAF52EA43057FF4EBAE12E712
:1009E8004FF0FF3C06E000BF4FF0010C02E000BFF3
:1009F8004FF0010C4DF804CD4FEA410C7FEA6C5CD6
:100A08004FEA430C18BF7FEA6C5C1BD001B050EA78
:100A1800410C0CBF52EA430C91EA030F02BF90EA63
:100A2800020F0020704710F1000F91EA030F58BF22
:100A3800994208BF90422CBFD8176FEAE37040F084
:100A4800010070474FEA410C7FEA6C5C02D150EA22
:100A5800013C07D14FEA430C7FEA6C5CD6D152EADD
:100A6800033CD3D05DF8040B704700BF84461046A2
:100A780062468C461946634600E000BF01B5FFF7A1
:100A8800B7FF002848BF10F1000F01BD4DF808ED71
:100A9800FFF7F4FF0CBF012000205DF808FB00BF42
:100AA8004DF808EDFFF7EAFF34BF012000205DF89C
:100AB80008FB00BF4DF808EDFFF7E0FF94BF0120E9
:100AC80000205DF808FB00BF4DF808EDFFF7CEFFEA
:100AD80094BF012000205DF808FB00BF4DF808ED29
:100AE800FFF7C4FF34BF012000205DF808FB00BFFA
:100AF8004FEA410C7FEA6C5C02D150EA013C0AD112
:100B08004FEA430C7FEA6C5C02D152EA033C02D103
:100B18004FF0000070474FF0010070474A0011D2B3
:100B280012F5001211D20DD56FF47873B3EB62523F
:100B38000ED44FEAC12343F0004343EA505323FA4B
:100B480002F070474FF00000704750EA013002D1C0
:100B58004FF0FF3070474FF0000070474FEA4102F6
:100B6800B2F1E04324BFB3F5001CDCF1FE5C0DD903
:100B780001F0004C4FEAC0024CEA5070B2F1004F4D
:100B880040EB830008BF20F00100704711F0804F50
:100B980021D113F13872BCBF01F00040704741F415
:100BA80080114FEA5252C2F11802C2F1200C10FA19
:100BB8000CF320FA02F018BF40F001004FEAC123FD
:100BC8004FEAD32303FA0CFC40EA0C0023FA02F3A1
:100BD8004FEA4303CCE77FEA625307D150EA013377
:100BE8001EBF4FF0FE4040F44000704701F0004047
:100BF80040F0FE4040F40000704700BF80F0004025
:100C080002E000BF81F0004142001FBF5FEA4103DC
:100C180092EA030F7FEA226C7FEA236C6AD04FEADC
:100C28001262D2EB1363C1BFD21841404840414021
:100C3800B8BF5B42192B88BF704710F0004F40F4D3
:100C4800000020F07F4018BF404211F0004F41F4EF
:100C5800000121F07F4118BF494292EA030F3FD0BB
:100C6800A2F1010241FA03FC10EB0C00C3F12003CE
:100C780001FA03F100F0004302D5494260EB40005D
:100C8800B0F5000F13D3B0F1807F06D340084FEAC8
:100C9800310102F10102FE2A51D2B1F1004F40EBBD
:100CA800C25008BF20F0010040EA03007047490025
:100CB80040EB0000013A28BFB0F5000FEDD2B0FAC2
:100CC80080FCACF1080CB2EB0C0200FA0CF0AABFE5
:100CD80000EBC25052421843BCBFD0401843704783
:100CE80092F0000F81F4000106BF80F40000013289
:100CF800013BB5E74FEA41037FEA226C18BF7FEA60
:100D0800236C21D092EA030F04D092F0000F08BFA1
:100D18000846704790EA010F1CBF0020704712F088
:100D28007F4F04D1400028BF40F00040704712F1C7
:100D380000723CBF00F50000704700F0004343F02C
:100D4800FE4040F4000070477FEA226216BF084662
:100D58007FEA23630146420206BF5FEA412390EA25
:100D6800010F40F4800070474FF0000304E000BF1B
:100D780010F0004348BF40425FEA000C08BF7047CC
:100D880043F0964301464FF000001CE050EA010290
:100D980008BF70474FF000030AE000BF50EA0102A5
:100DA80008BF704711F0004302D5404261EB410192
:100DB8005FEA010C02BF84460146002043F0B643B7
:100DC80008BFA3F18053A3F50003BCFA8CF2083ADC
:100DD800A3EBC25310DB01FA02FC634400FA02FCE5
:100DE800C2F12002BCF1004F20FA02F243EB0200EC
:100DF80008BF20F00100704702F1200201FA02FC4E
:100E0800C2F1200250EA4C0021FA02F243EB020040
:100E180008BF20EADC7070474FF0FF0C1CEAD05284
:100E28001EBF1CEAD15392EA0C0F93EA0C0F6FD045
:100E38001A4480EA010C400218BF5FEA41211ED023
:100E48004FF0006343EA501043EA5111A0FB01310F
:100E58000CF00040B1F5000F3EBF490041EAD371E4
:100E68005B0040EA010062F17F02FD2A1DD8B3F160
:100E7800004F40EBC25008BF20F00100704790F0CF
:100E8800000F0CF0004C08BF49024CEA502040EA21
:100E980051207F3AC2BFD2F1FF0340EAC2507047E7
:100EA80040F400004FF00003013A5DDC12F1190F25
:100EB800DCBF00F000407047C2F10002410021FA97
:100EC80002F1C2F1200200FA02FC5FEA310040F1AF
:100ED800000053EA4C0308BF20EADC70704792F028
:100EE800000F00F0004C02BF400010F4000F013A60
:100EF800F9D040EA0C0093F0000F01F0004C02BF5B
:100F0800490011F4000F013BF9D041EA0C018FE7C9
:100F18000CEAD15392EA0C0F18BF93EA0C0F0AD0CF
:100F280030F0004C18BF31F0004CD8D180EA0100F5
:100F380000F00040704790F0000F17BF90F0004F8E
:100F4800084691F0000F91F0004F14D092EA0C0F70
:100F580001D142020FD193EA0C0F03D14B0218BF03
:100F6800084608D180EA010000F0004040F0FE4049
:100F780040F40000704740F0FE4040F440007047E5
:100F88004FF0FF0C1CEAD0521EBF1CEAD15392EA64
:100F98000C0F93EA0C0F69D0A2EB030280EA010C54
:100FA80049024FEA402037D04FF0805343EA1111ED
:100FB80043EA10130CF000408B4238BF5B0042F14B
:100FC8007D024FF4000C8B4224BF5B1A40EA0C00F0
:100FD800B3EB510F24BFA3EB510340EA5C00B3EB22
:100FE800910F24BFA3EB910340EA9C00B3EBD10F10
:100FF80024BFA3EBD10340EADC001B0118BF5FEA62
:101008001C1CE0D1FD2A3FF650AF8B4240EBC2508A
:1010180008BF20F0010070470CF0004C4CEA50204B
:101028007F32C2BFD2F1FF0340EAC250704740F49A
:1010380000004FF00003013A37E792F0000F00F08C
:10104800004C02BF400010F4000F013AF9D040EA0A
:101058000C0093F0000F01F0004C02BF490011F49E
:10106800000F013BF9D041EA0C0195E70CEAD15396
:1010780092EA0C0F08D142027FF47DAF93EA0C0F7D
:101088007FF470AF084676E793EA0C0F04D14B0261
:101098003FF44CAF08466EE730F0004C18BF31F013
:1010A800004CCAD130F000427FF45CAF31F000430D
:1010B8007FF43CAF5FE700BF4FF0FF3C06E000BFA6
:1010C8004FF0010C02E000BF4FF0010C4DF804CDC9
:1010D8004FEA40024FEA41037FEA226C18BF7FEAD9
:1010E800236C11D001B052EA530C18BF90EA010FDB
:1010F80058BFB2EB030088BFC81738BF6FEAE1706A
:1011080018BF40F0010070477FEA226C02D15FEA05
:10111800402C05D17FEA236CE4D15FEA412CE1D071
:101128005DF8040B704700BF844608466146FFE738
:101138000FB5FFF7C9FF002848BF10F1000F0FBD1A
:101148004DF808EDFFF7F4FF0CBF012000205DF813
:1011580008FB00BF4DF808EDFFF7EAFF34BF012098
:1011680000205DF808FB00BF4DF808EDFFF7E0FF31
:1011780094BF012000205DF808FB00BF4DF808ED82
:10118800FFF7D2FF94BF012000205DF808FB00BFE5
:101198004DF808EDFFF7C8FF34BF012000205DF8C7
:1011A80008FB00BF4FEA4002B2F1FE4F0FD34FF0E9
:1011B8009E03B3EB12620DD94FEA002343F00043BC
:1011C80010F0004F23FA02F018BF404270474FF06A
:1011D8000000704712F1610F01D1420205D110F0F1
:1011E800004008BF6FF0004070474FF000007047A4
:1011F80042000ED2B2F1FE4F0BD34FF09E03B3EB79
:10120800126209D44FEA002343F0004323FA02F0A4
:1012180070474FF00000704712F1610F01D1420290
:1012280002D14FF0FF3070474FF00000704700BF09
:101238007BB972B90029BEBF00204FF0004106E01B
:1012480008BF00281CBF6FF000414FF0FF3000F0CE
:10125800DDB9ADF1080C6DE904CE002909DB002BDE
:101268001ADB00F06DF8DDF804E0DDE9022304B0D4
:101278007047404261EB4101002B1BDB00F060F836
:10128800DDF804E0DDE9022304B0404261EB4101EE
:10129800524263EB43037047524263EB430300F04F
:1012A8004FF8DDF804E0DDE9022304B0404261EBC9
:1012B80041017047524263EB430300F041F8DDF807
:1012C80004E0DDE9022304B0524263EB43037047B4
:1012D80038B505460C460022002328462146FFF76C
:1012E800DFFB28B928462146BDE8384000F00AB897
:1012F800284604F1004100F005F8404261EB410145
:1013080038BD00BFD0B500220B4B06460F46FFF78D
:1013180055F9FFF703FC0446FFF7D6F80022074B00
:10132800FFF74CF902460B4630463946FEF78EFF6A
:10133800FFF7F4FB2146D0BD0000F03D0000F0416E
:101348002DE9F047089E0D4604468E46002B4CD1E9
:101358008A42944667D9B2FA82F353B102FA03FC7F
:10136800C3F1200201FA03FE20FA02F242EA0E0E4D
:101378009C404FEA1C47BEFBF7F11FFA8CF507FBB0
:1013880011EE01FB05F0220C42EA0E4290420AD906
:101398001CEB020201F1FF3E80F01981904240F2FD
:1013A800168102396244121AB2FBF7F007FB1022C9
:1013B80000FB05F5A4B244EA0244A5420AD91CEB95
:1013C800040400F1FF3280F00481A54240F201815B
:1013D8006444023840EA01400021641B1EB1DC402D
:1013E8000023C6E90043BDE8F0878B4208D9002EE8
:1013F80000F0EA800021C6E900050846BDE8F0874C
:10140800B3FA83F1002948D1AB4202D3824200F2F9
:10141800F880841A65EB030201209646002EE2D07C
:10142800C6E9004EDFE702B9FFDEB2FA82F3002B0D
:1014380040F08E80881A0121170C1FFA82FEB0FB3B
:10144800F7F507FB1500220C42EA00420EFB05F0F7
:10145800904208D91CEB020205F1FF3802D29042F3
:1014680000F2CC804546121AB2FBF7F007FB1022B7
:101478000EFB00FEA4B244EA0244A64508D91CEBC0
:10148800040400F1FF3202D2A64500F2B4801046EF
:10149800A4EB0E0440EA0540A0E7C1F120078B4009
:1014A80022FA07FC4CEA030C25FA07FA4FEA1C4912
:1014B800BAFBF9F88D4020FA07F309FB18AA1FFABE
:1014C8008CFE2B4300FA01F508FB0EF01C0C44EAD5
:1014D8000A44A04202FA01F20BD91CEB040408F1F9
:1014E800FF3A80F08680A04240F28380A8F102088B
:1014F8006444241A98B2B4FBF9F309FB134403FBC0
:101508000EFE40EA0444A64508D91CEB040403F186
:10151800FF306AD2A64568D9023B644443EA0840D2
:10152800A0FB0293A4EB0E049C42C8469E4654D3EB
:1015380051D0002E67D0B5EB080364EB0E04CB4006
:1015480004FA07F71F43CC40C6E9007400214AE7B4
:1015580002FA03FCC3F12000C1409D4024FA00F0C8
:101568004FEA1C472843B1FBF7F507FB15111FFA93
:101578008CFE020C42EA014205FB0EF1914204FA8C
:1015880003F408D91CEB020205F1FF382FD291426F
:101598002DD9023D6244521AB2FBF7F107FB112222
:1015A80080B240EA024001FB0EF2824208D91CEBED
:1015B800000001F1FF3816D2824214D90239604482
:1015C800801A41EA05413AE7314630460BE7714651
:1015D800E9E61046FEE64D45ABD2B9EB020863EBEF
:1015E8000C0E0138A5E74146EAE7034696E745466B
:1015F800D1E7D0467DE76444023849E7023D6244BA
:1016080031E708460AE73146EDE600BF704700BFFC
:1016180080B500AF07F0D0FA00BF80BD80B584B0B8
:1016280000AF0346FB800023FB7307F0F5FAFB8845
:101638001B0A9BB2DBB25B00DBB2603BDBB2184635
:1016480007F0C6FB07F038FBFB88DBB2184607F04B
:10165800BFFB07F031FB07F0DFFAA12007F0B8FB6A
:1016680007F02AFB002007F0F3FB0346FB7307F0A3
:10167800FBFAFB7B18461037BD4680BD80B582B0AB
:1016880000AF03460A46FB8013467B7107F0C4FA95
:10169800FB881B0A9BB2DBB25B00DBB2603BDBB2B0
:1016A800184607F095FB07F007FBFB88DBB21846E6
:1016B80007F08EFB07F000FB7B79184607F088FBE4
:1016C80007F0FAFA07F0D0FA0A2000F059FE00BF36
:1016D8000837BD4680BD90B583B000AF034639607A
:1016E800FB801346BB800DE0FB885A1CFA803C68DF
:1016F800621C3A601846FFF791FF03462370BB88C7
:10170800013BBB80BB88002BEED100BF00BF0C376C
:10171800BD4690BD80B582B000AF03463960FB80FE
:101728001346BB800CE03B681A78FB8811461846C4
:10173800FFF7A4FFFB880133FB803B6801333B6064
:10174800BB885A1EBA80002BEDD100BF00BF0837F6
:10175800BD4680BD80B586B000AFC7E90001142042
:101768000EF0DEF80346FB6000237B611DE0D7E93D
:1017780000014FF00A024FF00003FFF759FDD2B203
:101788007B69591C79611946FB680B443032D2B227
:101798001A70D7E900014FF00A024FF00003FFF773
:1017A80047FD02460B46C7E90023D7E90023012A73
:1017B80073F10003DBDA00233B611AE03B69FA6846
:1017C80013441B78FB727A693B69D31A013BFA68A8
:1017D8001A443B69F9680B4412781A707A693B69B4
:1017E800D31A013BFA681344FA7A1A703B69013339
:1017F8003B617B69DA0F13445B101A463B699342DD
:10180800DCDB7B69FA68134400221A70FB6818460F
:101818001837BD4680BDB0B5AAB000AF7860396052
:101828000023BB6207F12C036022002118460FF049
:1018380007FA3868FEF7FEFC0346C7F89430002321
:10184800C7F8A4300023C7F8A030ACE0D7F8A03020
:101858003A6813441B782B2B0DD0D7F8A0303A6880
:1018680013441B782D2B06D0D7F8A0303A681344C0
:101878001B782A2B0ED1D7F8A0303A681A44D7F82B
:10188800A430591CC7F8A4101278A8333B4403F8B5
:10189800802C83E0D7F8A0303A6813441B78302BAB
:1018A80006D0D7F8A0303A6813441B78312B75D18D
:1018B8000023C7F89C3011E0D7F8A0305A1CC7F8AD
:1018C800A0201A463B681A44D7F89C30591CC7F820
:1018D8009C101278A8333B4403F8942CD7F8A03016
:1018E8003A6813441B78302BE6D0D7F8A0303A6812
:1018F80013441B78312BDFD007F11402D7F89C3042
:10190800134400221A7007F1100107F11403022290
:1019180018460EF063FFC7F890003B691B78002B50
:1019280007D07B6804221A607B684FF000025A6077
:101938004EE0D7F89030DA171C461546204629465F
:10194800FFF708FFC7F88C000023C7F8983013E0AA
:10195800D7F89830D7F88C201A44D7F8A430591CF7
:10196800C7F8A4101278A8333B4403F8802CD7F8A2
:1019780098300133C7F89830D7F88C00FEF75AFC36
:101988000246D7F898309A42E2D8D7F8A030013BFF
:10199800C7F8A030D7F88C000DF0CAFFD7F8A030F0
:1019A8000133C7F8A030D7F8A020D7F894309A426E
:1019B800FFF64CAF07F12802D7F8A43013440022F1
:1019C8001A707B6807F128021146184600F086F85D
:1019D8007868A837BD46B0BDB0B586B000AF7860AE
:1019E8007B68D3F890317A68D35C282B01D1002327
:1019F8006DE0786808F092F83861786808F08EF839
:101A0800F860786808F056F80346FB724FF0000358
:101A18007B61FB7A2F2B13DC2A2B53DB2A3B052B0C
:101A280050D801A252F823F07B1A0008B11A000816
:101A3800CD1A0008BF1A0008CD1A0008891A000834
:101A48005E2B3FD1F868FEF761FD04460D46386904
:101A5800FEF75CFD02460B462046294611F08CF83D
:101A680002460B4610461946FFF778F803467B6195
:101A780028E0F9683869FFF7CFF903467B6121E070
:101A88004FF000013869FFF75BFB0346002B04D0D9
:101A980011480EF0D5FF012319E03969F868FFF7FE
:101AA8006FFA03467B610DE0F9683869FFF7ACF817
:101AB80003467B6106E03969F868FFF7A3F8034637
:101AC8007B6100BF7969786808F006F8002318463A
:101AD8001837BD46B0BD00BFF8390108B0B59AB097
:101AE80000AF78603960F86C07F0AAFFF864282125
:101AF800F86C07F0BDFF00237B664EE23868FEF7FE
:101B080099FB02467B6E9A4206D97B6E3A6813446B
:101B18001B7887F8633002E0292387F8633097F849
:101B280063302F2B40F23A8197F86330392B00F25B
:101B380035817B6EFB654FF00003BB654FF00003FA
:101B48007B6558E0FB6D3A6813441B782E2B36D121
:101B58008F4B3B65FB6D0133FB651CE0FB6D3A6801
:101B680013441B78303B1846FFF702F90346396DDA
:101B78001846FFF751F903461946B86DFFF744F8C0
:101B88000346BB658349386DFFF7FAF903463B65A1
:101B9800FB6D0133FB65FB6D3A6813441B782F2BF3
:101BA80029D9FB6D3A6813441B78392B23D8386838
:101BB800FEF740FB0246FB6D9A42CFD81BE0754901
:101BC800B86DFFF729F903461C46FB6D3A681344C4
:101BD8001B781846FFF7CCF8034619462046FFF74E
:101BE80013F803466C491846FFF70CF80346BB6523
:101BF800FB6D0133FB65FB6D3A6813441B782F2B93
:101C080005D9FB6D3A6813441B78392B05D9FB6D50
:101C18003A6813441B782E2B06D13868FEF70AFB66
:101C28000246FB6D9A428DD8FB6D3A6813441B78C7
:101C38005E2B64D13868FEF7FDFA0246FB6D9A42C6
:101C48005DD9FB6CD3F89031FA6CD35C5E2B56D01F
:101C5800FB6D01333A6813441B78282B4FD0FB6D7A
:101C680001333A6813441B78292B48D0FB6D0133A4
:101C7800FB651BE04749786DFFF7CEF803461C4625
:101C8800FB6D3A6813441B781846FFF771F8034652
:101C980019462046FEF7B8FF03463F491846FEF7A7
:101CA800B1FF03467B65FB6D0133FB65FB6D3A684D
:101CB80013441B782F2B0CD9FB6D3A6813441B78FF
:101CC800392B06D83868FEF7B5FA0246FB6D9A42FA
:101CD800D0D8B86DFEF71AFC04460D46786DFEF7AD
:101CE80015FC02460B462046294610F045FF0246E1
:101CF8000B4610461946FEF731FF0346BB65FB6DE0
:101D0800013B7B66B96DF86C07F0E6FEFB6CD3F817
:101D18009031FA6CD35C2A2B06D0FB6CD3F8903147
:101D2800FA6CD35C2F2B18D17B6E01333A681344BD
:101D38001B785E2B11D0F86CFFF74EFEB864BB6CB5
:101D4800002B0AD0F86C0DF0F3FD7B68BA6C1A60B2
:101D58007B684FF000025A6030E1FB6CD3F8903199
:101D6800FA6CD35C5E2B40F01081F86CFFF734FE00
:101D780078647B6C002B00F00881F86C0DF0D8FDBE
:101D88007B687A6C1A607B684FF000025A6015E134
:101D9800CDCCCC3D000020410000404297F8633094
:101DA800283B362B00F2F38001A252F823F000BF43
:101DB800951E0008C71E00085B1F0008771F000853
:101DC800971F0008851F0008971F0008691F000853
:101DD800971F0008971F0008971F0008971F000803
:101DE800971F0008971F0008971F0008971F0008F3
:101DF800971F0008971F0008971F0008971F0008E3
:101E0800971F0008971F0008971F0008971F0008D2
:101E1800971F0008971F0008971F0008971F0008C2
:101E2800971F0008971F0008971F0008971F0008B2
:101E3800971F0008971F0008971F0008971F0008A2
:101E4800971F0008971F0008971F0008971F000892
:101E5800971F0008971F0008971F0008971F000882
:101E6800971F0008971F0008971F0008971F000872
:101E7800971F0008971F0008971F0008971F000862
:101E8800971F0008971F00084D1F000897F8633038
:101E98001946F86C07F0ECFD7CE0F86CFFF79CFD48
:101EA800B863BB6B002B0AD0F86C0DF041FD7B6862
:101EB800BA6B1A607B684FF000025A607EE0FB6CD8
:101EC800D3F89031FA6CD35C282BE6D1F86C07F084
:101ED800F1FDFB6CD3F89031FA6CD35C5E2B11D119
:101EE800F86CFFF779FD38643B6C002B0AD0F86C6E
:101EF8000DF01EFD7B683A6C1A607B684FF000029B
:101F08005A605BE0FB6CD3F89031FA6CD35C2A2BF7
:101F18003FD17B6E01333A6813441B785E2B38D06F
:101F2800F86CFFF759FDF863FB6B002B31D0F86CA8
:101F38000DF0FEFC7B68FA6B1A607B684FF00002BC
:101F48005A603BE097F863301946F86C07F090FD4B
:101F580020E097F863301946F86C07F089FD19E01E
:101F680097F863301946F86C07F082FD12E097F88D
:101F780063301946F86C07F07BFD0BE097F8633087
:101F88001946F86C07F074FD04E000BF02E000BFDA
:101F980000E000BF7B6E01337B663868FEF74AF9C4
:101FA80002467B6E9A42BFF4A9ADF86C07F0B6FD05
:101FB80002467B68002119607B685A607868683738
:101FC800BD46B0BD80B500AF052000F09BF900BF4D
:101FD80080BD000080B586B000AF124B9B69114AE6
:101FE80043F0100393610F4B9B6903F010037B6070
:101FF8007B680923BB600123FB6001233B6103234A
:102008007B6107F10803194607480AF053FE074B9E
:1020180001221A60064B01221A6000BF1837BD461C
:1020280080BD00BF00100240001001408001224224
:102038008C01224280B500AF0F4B1B680E4A23F477
:10204800704313600C4B1B680B4A43F440531360F6
:102058000A4B01221A600A4B01221A601E2000F066
:1020680051F9064B00221A60FFF7ACFF044B00221F
:102078001A6000BF80BD00BF001001408C012242E1
:102088008001224280B500AF0D4B1B680C4A23F437
:10209800704313600A4B1B68094A43F440531360AA
:1020A800084B01221A601E2000F02CF9064B002272
:1020B8001A60FFF787FF044B01221A6000BF80BD3A
:1020C80000100140800122428C01224280B582B07A
:1020D80000AF0023FB71164B1B68154A23F47043AD
:1020E8001360134B1B68124A43F400431360114BEF
:1020F80001221A60104B01221A60FFF763FF0BE000
:10210800FB790133FB71FB79FA2B03D9FFF7BAFF8F
:10211800012309E0FFF756FF084B1B68002BEFD19E
:10212800054B00221A60002318460837BD4680BDBB
:10213800001001408C012242800122420C012242FF
:1021480080B500AF0F4B00221A600F4B1B680E4A78
:1021580023F4704313600C4B1B680B4A43F4405341
:102168001360FFF72FFF094B00221A60FFF72AFFC1
:10217800044B01221A60FFF725FF024B00221A6068
:1021880000BF80BD80012242001001408C01224224
:1021980080B500AF0F4B00221A600F4B1B680E4A28
:1021A80023F4704313600C4B1B680B4A43F44053F1
:1021B8001360FFF707FF094B01221A60FFF702FFC0
:1021C800044B01221A60FFF7FDFE024B00221A6041
:1021D80000BF80BD80012242001001408C012242D4
:1021E80080B584B000AF0346FB71184B1B68174AD3
:1021F80023F470431360154B1B68144A43F440538F
:102208001360134B00221A60FFF7DCFE0023FB73F8
:1022180014E0FB79DB09DAB20E4B1A60FB795B003C
:10222800FB710B4B01221A60FFF7CCFE084B002212
:102238001A60FFF7C7FEFB7B0133FB73FB7B072BA1
:10224800E7D900BF00BF1037BD4680BD0010014070
:10225800800122428C01224280B584B000AF03463F
:10226800FB710023BB731B4B1B681A4A23F4704392
:102278001360184B1B68174A43F4004313601E2071
:1022880000F040F80023FB7314E0134B00221A609F
:10229800FFF798FE104B01221A60BB7B5B00BB73F3
:1022A8000E4B1B68002B02D0BB7B0133BB73FB7B3F
:1022B8000133FB73FB7B072BE7D9FB79002B02D19A
:1022C800FFF766FF01E0FFF73BFFBB7B18461037BF
:1022D800BD4680BD00100140800122420C0122420F
:1022E80080B582B000AF0346FB7104200AF082FB80
:1022F800FB79034A136000BF0837BD4680BD00BFA5
:102308005C02002080B489B000AF78600023BB6114
:10231800194B5B687B61194B1A687B6802FB03F3F6
:102328003B61154B9B68FB61134B9B68FB60FA682C
:10233800FB699A42F8D0FA68FB699A4206D2FA69B0
:10234800FB68D31ABA691344BB6107E07A69FB6872
:10235800D21AFB691344BA691344BB61FB68FB6179
:10236800BA693B699A4200D2DEE700BF00BF243752
:10237800BD4680BC704700BF10E000E05C02002052
:1023880080B584B000AF0346FB800023FB6006E005
:102398004FF47A70FFF7B6FFFB680133FB60FB88E8
:1023A800FA689A42F4D300BF00BF1037BD4680BD1B
:1023B80080B584B000AF03463960FB8013467B715B
:1023C8000023BB73FFF736FE7020FFF709FFFFF706
:1023D8007DFEFB88DBB21846FFF702FFFFF776FEAB
:1023E8000023FB7310E0FB7B3A6813441B78184604
:1023F800FFF7F6FEFFF76AFE0346BB73BB7B002BB5
:1024080007D1FB7B0133FB73FA7B7B799A42EAD3D2
:1024180000E000BFFFF736FEBB7B18461037BD460D
:1024280080BD90B585B000AF03463960FB80134688
:102438007B71FFF7FFFD7020FFF7D2FEFFF746FE26
:10244800FB88DBB21846FFF7CBFEFFF73FFEFFF72E
:10245800F1FD7120FFF7C4FEFFF738FE0023FB7380
:1024680013E0FA7B7B79013B9A4214BF01230023D6
:10247800DBB21946FB7B3A68D4180846FFF7ECFE36
:1024880003462370FB7B0133FB73FA7B7B799A420B
:10249800E7D3FFF7F7FD00BF1437BD4690BD000036
:1024A80080B586B000AF374B9B69364A43F01003BE
:1024B8009361344B9B6903F010033B603B684FF416
:1024C80000537B600123BB600123FB6003233B6156
:1024D8003B1D19462C480AF0EDFB02237B600023C4
:1024E800BB603B1D194628480AF0E4FBFFF772FD64
:1024F800264B00221A601420FFF742FF234B0122CB
:102508001A603220FFF73CFF00233B7507F11403E4
:10251800012219460020FFF74BFF07F1140301229F
:102528001946A420FFF744FF16233B7507F114034F
:10253800012219468020FFF73BFF0C233B7507F16A
:102548001403012219468820FFF732FF07F114030C
:1025580002221946A120FFF764FF3B7D302B0CD1E6
:102568007B7D032B09D13B7D1B027A7D13441946E1
:1025780007480EF0FFF9002300E00123184618373A
:10258800BD4680BD0010024000100140B401224247
:10259800143A010880B584B000AF0346FB710023EC
:1025A800FB730023BB73834B1B780133DAB2814B77
:1025B8001A70804B1A78804BA3FB0213D9080B467C
:1025C8009B000B445B00D31ADBB2002B04D0794B81
:1025D8001B78092B00F2BB80FB1D01221946022043
:1025E800FFF71FFFFB7903F00F03002B00F0AF800C
:1025F800FB7903F00F03052B00F3A980FB7903F0A7
:102608000F03FF2202FA03F37B7397F90D30DB43C4
:102618005BB263F03F035BB2DAB2684B83F8202009
:102628000023FB7380E0654B93F820301A46FB7B50
:1026380042FA03F303F00103002B72D0FB7B604ADC
:1026480032F8133007F1080104221846FFF7E9FEB3
:102658005A4B93F8303003F00103002B22D03B7A19
:102668001B029BB203F4706399B27B7A9AB2FB7B2C
:102678000A4491B2514A08335B0013440A46DA808F
:10268800BB7A1B029BB203F4706399B2FB7A9AB2CD
:10269800FB7B0A4491B2494A04335B0013440A465F
:1026A8009A8024E03B7A1B029BB203F470639AB2CF
:1026B8007B7A9BB213449AB2FB7BC2F5F07291B25B
:1026C8003E4A04335B0013440A469A80BB7A1B02D5
:1026D8009BB203F4706399B2FB7A9AB2FB7B0A440B
:1026E80091B2364A08335B0013440A46DA803B7AD3
:1026F80003F0F003802B14D0FA7B304902F1080371
:102708005B000B440021D980F97B2C4802F10803B7
:102718005B000344D888294A0B1D5B00134402461A
:102728009A80FB7B0133FB73FB7B042B7FF67BAF2B
:102738000123BB73214B9B89002B05D11F4BDB8ADF
:10274800002B01D10023FB711A4B00221A70FB7970
:1027580003F01F03002B20D1184B93F820305BB2F5
:10276800002B09DA154B93F8203003F07F03DAB217
:10277800124B83F8202010E0104B4FF6FF729A811D
:102788000E4B4FF6FF72DA820C4B93F8203023F091
:102798001F03DAB2094B83F82020064B1B78F02B75
:1027A80002D9044B0A221A70BB7B18461037BD4663
:1027B80080BD00BF60020020CDCCCCCC280000201A
:1027C8001C3D010880B588B000AF07F11003002256
:1027D8001A605A609A60DA60464B9B69454A43F032
:1027E80020039361434B9B6903F02003FB60FB6864
:1027F800404B9B693F4A43F0040393613D4B9B69FF
:1028080003F00403BB60BB683A4B9B69394A43F049
:1028180010039361374B9B6903F010037B607B685F
:1028280000224FF4807134480AF0EFFB00220421A3
:1028380032480AF0EAFB01233B61314B7B610223FA
:10284800BB6107F1100319462B480AF033FA20231D
:102858003B612C4B7B610123BB6107F110031946D7
:1028680029480AF027FA4FF480733B6101237B6102
:102878000023BB610223FB6107F1100319461E48C0
:102888000AF018FA4FF400433B611E4B7B610123A9
:10289800BB6107F11003194617480AF00BFA042325
:1028A8003B6101237B610023BB610223FB6107F1CC
:1028B8001003194611480AF0FDF9002201210620EB
:1028C8000AF061F806200AF07AF80122012117209F
:1028D8000AF059F817200AF072F80222012128207C
:1028E8000AF051F828200AF06AF800BF2037BD46E0
:1028F80080BD00BF001002400008014000140140E4
:1029080000001110000021100010014080B584B0B3
:1029180000AF0346FB710023FB7300233B73FB7975
:102928007B730023FB7309E03A7BFB7B1049CB5C8C
:102938001344DBB23B73FB7B0133FB73FB7BB72B8D
:10294800F2D93B7B5B42DBB23B73B822084948F2C1
:10295800470000F00FF807F10C030222194648F26D
:10296800FF0000F007F8002318461037BD4680BD69
:10297800283D010880B584B000AF03463960FB806C
:1029880013467B710023BB73FFF754FB2820FFF726
:1029980027FCFFF79BFBFB881B0A9BB2DBB21846A0
:1029A800FFF71EFCFFF792FBFB88DBB21846FFF728
:1029B80017FCFFF78BFB0023FB7310E0FB7B3A68E7
:1029C80013441B781846FFF70BFCFFF77FFB034601
:1029D800BB73BB7B002B07D1FB7B0133FB73FA7BFB
:1029E8007B799A42EAD300E000BFFFF74BFBBB7B41
:1029F80018461037BD4680BD90B585B000AF034678
:102A08003960FB8013467B71FFF714FB2820FFF722
:102A1800E7FBFFF75BFBFB881B0A9BB2DBB21846A0
:102A2800FFF7DEFBFFF752FBFB88DBB21846FFF728
:102A3800D7FBFFF74BFBFFF7FDFA2920FFF7D0FB89
:102A4800FFF744FB0023FB7313E0FA7B7B79013B20
:102A58009A4214BF01230023DBB21946FB7B3A6874
:102A6800D4180846FFF7F8FB03462370FB7B0133B5
:102A7800FB73FA7B7B799A42E7D3FFF703FB00BF2E
:102A88001437BD4690BD000080B588B000AF464BF6
:102A98009B69454A43F010039361434B9B6903F0DC
:102AA80010037B607B684FF40053BB600123FB601D
:102AB80001233B6103237B6107F1080319463B4867
:102AC8000AF0F8F80223BB600023FB6007F1080353
:102AD800194636480AF0EEF8FFF77CFA344B002224
:102AE8001A600A20FFF74CFC314B01221A600A20B9
:102AF800FFF746FC0223BB6002233B610023FB6017
:102B080007F10803194629480AF0D4F86420FFF7AA
:102B180037FC07F118030422194648F24010FFF762
:102B28006BFF00233B7707F11803194621480DF086
:102B380021FF07F1180320491846FDF771FB0346EA
:102B4800002B2BD102233B7607F1180301221946EB
:102B580048F24000FFF70EFF07F11803012219465B
:102B680048F24700FFF748FF3B7E5F2B07D83B7EC4
:102B7800194612480DF0FEFE0120FFF7C7FE0A2095
:102B8800FFF7FEFB00233B7607F1180301221946E5
:102B980048F24000FFF7EEFE002300E0002318464D
:102BA8002037BD4680BD00BF001002400010014024
:102BB800B4012242203A01082C3A0108343A0108AB
:102BC80080B586B000AF0346FB710023FB75002378
:102BD800BB75934B1B780133DAB2914B1A70904B4B
:102BE8001A78904BA3FB0213D9080B469B000B44A1
:102BF8005B00D31ADBB2002B04D0894B1B78092B5E
:102C080000F2DB80FB1D0122194648F24E10FFF747
:102C1800F3FEFB795BB2002B0EDAFB7903F00F03AE
:102C2800052B09DC0023FB7307F10F03012219466A
:102C380048F24E10FFF79EFEFB7903F00F03002BBE
:102C480000F0BB80FB7903F00F03052B00F3B58080
:102C5800FB7903F00F03FF2202FA03F3DBB2FB73E5
:102C6800714B93F820307B75FB7B5BB2DB435BB227
:102C780063F03F035BB2DAB26B4B83F820206A4BF8
:102C88009A89694B9A82684BDA8A674BDA83002300
:102C9800FB755EE0644B93F820301A46FB7D42FAE0
:102CA80003F303F00103002B50D0FB7D5F4A32F899
:102CB800133007F1100104221846FFF79DFE5A4B06
:102CC80093F8303003F00103002B21D07B7C9BB2BA
:102CD8001B0299B23B7C9AB2FB7D0A4491B2524ADC
:102CE80008335B0013440A46DA80FB7C9BB21B0264
:102CF8009AB2BB7C9BB213449AB2FB7DC2F5487270
:102D080091B2494A04335B0013440A469A801DE095
:102D18007B7C9BB21B0299B23B7C9AB2FB7D0A4436
:102D280091B2414A04335B0013440A469A80FB7C03
:102D38009BB21B0299B2BB7C9AB2FB7D0A4491B24A
:102D4800394A08335B0013440A46DA80FB7D0133B5
:102D5800FB75FB7D042B9DD90123BB75324B9A89EA
:102D6800334B1B889A4205D82F4BDA8A304B5B8845
:102D78009A421FD9FB7903F00E03002B0BD02A4B84
:102D8800DA89294B9A81284B1A8B274BDA82244BF4
:102D980000221A7011E0244B9A8A234B9A81224B05
:102DA800DA8B214BDA828023FB711F4A7B7D82F804
:102DB800203002E01A4B00221A70FB7903F08F03CF
:102DC800802B20D1184B93F820305BB2002B09DA06
:102DD800154B93F8203003F07F03DAB2124B83F8D7
:102DE800202010E0104B4FF6FF729A810E4B4FF6E1
:102DF800FF72DA820C4B93F8203023F01F03DAB20B
:102E0800094B83F82020064B1B78F02B02D9044B82
:102E18000A221A70BB7D18461837BD4680BD00BF10
:102E280061020020CDCCCCCC28000020E03D010878
:102E38006402002080B483B000AF0346FB800D4BD2
:102E48004FF480725A610B4B4FF400725A610A4A70
:102E5800FB88D360074B80225A61064B80221A6197
:102E6800044B4FF400721A6100BF0C37BD4680BC9A
:102E7800704700BF00100140000C014080B483B0CF
:102E880000AF0346FB800D4B4FF480721A610B4B69
:102E98004FF400725A610A4AFB88D360074B8022BC
:102EA8005A61064B80221A61044B4FF400721A6172
:102EB80000BF0C37BD4680BC704700BF0010014002
:102EC800000C014080B582B000AF1D4B4FF0883236
:102ED8001A601B4B4FF088325A60194B0022DA6097
:102EE800184B4FF480721A61164B4FF400725A61F6
:102EF800144B40225A61144B9B8848F6891293421E
:102F080002D1012009F044FC0D4B9B68FB800D4B5E
:102F180040221A610B4B4FF400721A61084B4FF0B4
:102F280033321A60064B4FF033325A60044B4FF677
:102F3800FF72DA60FB8818460837BD4680BD00BFBF
:102F4800000C0140001001406402002080B582B0EE
:102F580000AF03460A46FB801346BB80FB88184631
:102F6800FFF768FF0C4B4FF480721A610A4B4FF45D
:102F780000725A61094ABB88D360074B80225A61A4
:102F8800054B80221A61044B4FF400721A6100BF8E
:102F98000837BD4680BD00BF00100140000C01404D
:102FA80080B582B000AF0346FB80FB881846FFF768
:102FB80041FFFFF787FF034618460837BD4680BD27
:102FC80080B500AF034B1B891846FFF733FF00BFDE
:102FD80080BD00BF6402002080B582B000AF034608
:102FE8000A46FB801346BB80734B9B8849F24132EB
:102FF800934205D0704B9B8845F21032934264D1BE
:103008006D4B5B891846FFF715FF6C4B4FF48072C8
:103018001A616A4B4FF400725A61FB881B0A9AB214
:10302800674BDA60654B80225A61644B80221A61D3
:10303800624B4FF400721A61604B4FF480721A6150
:103048005E4B4FF400725A61FB885D4ADBB2D36075
:103058005A4B80225A61594B80221A61574B4FF4C0
:1030680000721A61544B9B891846FFF7E3FE534BD5
:103078004FF480721A61514B4FF400725A61BB8849
:103088001B0A9AB24E4BDA604C4B80225A614B4B6A
:1030980080221A61494B4FF400721A61474B4FF472
:1030A80080721A61454B4FF400725A61BB88444ADA
:1030B800DBB2D360414B80225A61404B80221A61B7
:1030C8003E4B4FF400721A6148E23B4B9B8846F630
:1030D8000402934276D1384B9B79012B06D1364BAB
:1030E8001A88FB88D31A9BB2013BFB80324B5B8961
:1030F8001846FFF79FFE314B4FF480721A612F4B31
:103108004FF400725A61FB881B0A9AB22C4BDA60A2
:103118002A4B80225A61294B80221A61274B4FF48F
:1031280000721A61254B4FF480721A61234B4FF4D9
:1031380000725A61FB88224ADBB2D3601F4B80229F
:103148005A611E4B80221A611C4B4FF400721A619F
:10315800194B9B891846FFF76DFE184B4FF4807288
:103168001A61164B4FF400725A61BB881B0A9AB257
:10317800134BDA60114B80225A61104B80221A617E
:103188000E4B4FF400721A610C4B4FF480721A61A7
:103198000A4B4FF400725A61BB88094ADBB2D3600C
:1031A800064B80225A61054B80221A61034B4FF46B
:1031B80000721A61D2E100BF6402002000100140D1
:1031C800000C0140994B9B8841F66312934240F0F2
:1031D8003381964B9B79002B63D1944B1A88FB88DB
:1031E800D31A9BB2013BFB80904B5B891846FFF7D3
:1031F80021FE8F4B4FF480721A618D4B4FF4007291
:103208005A618C4B0022DA60894B80225A61884BC4
:1032180080221A61864B4FF400721A61844B4FF476
:1032280080721A61824B4FF400725A61814B0022FE
:10323800DA607F4B80225A617D4B80221A617C4B79
:103248004FF400721A617A4B4FF480721A61784B0E
:103258004FF400725A61FB881B0A9AB2754BDA6008
:10326800734B80225A61724B80221A61704B4FF463
:1032780000721A616E4B4FF480721A616C4B4FF4F6
:1032880000725A61FB886B4ADBB2D360684B8022BC
:103298005A61674B80221A61654B4FF400721A61BC
:1032A80061E0624B5B891846FFF7C4FD604B4FF441
:1032B80080721A615E4B4FF400725A61FB881B0AD8
:1032C8009AB25C4BDA605A4B80225A61584B802282
:1032D8001A61574B4FF400721A61554B4FF48072C4
:1032E8001A61534B4FF400725A61FB88514ADBB2A2
:1032F800D3604F4B80225A614D4B80221A614C4B50
:103308004FF400721A614A4B4FF480721A61484BAD
:103318004FF400725A61454B1B88013B1A12454B0A
:10332800DA60434B80225A61414B80221A61404B3C
:103338004FF400721A613E4B4FF480721A613C4B95
:103348004FF400725A61394B1B88013B394ADBB292
:10335800D360374B80225A61354B80221A61344B37
:103368004FF400721A61314B9B891846FFF762FDD2
:103378002F4B4FF480721A612D4B4FF400725A6133
:10338800BB881B0A9AB22B4BDA60294B80225A6100
:10339800274B80221A61264B4FF400721A61244B86
:1033A8004FF480721A61224B4FF400725A61BB8845
:1033B800204ADBB2D3601E4B80225A611C4B80220C
:1033C8001A611B4B4FF400721A61194B4FF480724B
:1033D8001A61174B4FF400725A61144B5B88013B1A
:1033E8001A12144BDA60124B80225A61104B802259
:1033F8001A610F4B4FF400721A610D4B4FF4807233
:103408001A610B4B4FF400725A61084B5B88013B01
:10341800084ADBB2D360064B80225A61044B8022F3
:103428001A61034B4FF400721A6197E0640200209E
:1034380000100140000C01404A4B9B8845F2105295
:10344800934272D1474B5B891846FFF7F3FC464B12
:103458004FF480721A61444B4FF400725A61FB8832
:103468001B0A9AB2414BDA603F4B80225A613E4BAD
:1034780080221A613C4B4FF400721A61394B5B8908
:1034880001339BB21846FFF7D5FC374B4FF48072D7
:103498001A61354B4FF400725A61FB88334ADBB22C
:1034A800D360314B80225A612F4B80221A612E4BF8
:1034B8004FF400721A612B4B9B891846FFF7BAFC30
:1034C800294B4FF480721A61274B4FF400725A61EE
:1034D800BB881B0A9AB2254BDA60234B80225A61BB
:1034E800214B80221A61204B4FF400721A611D4B48
:1034F8009B8901339BB21846FFF79CFC1A4B4FF48B
:1035080080721A61184B4FF400725A61BB88174ACF
:10351800DBB2D360144B80225A61134B80221A61AC
:10352800114B4FF400721A6118E00E4B9B79012B76
:1035380006D10C4B1A88FB88D31A9BB2013BFB803F
:10354800084B5B89FA8811461846FFF7FFFC054BC4
:103558009B89BA8811461846FFF7F8FC00BF083760
:10356800BD4680BD6402002000100140000C0140EF
:1035780080B584B000AF0346FB710023FB810023B4
:10358800BB81784B9B79012B0BD1764B9B8846F6F8
:103598000402934205D0734B9B8841F66312934211
:1035A80009D1704B9B79002B34D16E4B9B8841F627
:1035B800631293422ED1FB79072B2BD801A252F824
:1035C80023F000BFED350008F3350008F935000891
:1035D800FF350008053600080B36000811360008CC
:1035E800173600080623FB7114E00723FB7111E06E
:1035F8000423FB710EE00523FB710BE00123FB7133
:1036080008E00023FB7105E00323FB7102E00223BD
:10361800FB7100BF534B9B8849F24132934218D04B
:10362800504B9B8846F60402934212D04D4B9B8820
:1036380045F2103293420CD04A4B9B8845F2105207
:10364800934206D0474B9B8841F66312934240F061
:103658005082FB79072B36D801A252F823F000BF1D
:10366800CF36000889360008933600089D360008D2
:10367800A7360008B1360008BB360008C536000872
:10368800FB8943F08003FB811DE0FB8943F0400385
:10369800FB8118E0FB8943F0C003FB8113E0FB8941
:1036A80043F02003FB810EE0FB8943F06003FB81BC
:1036B80009E0FB8943F0A003FB8104E0FB8943F0A8
:1036C800E003FB8100BF274B9B8845F210529342D1
:1036D80003D14FF45853BB8101E03623BB81214B02
:1036E8009B8845F2103293420FD01E4B9B8845F2BF
:1036F8001052934209D01B4B9B8841F663129342A8
:1037080003D0FB8943F00803FB81164B9B8846F6E0
:103718000402934203D1FB8943F00203FB81FA8937
:10372800BB8911461846FFF711FC0E4B9B8841F6E2
:103738006312934228D0FB8903F02003002B13D097
:10374800084B1A88074B5B889A421DD2054B1B8889
:103758007B81044B5A88034B1A80024A7B89538029
:1037680012E000BF640200207F4B1A887E4B5B8802
:103778009A4209D97C4B1B887B817B4B5A887A4BB0
:103788001A80794A7B895380774B9B8845F210527F
:10379800934240F0EF80744B5B891846FFF74AFB71
:1037A800724B4FF480721A61704B4FF400725A6179
:1037B8006F4B0022DA606D4B80225A616B4B80227E
:1037C8001A616A4B4FF400721A61674B5B890133C7
:1037D8009BB21846FFF72EFB644B4FF480721A61B8
:1037E800624B4FF400725A61614B0022DA605F4B02
:1037F80080225A615D4B80221A615C4B4FF4007243
:103808001A61594B5B8902339BB21846FFF712FBCA
:10381800564B4FF480721A61544B4FF400725A6140
:10382800514B1B88013B1A12514BDA604F4B8022D7
:103838005A614E4B80221A614C4B4FF400721A6148
:10384800494B5B8903339BB21846FFF7F3FA474BA2
:103858004FF480721A61454B4FF400725A61424B23
:103868001B88013B424ADBB2D360404B80225A613D
:103878003E4B80221A613D4B4FF400721A613A4B5D
:103888009B891846FFF7D6FA384B4FF480721A61B5
:10389800364B4FF400725A61354B0022DA60334BD5
:1038A80080225A61314B80221A61304B4FF40072EA
:1038B8001A612D4B9B8901339BB21846FFF7BAFA60
:1038C8002A4B4FF480721A61284B4FF400725A61E8
:1038D800274B0022DA60254B80225A61234B802235
:1038E8001A61224B4FF400721A611F4B9B890233F5
:1038F8009BB21846FFF79EFA1C4B4FF480721A6170
:103908001A4B4FF400725A61174B5B88013B1A122D
:10391800174BDA60154B80225A61144B80221A61CA
:10392800124B4FF400721A610F4B9B8903339BB201
:103938001846FFF77FFA0D4B4FF480721A610B4B54
:103948004FF400725A61084B5B88013B084ADBB2AE
:10395800D360064B80225A61044B80221A61034BC4
:103968004FF400721A610BE164020020001001405C
:10397800000C0140844B5B891846FFF75BFA834BC8
:103988004FF480721A61814B4FF400725A61804B78
:103998000022DA607D4B80225A617C4B80221A61BA
:1039A8007A4B4FF400721A61784B4FF480721A61A7
:1039B800764B4FF400725A61754B0022DA60734BF4
:1039C80080225A61714B80221A61704B4FF4007249
:1039D8001A616E4B4FF480721A616C4B4FF400728F
:1039E8005A61694B1B88013B1A12694BDA60674BB5
:1039F80080225A61654B80221A61644B4FF4007231
:103A08001A61624B4FF480721A61604B4FF4007276
:103A18005A615D4B1B88013B5D4ADBB2D3605B4B4F
:103A280080225A61594B80221A61584B4FF4007218
:103A38001A61554B9B891846FFF7FCF9534B4FF415
:103A480080721A61514B4FF400725A61504B002238
:103A5800DA604E4B80225A614C4B80221A614B4BE4
:103A68004FF400721A61494B4FF480721A61474B48
:103A78004FF400725A61464B0022DA60434B8022B1
:103A88005A61424B80221A61404B4FF400721A610E
:103A98003E4B4FF480721A613C4B4FF400725A61EE
:103AA800394B5B88013B1A12394BDA60374B80225D
:103AB8005A61364B80221A61344B4FF400721A61F6
:103AC800324B4FF480721A61304B4FF400725A61D6
:103AD8002D4B5B88013B2E4ADBB2D3602B4B8022F7
:103AE8005A612A4B80221A61284B4FF400721A61DE
:103AF80046E0FB79072B36D801A252F823F000BF25
:103B0800293B0008333B00083D3B00086F3B000899
:103B1800473B0008513B00085B3B0008653B000839
:103B2800FB8943F03003FB811DE0FB8943F0100360
:103B3800FB8118E0FB8943F02003FB8113E0FB893C
:103B480043F03803FB810EE0FB8943F02803FB8137
:103B580009E0FB8943F01803FB8104E0FB8943F08B
:103B68000803FB8100BF0323BB81FB8943F4805317
:103B7800FB81FA89BB8911461846FFF7E7F900BFB0
:103B880000BF1037BD4680BD640200200010014010
:103B9800000C014080B582B000AF03460A46FB80A6
:103BA8001346BB80BA88FB8811461846FFF714FAFB
:103BB800FFF706FA0C4B4FF480721A610A4B4FF468
:103BC80000725A61094B1A88094BDA60064B802249
:103BD8005A61054B80221A61034B4FF400721A6137
:103BE80000BF0837BD4680BD0010014062020020BA
:103BF800000C014080B582B000AF0346FB800B4645
:103C0800BB8013467B80754B9B8849F241329342B7
:103C180005D0724B9B8845F21032934264D16F4BAA
:103C28005B891846FFF706F96D4B4FF480721A61ED
:103C38006B4B4FF400725A61FB881B0A9AB2694BAE
:103C4800DA60674B80225A61654B80221A61644BA7
:103C58004FF400721A61624B4FF480721A61604B24
:103C68004FF400725A61FB885E4ADBB2D3605C4B4A
:103C780080225A615A4B80221A61594B4FF40072C4
:103C88001A61564B9B891846FFF7D4F8544B4FF4EA
:103C980080721A61524B4FF400725A61BB881B0A3A
:103CA8009AB2504BDA604E4B80225A614C4B8022BC
:103CB8001A614B4B4FF400721A61494B4FF48072F2
:103CC8001A61474B4FF400725A61BB88454ADBB210
:103CD800D360434B80225A61414B80221A61404B8A
:103CE8004FF400721A61E6E13C4B9B8845F2105292
:103CF800934279D1394B5B891846FFF79BF8384BCB
:103D08004FF480721A61364B4FF400725A61FB8887
:103D18001B0A9AB2334BDA60314B80225A61304B1E
:103D280080221A612E4B4FF400721A612B4B5B896B
:103D380001339BB21846FFF77DF8294B4FF4807288
:103D48001A61274B4FF400725A61FB88254ADBB28F
:103D5800D360234B80225A61214B80221A61204B69
:103D68004FF400721A611D4B9B891846FFF762F8E1
:103D78001B4B4FF480721A61194B4FF400725A6151
:103D8800BB881B0A9AB2174BDA60154B80225A611E
:103D9800134B80221A61124B4FF400721A610F4BB9
:103DA8009B8901339BB21846FFF744F80C4B4FF43C
:103DB80080721A610A4B4FF400725A61BB88094A33
:103DC800DBB2D360064B80225A61054B80221A6110
:103DD800034B4FF400721A616DE100BF64020020CA
:103DE80000100140000C0140684B9B8841F66312AB
:103DF800934240F0D180654B9B79002B06D1634BF1
:103E08001A88FB88D31A9BB2013BFB805F4B5B8906
:103E18001846FFF70FF85E4B4FF480721A615C4B3F
:103E28004FF400725A61FB881B0A9AB2594BDA6048
:103E3800574B80225A61564B80221A61544B4FF4DB
:103E480000721A61524B4FF480721A61504B4FF452
:103E580000725A61FB884F4ADBB2D3604C4B802218
:103E68005A614B4B80221A61494B4FF400721A6118
:103E7800474B4FF480721A61454B4FF400725A61F8
:103E8800FB881B0A9AB2434BDA60414B80225A6185
:103E98003F4B80221A613E4B4FF400721A613C4B33
:103EA8004FF480721A613A4B4FF400725A61FB88E2
:103EB800384ADBB2D360364B80225A61344B8022B9
:103EC8001A61334B4FF400721A61304B9B891846C4
:103ED800FEF7B0FF2E4B4FF480721A612C4B4FF453
:103EE80000725A61BB881B0A9AB22A4BDA60284BC7
:103EF80080225A61264B80221A61254B4FF40072AA
:103F08001A61234B4FF480721A61214B4FF40072EF
:103F18005A61BB881F4ADBB2D3601D4B80225A61AD
:103F28001B4B80221A611A4B4FF400721A61184B0E
:103F38004FF480721A61164B4FF400725A61BB88B5
:103F48001B0A9AB2134BDA60114B80225A61104B4C
:103F580080221A610E4B4FF400721A610C4B4FF419
:103F680080721A610A4B4FF400725A61BB88094A81
:103F7800DBB2D360064B80225A61054B80221A615E
:103F8800034B4FF400721A6195E000BF64020020F1
:103F980000100140000C01405E4B9B8846F604026D
:103FA80093426FD15B4B9B79012B06D1594B1A88F1
:103FB800FB88D31A9BB2013BFB80564B5B891846A2
:103FC800FEF738FF544B4FF480721A61524B4FF48E
:103FD80000725A61FB881B0A9AB2504BDA604E4B4A
:103FE80080225A614C4B80221A614B4B4FF400726D
:103FF8001A61494B4FF480721A61474B4FF40072B3
:104008005A61FB88454ADBB2D360434B80225A6130
:10401800414B80221A61404B4FF400721A613D4BAC
:104028009B891846FEF706FF3B4B4FF480721A61D6
:10403800394B4FF400725A61BB881B0A9AB2374B4E
:10404800DA60354B80225A61334B80221A61324B39
:104058004FF400721A61304B4FF480721A612E4B84
:104068004FF400725A61BB882C4ADBB2D3602A4BEA
:1040780080225A61284B80221A61274B4FF4007224
:104088001A6118E0234B9B79012B06D1214B1A8822
:10409800FB88D31A9BB2013BFB801E4B5B89FA88D5
:1040A80011461846FEF752FF1A4B9B89BA881146EB
:1040B8001846FEF74BFF184B4FF480725A61164BA7
:1040C8004FF400725A61134B1A89144BDA60124B81
:1040D80080225A61104B80221A610F4B4FF40072F4
:1040E8001A610D4B4FF480721A610B4B4FF400723A
:1040F8005A610A4A7B88D360074B80225A61064B73
:1041080080221A61044B4FF400721A6100BF08370D
:10411800BD4680BD6402002000100140000C014033
:1041280090B583B000AF0346FB71BE20FEF782FE58
:104138004B4B4FF480721A61494B4FF400725A612D
:10414800484B0522DA60464B80225A61444B802254
:104158001A61434B4FF400721A61414B4FF480725D
:104168001A613F4B4FF400725A61FB791846FCF70D
:10417800BBF939A3D3E90023FCF720FA02460B4622
:10418800384C10461946FCF7C9FC0346E360344B2B
:1041980080225A61324B80221A61314B4FF40072EF
:1041A8001A612F4B4FF480721A612D4B4FF4007235
:1041B8005A612C4B0122DA60294B80225A61284B24
:1041C80080221A61264B4FF400721A61244B4FF477
:1041D80080721A61224B4FF400725A61214BFF2200
:1041E800DA601F4B80225A611D4B80221A611C4BDA
:1041F8004FF400721A611A4B4FF480721A61184B0F
:104208004FF400725A61174B0022DA60144B802277
:104218005A61134B80221A61114B4FF400721A61D4
:104228000F4B4FF480721A610D4B4FF400725A61B4
:104238000C4B0022DA600A4B80225A61084B80221C
:104248001A61074B4FF400721A6100BF0C37BD4664
:1042580090BD00BFAFF30080666666666666044080
:1042680000100140000C014080B582B000AF034649
:10427800FB71FB79002B77D1804B00229A717F4B21
:10428800F0221A807D4B4FF4A0725A807B4B9B889A
:1042980049F2413293420BD0784B9B8846F6040290
:1042A800934205D0754B9B8845F2103293421ED13C
:1042B800724B2C221A81714B2A225A816F4B2B2266
:1042C8009A816E4B9B8846F60402934206D06B4B4C
:1042D8009B8845F21032934240F0C780674B4FF4F9
:1042E800A0721A80654B4FF4F0725A80BDE0634BA0
:1042F8009B8845F21052934214D1604B4FF43052D0
:104308001A815E4B4FF428525A815C4B4FF42C5261
:104318009A815A4B4FF4F0721A80584B4FF44872F6
:104328005A80A3E0554B9B8841F66312934211D102
:10433800524B2C221A81514B2B225A814F4B2A2245
:104348009A814E4B4FF4F0721A804C4B4FF44872DE
:104358005A808BE0494B22221A81484B20225A81ED
:10436800464B21229A8181E0444B01229A71434BAA
:104378004FF4A0721A80414BF0225A803F4B9B8821
:1043880049F24132934205D03C4B9B8845F21032AA
:10439800934209D1394B2C221A81384B2A225A814F
:1043A800364B2B229A814BE0344B9B8846F604020D
:1043B800934209D1314B2C221A81304B2B225A813E
:1043C8002E4B2A229A813BE02C4B9B8845F21052B7
:1043D800934214D1294B4FF430521A81274B4FF492
:1043E80028525A81254B4FF42C529A81234B4FF473
:1043F80048721A80214B4FF4F0725A8020E01F4B0C
:104408009B8841F66312934211D11C4B2C221A81CE
:104418001A4B2A225A81194B2B229A81174B4FF497
:1044280048721A80154B4FF4F0725A8008E0134B0B
:1044380022221A81114B21225A81104B20229A8163
:104448000E4B9B8846F60402934205D00B4B9B8883
:1044580045F21032934209D1084B4FF4F0721A809A
:10446800064B4FF4A0725A8000E000BF0020FFF70F
:104478007FF800BF0837BD4680BD00BF640200203A
:1044880080B586B000AF904B9B698F4A43F0080314
:1044980093618D4B9B6903F008037B607B688A4BB3
:1044A8009B69894A43F010039361874B9B6903F02A
:1044B80010033B603B684FF4F863BB600123FB606B
:1044C80001233B6103237B6107F1080319467F48F9
:1044D80008F0F0FB4FF6FF73BB6007F108031946BD
:1044E8007B4808F0E7FB322008F052F90121002050
:1044F800FEF72CFD322008F04BF90020FEF750FDA6
:1045080003461A46734B9A80724B9B88FE2B0BD935
:10451800704B9B884FF6FF72934205D06D4B9B887A
:10452800B3F5134F40F0C880D320FEF783FCFEF7A5
:10453800C9FCFEF7C7FCFEF7C5FC03461A46654BE7
:104548009A80644B9B881B029AB2624B9A80FEF752
:10455800B9FC03461A465F4B9B8813439AB25D4BDE
:104568009A805C4B9B8849F24132934200F0A480C8
:10457800BF20FEF75FFCFEF7A5FCFEF7A3FCFEF7E5
:10458800A1FCFEF79FFC03461A46524B9A80514BFA
:104598009B881B029AB24F4B9A80FEF793FC034606
:1045A8001A464C4B9B8813439AB24A4B9A80494B04
:1045B8009B8846F6040293427ED0D420FEF73AFC4C
:1045C800FEF780FCFEF77EFCFEF77CFC03461A46ED
:1045D800404B9A803F4B9B881B029AB23D4B9A8076
:1045E800FEF770FC03461A463A4B9B8813439AB26F
:1045F800384B9A80374B9B8845F2103293425BD0F8
:104608004FF45A40FEF716FCFEF75CFC4FF45B4093
:10461800FEF710FCFEF756FC03461A462D4B9A800F
:104628002C4B9B881B029AB22A4B9A804FF45C4011
:10463800FEF700FCFEF746FC03461A46254B9B880E
:1046480013439AB2234B9A80224B9B88B3F5004FB1
:1046580003D1204B45F210529A801E4B9B8845F29D
:104668001052934228D0A120FEF7E4FBFEF72AFC63
:1046780003461A46174B9A80FEF724FC03461A464F
:10468800144B9A80134B9B881B029AB2114B9A8049
:10469800FEF718FC03461A460E4B9B8813439AB242
:1046A8000C4B9A800B4B9B8845F26172934203D165
:1046B800084B41F663129A80064B9B8849F24132B7
:1046C800934240F01F8107E00010024000100140B3
:1046D800000C014064020020CF20FEF7ABFB002055
:1046E800FEF7CCFBC120FEF7C9FB3020FEF7C6FB66
:1046F800ED20FEF79FFB6420FEF7C0FB0320FEF7CA
:10470800BDFB1220FEF7BAFB8120FEF7B7FBE820BD
:10471800FEF790FB8520FEF7B1FB1020FEF7AEFBFD
:104728007A20FEF7ABFBCB20FEF784FB3920FEF79F
:10473800A5FB2C20FEF7A2FB0020FEF79FFB3420F0
:10474800FEF79CFB0220FEF799FBF720FEF772FBB1
:104758002020FEF793FBEA20FEF76CFB0020FEF713
:104768008DFB0020FEF78AFBC020FEF763FB1B20B1
:10477800FEF784FBC120FEF75DFB0120FEF77EFB00
:10478800C520FEF757FB3020FEF778FB3020FEF7F8
:1047980075FBC720FEF74EFBB720FEF76FFB3620F0
:1047A800FEF748FB4820FEF769FB3A20FEF742FB7C
:1047B8005520FEF763FBB120FEF73CFB0020FEF717
:1047C8005DFB1A20FEF75AFBB620FEF733FB0A20E2
:1047D800FEF754FBA220FEF751FBF220FEF72AFB5E
:1047E8000020FEF74BFB2620FEF724FB0120FEF7F6
:1047F80045FBE020FEF71EFB0F20FEF73FFB2A20BB
:10480800FEF73CFB2820FEF739FB0820FEF736FBB5
:104818000E20FEF733FB0820FEF730FB5420FEF78E
:104828002DFBA920FEF72AFB4320FEF727FB0A20D1
:10483800FEF724FB0F20FEF721FB0020FEF71EFBEE
:104848000020FEF71BFB0020FEF718FB0020FEF7F8
:1048580015FBE120FEF7EEFA0020FEF70FFB15200E
:10486800FEF70CFB1720FEF709FB0720FEF706FBF7
:104878001120FEF703FB0620FEF700FB2B20FEF7B6
:10488800FDFA5620FEF7FAFA3C20FEF7F7FA052063
:10489800FEF7F4FA1020FEF7F1FA0F20FEF7EEFA11
:1048A8003F20FEF7EBFA3F20FEF7E8FA0F20FEF76D
:1048B800E5FA2B20FEF7BEFA0020FEF7DFFA00200B
:1048C800FEF7DCFA0120FEF7D9FA3F20FEF7D6FA08
:1048D8002A20FEF7AFFA0020FEF7D0FA0020FEF7F4
:1048E800CDFA0020FEF7CAFAEF20FEF7C7FA11202A
:1048F800FEF7A0FA782007F04BFF2920FEF79AFA76
:1049080003F0D8BC584B9B8846F60402934240F00B
:10491800AD801120FEF78EFA142007F039FFD02061
:10492800FEF788FA0720FEF7A9FA4220FEF7A6FA52
:104938001D20FEF7A3FAD120FEF77CFA0020FEF72F
:104948009DFA1A20FEF79AFA0920FEF797FAD22064
:10495800FEF770FA0120FEF791FA2220FEF78EFA90
:10496800C020FEF767FA1020FEF788FA3B20FEF712
:1049780085FA0020FEF782FA0220FEF77FFA11205E
:10498800FEF77CFAC520FEF755FA0320FEF776FA03
:10499800C820FEF74FFA0020FEF770FA2520FEF730
:1049A8006DFA2120FEF76AFA0520FEF767FA002063
:1049B800FEF764FA0A20FEF761FA6520FEF75EFA50
:1049C8002520FEF75BFA7720FEF758FA5020FEF70D
:1049D80055FA0F20FEF752FA0020FEF74FFAF8209A
:1049E800FEF728FA0120FEF749FAFE20FEF722FA20
:1049F8000020FEF743FA0220FEF740FA2020FEF7D7
:104A080019FA3620FEF716FA0820FEF737FA3A2088
:104A1800FEF710FA5520FEF731FA2B20FEF70AFAB6
:104A28000020FEF72BFA0020FEF728FA0120FEF7F7
:104A380025FA3F20FEF722FA2A20FEF7FBF900208C
:104A4800FEF71CFA0020FEF719FA0120FEF716FA05
:104A5800DF20FEF713FA782007F09AFE2920FEF7E8
:104A6800E9F903F027BC00BF64020020034B9B88D0
:104A780045F21032934240F07C8701E06402002046
:104A8800ED20FEF7D7F90120FEF7F8F9FE20FEF732
:104A9800F5F9EE20FEF7CEF9DE20FEF7EFF921203A
:104AA800FEF7ECF9F120FEF7C5F90120FEF7E6F96B
:104AB800DF20FEF7BFF91020FEF7E0F9C420FEF76B
:104AC800B9F98F20FEF7DAF9C620FEF7B3F900200E
:104AD800FEF7D4F9E220FEF7D1F9E220FEF7CEF98D
:104AE800E220FEF7CBF9BF20FEF7A4F9AA20FEF7D3
:104AF800C5F9B020FEF79EF90D20FEF7BFF900209A
:104B0800FEF7BCF90D20FEF7B9F90020FEF7B6F95B
:104B18001120FEF7B3F90020FEF7B0F91920FEF7CF
:104B2800ADF90020FEF7AAF92120FEF7A7F9002029
:104B3800FEF7A4F92D20FEF7A1F90020FEF79EF953
:104B48003D20FEF79BF90020FEF798F95D20FEF75F
:104B580095F90020FEF792F95D20FEF78FF9002005
:104B6800FEF78CF9B120FEF765F98020FEF786F98B
:104B78000020FEF783F98B20FEF780F90020FEF76E
:104B88007DF99620FEF77AF90020FEF777F9B22032
:104B9800FEF750F90020FEF771F90020FEF76EF9D4
:104BA8000220FEF76BF90020FEF768F90320FEF7F4
:104BB80065F90020FEF762F9B320FEF73BF9002003
:104BC800FEF75CF90020FEF759F90020FEF756F9C8
:104BD8000020FEF753F90020FEF750F90020FEF7F9
:104BE8004DF90020FEF74AF90020FEF747F90020AA
:104BF800FEF744F90020FEF741F90020FEF73EF9E0
:104C08000020FEF73BF90020FEF738F90020FEF7F8
:104C180035F90020FEF732F90020FEF72FF90020C1
:104C2800FEF72CF90020FEF729F90020FEF726F9F7
:104C38000020FEF723F90020FEF720F90020FEF7F8
:104C48001DF90020FEF71AF90020FEF717F9B42025
:104C5800FEF7F0F88B20FEF711F90020FEF70EF9A9
:104C68009620FEF70BF90020FEF708F9A120FEF7C1
:104C780005F90020FEF702F9B520FEF7DBF802205F
:104C8800FEF7FCF80020FEF7F9F80320FEF7F6F827
:104C98000020FEF7F3F80420FEF7F0F80020FEF7F6
:104CA800EDF8B620FEF7C6F80020FEF7E7F800207A
:104CB800FEF7E4F8B720FEF7BDF80020FEF7DEF8AF
:104CC8000020FEF7DBF83F20FEF7D8F80020FEF7BB
:104CD800D5F85E20FEF7D2F80020FEF7CFF8642062
:104CE800FEF7CCF80020FEF7C9F88C20FEF7C6F8CE
:104CF8000020FEF7C3F8AC20FEF7C0F80020FEF74E
:104D0800BDF8DC20FEF7BAF80020FEF7B7F87020EF
:104D1800FEF7B4F80020FEF7B1F89020FEF7AEF8E1
:104D28000020FEF7ABF8EB20FEF7A8F80020FEF70E
:104D3800A5F8DC20FEF7A2F80020FEF79FF8B820BF
:104D4800FEF778F80020FEF799F80020FEF796F8AD
:104D58000020FEF793F80020FEF790F80020FEF7F9
:104D68008DF80020FEF78AF80020FEF787F800206B
:104D7800FEF784F8BA20FEF75DF82420FEF77EF8E7
:104D88000020FEF77BF80020FEF778F80020FEF7F9
:104D980075F8C120FEF74EF82020FEF76FF80020C6
:104DA800FEF76CF85420FEF769F80020FEF766F865
:104DB800FF20FEF763F80020FEF760F8C220FEF738
:104DC80039F80A20FEF75AF80020FEF757F80420B1
:104DD800FEF754F80020FEF751F8C320FEF72AF832
:104DE8003C20FEF74BF80020FEF748F83A20FEF783
:104DF80045F80020FEF742F83920FEF73FF800207A
:104E0800FEF73CF83720FEF739F80020FEF736F8B1
:104E18003C20FEF733F80020FEF730F83620FEF786
:104E28002DF80020FEF72AF83220FEF727F8002098
:104E3800FEF724F82F20FEF721F80020FEF71EF8D1
:104E48002C20FEF71BF80020FEF718F82920FEF7A3
:104E580015F80020FEF712F82620FEF70FF80020BC
:104E6800FEF70CF82420FEF709F80020FEF706F8F4
:104E78002420FEF703F80020FEF700F82320FDF7B2
:104E8800FDFF0020FDF7FAFF3C20FDF7F7FF0020AB
:104E9800FDF7F4FF3620FDF7F1FF0020FDF7EEFFE8
:104EA8003220FDF7EBFF0020FDF7E8FF2F20FDF78C
:104EB800E5FF0020FDF7E2FF2C20FDF7DFFF0020D3
:104EC800FDF7DCFF2920FDF7D9FF0020FDF7D6FF0D
:104ED8002620FDF7D3FF0020FDF7D0FF2420FDF7A3
:104EE800CDFF0020FDF7CAFF2420FDF7C7FF0020F3
:104EF800FDF7C4FF2320FDF7C1FF0020FDF7BEFF2B
:104F0800C420FDF797FF6220FDF7B8FF0020FDF7EA
:104F1800B5FF0520FDF7B2FF0020FDF7AFFF8420A5
:104F2800FDF7ACFF0020FDF7A9FFF020FDF7A6FF75
:104F38000020FDF7A3FF1820FDF7A0FF0020FDF7D4
:104F48009DFFA420FDF79AFF0020FDF797FF18208A
:104F5800FDF794FF0020FDF791FF5020FDF78EFF2D
:104F68000020FDF78BFF0C20FDF788FF0020FDF7E0
:104F780085FF1720FDF782FF0020FDF77FFF9520B2
:104F8800FDF77CFF0020FDF779FFF320FDF776FFA2
:104F98000020FDF773FFE620FDF770FF0020FDF706
:104FA8006DFFC520FDF746FF3220FDF767FF0020A3
:104FB800FDF764FF4420FDF761FF0020FDF75EFF69
:104FC8006520FDF75BFF0020FDF758FF7620FDF711
:104FD80055FF0020FDF752FF8820FDF74FFF002006
:104FE800FDF74CFFC620FDF725FF2020FDF746FF03
:104FF8000020FDF743FF1720FDF740FF0020FDF7D5
:105008003DFF0120FDF73AFF0020FDF737FFC720DD
:10501800FDF710FF0020FDF731FF0020FDF72EFF00
:105028000020FDF72BFF0020FDF728FFC820FDF723
:1050380001FF0020FDF722FF0020FDF71FFF0020E1
:10504800FDF71CFF0020FDF719FFC920FDF7F2FE50
:105058000020FDF713FF0020FDF710FF0020FDF7EB
:105068000DFF0020FDF70AFF0020FDF707FF0020D5
:10507800FDF704FF0020FDF701FF0020FDF7FEFE0D
:105088000020FDF7FBFE0020FDF7F8FE0020FDF7ED
:10509800F5FE0020FDF7F2FE0020FDF7EFFE0020F0
:1050A800FDF7ECFE0020FDF7E9FE0020FDF7E6FE27
:1050B800E020FDF7BFFE1620FDF7E0FE0020FDF71B
:1050C800DDFE1C20FDF7DAFE0020FDF7D7FE2120CB
:1050D800FDF7D4FE0020FDF7D1FE3620FDF7CEFE09
:1050E8000020FDF7CBFE4620FDF7C8FE0020FDF7A7
:1050F800C5FE5220FDF7C2FE0020FDF7BFFE64206A
:10510800FDF7BCFE0020FDF7B9FE7A20FDF7B6FEDC
:105118000020FDF7B3FE8B20FDF7B0FE0020FDF761
:10512800ADFE9920FDF7AAFE0020FDF7A7FEA820F6
:10513800FDF7A4FE0020FDF7A1FEB920FDF79EFEB5
:105148000020FDF79BFEC420FDF798FE0020FDF728
:1051580095FECA20FDF792FE0020FDF78FFED220B3
:10516800FDF78CFE0020FDF789FED920FDF786FEAD
:105178000020FDF783FEE020FDF780FE0020FDF70C
:105188007DFEF320FDF77AFE0020FDF777FEE12093
:10519800FDF750FE1620FDF771FE0020FDF76EFEAC
:1051A8001C20FDF76BFE0020FDF768FE2220FDF7AE
:1051B80065FE0020FDF762FE3620FDF75FFE002049
:1051C800FDF75CFE4520FDF759FE0020FDF756FE71
:1051D8005220FDF753FE0020FDF750FE6420FDF736
:1051E8004DFE0020FDF74AFE7A20FDF747FE00201D
:1051F800FDF744FE8B20FDF741FE0020FDF73EFE43
:105208009920FDF73BFE0020FDF738FEA820FDF7AA
:1052180035FE0020FDF732FEB920FDF72FFE0020F5
:10522800FDF72CFEC420FDF729FE0020FDF726FE21
:10523800CA20FDF723FE0020FDF720FED220FDF74F
:105248001DFE0020FDF71AFED820FDF717FE0020EE
:10525800FDF714FEE020FDF711FE0020FDF70EFE1D
:10526800F320FDF70BFE0020FDF708FEE220FDF716
:10527800E1FD0520FDF702FE0020FDF7FFFD0B20F4
:10528800FDF7FCFD0020FDF7F9FD1B20FDF7F6FDFD
:105298000020FDF7F3FD3420FDF7F0FD0020FDF7B9
:1052A800EDFD4420FDF7EAFD0020FDF7E7FD4F2066
:1052B800FDF7E4FD0020FDF7E1FD6120FDF7DEFDCF
:1052C8000020FDF7DBFD7920FDF7D8FD0020FDF774
:1052D800D5FD8820FDF7D2FD0020FDF7CFFD9720F2
:1052E800FDF7CCFD0020FDF7C9FDA620FDF7C6FDA2
:1052F8000020FDF7C3FDB720FDF7C0FD0020FDF736
:10530800BDFDC220FDF7BAFD0020FDF7B7FDC7209F
:10531800FDF7B4FD0020FDF7B1FDD120FDF7AEFD8E
:105328000020FDF7ABFDD620FDF7A8FD0020FDF716
:10533800A5FDDD20FDF7A2FD0020FDF79FFDF32070
:10534800FDF79CFD0020FDF799FDE320FDF772FDB8
:105358000520FDF793FD0020FDF790FD0A20FDF7DD
:105368008DFD0020FDF78AFD1C20FDF787FD00203C
:10537800FDF784FD3320FDF781FD0020FDF77EFD5C
:105388004420FDF77BFD0020FDF778FD5020FDF758
:1053980075FD0020FDF772FD6220FDF76FFD00200E
:1053A800FDF76CFD7820FDF769FD0020FDF766FD2F
:1053B8008820FDF763FD0020FDF760FD9720FDF7CD
:1053C8005DFD0020FDF75AFDA620FDF757FD0020E2
:1053D800FDF754FDB720FDF751FD0020FDF74EFD08
:1053E800C220FDF74BFD0020FDF748FDC720FDF763
:1053F80045FD0020FDF742FDD120FDF73FFD0020CF
:10540800FDF73CFDD520FDF739FD0020FDF736FD01
:10541800DD20FDF733FD0020FDF730FDF320FDF71B
:105428002DFD0020FDF72AFDE420FDF703FD0120F6
:10543800FDF724FD0020FDF721FD0120FDF71EFDED
:105448000020FDF71BFD0220FDF718FD0020FDF7E9
:1054580015FD2A20FDF712FD0020FDF70FFD3C2069
:10546800FDF70CFD0020FDF709FD4B20FDF706FDBB
:105478000020FDF703FD5D20FDF700FD0020FDF78E
:10548800FDFC7420FDF7FAFC0020FDF7F7FC8420F2
:10549800FDF7F4FC0020FDF7F1FC9320FDF7EEFC8E
:1054A8000020FDF7EBFCA220FDF7E8FC0020FDF74B
:1054B800E5FCB320FDF7E2FC0020FDF7DFFCBE2091
:1054C800FDF7DCFC0020FDF7D9FCC420FDF7D6FC75
:1054D8000020FDF7D3FCCD20FDF7D0FC0020FDF720
:1054E800CDFCD320FDF7CAFC0020FDF7C7FCDD206A
:1054F800FDF7C4FC0020FDF7C1FCF320FDF7BEFC5E
:105508000020FDF7BBFCE520FDF794FC0020FDF72B
:10551800B5FC0020FDF7B2FC0020FDF7AFFC002031
:10552800FDF7ACFC0220FDF7A9FC0020FDF7A6FC66
:105538002920FDF7A3FC0020FDF7A0FC3C20FDF787
:105548009DFC0020FDF79AFC4B20FDF797FC0020FE
:10555800FDF794FC5D20FDF791FC0020FDF78EFC23
:105568007420FDF78BFC0020FDF788FC8420FDF7F4
:1055780085FC0020FDF782FC9320FDF77FFC0020CE
:10558800FDF77CFCA220FDF779FC0020FDF776FCF6
:10559800B320FDF773FC0020FDF770FCBE20FDF77B
:1055A8006DFC0020FDF76AFCC420FDF767FC0020B5
:1055B800FDF764FCCD20FDF761FC0020FDF75EFCE3
:1055C800D320FDF75BFC0020FDF758FCDC20FDF73D
:1055D80055FC0020FDF752FCF320FDF74FFC00209E
:1055E800FDF74CFCE620FDF725FC1120FDF746FCF5
:1055F8000020FDF743FC3420FDF740FC0020FDF7B8
:105608003DFC5620FDF73AFC0020FDF737FC7620DC
:10561800FDF734FC0020FDF731FC7720FDF72EFC68
:105628000020FDF72BFC6620FDF728FC0020FDF785
:1056380025FC8820FDF722FC0020FDF71FFC99209F
:10564800FDF71CFC0020FDF719FCBB20FDF716FC3C
:105658000020FDF713FC9920FDF710FC0020FDF752
:105668000DFC6620FDF70AFC0020FDF707FC55201D
:10567800FDF704FC0020FDF701FC5520FDF7FEFBBB
:105688000020FDF7FBFB4520FDF7F8FB0020FDF7A8
:10569800F5FB4320FDF7F2FB0020FDF7EFFB44206C
:1056A800FDF7ECFB0020FDF7E9FBE720FDF7C2FB67
:1056B8003220FDF7E3FB0020FDF7E0FB5520FDF766
:1056C800DDFB0020FDF7DAFB7620FDF7D7FB002095
:1056D800FDF7D4FB6620FDF7D1FB0020FDF7CEFBDC
:1056E8006720FDF7CBFB0020FDF7C8FB6720FDF71F
:1056F800C5FB0020FDF7C2FB8720FDF7BFFB00209C
:10570800FDF7BCFB9920FDF7B9FB0020FDF7B6FBC0
:10571800BB20FDF7B3FB0020FDF7B0FB9920FDF798
:10572800ADFB0020FDF7AAFB7720FDF7A7FB0020C3
:10573800FDF7A4FB4420FDF7A1FB0020FDF79EFB2D
:105748005620FDF79BFB0020FDF798FB2320FDF773
:1057580095FB0020FDF792FB3320FDF78FFB00201F
:10576800FDF78CFB4520FDF789FB0020FDF786FB44
:10577800E820FDF75FFB0020FDF780FB0020FDF728
:105788007DFB9920FDF77AFB0020FDF777FB87204A
:10579800FDF774FB0020FDF771FB8820FDF76EFB19
:1057A8000020FDF76BFB7720FDF768FB0020FDF775
:1057B80065FB6620FDF762FB0020FDF75FFB882094
:1057C800FDF75CFB0020FDF759FBAA20FDF756FB0F
:1057D8000020FDF753FBBB20FDF750FB0020FDF731
:1057E8004DFB9920FDF74AFB0020FDF747FB66209B
:1057F800FDF744FB0020FDF741FB5520FDF73EFB7C
:105808000020FDF73BFB5520FDF738FB0020FDF796
:1058180035FB4420FDF732FB0020FDF72FFB442029
:10582800FDF72CFB0020FDF729FB5520FDF726FB93
:105838000020FDF723FBE920FDF7FCFAAA20FDF77D
:105848001DFB0020FDF71AFB0020FDF717FB0020C9
:10585800FDF714FB0020FDF7EDFAAA20FDF70EFB7B
:10586800CF20FDF7E7FA0020FDF708FB0020FDF741
:1058780005FB0020FDF702FB0020FDF7FFFA0020E2
:10588800FDF7FCFA0020FDF7F9FA0020FDF7F6FA1B
:105898000020FDF7F3FA0020FDF7F0FA0020FDF7ED
:1058A800EDFA0020FDF7EAFA0020FDF7E7FA0020FC
:1058B800FDF7E4FA0020FDF7E1FA0020FDF7DEFA33
:1058C8000020FDF7DBFA0020FDF7D8FAF020FDF7FD
:1058D800B1FA0020FDF7D2FA5020FDF7CFFA0020E8
:1058E800FDF7CCFA0020FDF7C9FA0020FDF7C6FA4B
:1058F800F320FDF79FFA0020FDF7C0FAF920FDF725
:1059080099FA0620FDF7BAFA1020FDF7B7FA292010
:10591800FDF7B4FA0020FDF7B1FA3A20FDF78AFA4C
:105928005520FDF7ABFA1120FDF784FA642006F044
:105938002FFF2920FDF77EFA3520FDF77BFA00209E
:10594800FDF79CFA5120FDF775FAFF20FDF796FA4E
:105958005320FDF76FFA2C20FDF790FA5520FDF73C
:1059680069FA8220FDF78AFA2C20FDF763FA02F023
:10597800A1BC044B9B8845F21052934240F08287A9
:1059880002E000BF6402002055214FF47040FDF78B
:10599800DDFAAA214FF20100FDF7D8FA52214FF2A1
:1059A8000200FDF7D3FA08214FF20300FDF7CEFA03
:1059B80001214FF20400FDF7C9FA0D214FF43040E0
:1059C800FDF7C4FA0D214BF20100FDF7BFFA0D21D6
:1059D8004BF20200FDF7BAFA34214FF43640FDF7D6
:1059E800B5FA34214BF20160FDF7B0FA34214BF2DD
:1059F8000260FDF7ABFA0D214FF43140FDF7A6FA2E
:105A08000D214BF20110FDF7A1FA0D214BF2021006
:105A1800FDF79CFA34214FF43740FDF797FA34210B
:105A28004BF20170FDF792FA34214BF20270FDF748
:105A38008DFA00214FF43240FDF788FA00214BF22D
:105A48000120FDF783FA00214BF20220FDF77EFAD0
:105A580024214FF43840FDF779FA24214BF6010050
:105A6800FDF774FA24214BF60200FDF76FFA0121C5
:105A78004FF43F40FDF76AFA0F214FF43340FDF72A
:105A880065FA0F214BF20130FDF760FA0F214BF256
:105A98000230FDF75BFA34214FF43940FDF756FA2E
:105AA80034214BF60110FDF751FA34214BF6021060
:105AB800FDF74CFA08214FF43540FDF747FA082165
:105AC8004BF20150FDF742FA08214BF20250FDF764
