:020000040800F2
:1000000000C00020C5A20008FD7A0008FF7A0008A1
:10001000017B0008037B0008057B0008000000004E
:10002000000000000000000000000000077B000846
:10003000097B0008000000000B7B00080D7B000816
:100040000DA300080DA300080DA30008117B0008F4
:100050000DA300080DA300081D7B00080DA30008D8
:100060000DA300080DA300080DA300080DA30008B0
:100070000DA300080DA300080DA300080DA30008A0
:100080000DA300080DA300080DA300080DA3000890
:100090000DA300080DA300080DA30008237B000892
:1000A0000DA300080DA300080DA300080DA3000870
:1000B0000DA30008297B00080DA300080DA300086C
:1000C0000DA300080DA300080DA300080DA3000850
:1000D0000DA30008357B00080DA300080DA3000840
:1000E000557B00080DA300080DA300080DA3000810
:1000F0000DA300080DA300080DA300080DA3000820
:100100000DA300085D7B00080DA300080DA30008E7
:100110000DA300080DA300080DA300080DA30008FF
:100120000DA300080DA300080DA30008697B0008BB
:1001300000000000000000000000000000000000BF
:1001400000000000000000000000000000000000AF
:10015000000000000000000000000000000000009F
:10016000000000000000000000000000000000008F
:10017000000000000000000000000000000000007F
:10018000000000000000000000000000000000006F
:10019000000000000000000000000000000000005F
:1001A000000000000000000000000000000000004F
:1001B000000000000000000000000000000000003F
:1001C000000000000000000000000000000000002F
:1001D000000000000000000000000000000000001F
:0401E0005FF8E0F1F3
:1001E80010B5054C237833B9044B13B10448AFF369
:1001F80000800123237010BD480200200000000089
:100208008C1C010808B5034B1BB103490348AFF325
:10021800008008BD000000004C0200208C1C010872
:10022800034613F8012B002AFBD1181A013870472E
:1002380010F8012B11F8013B012A28BF9A42F7D088
:10024800D01A704781F0004102E000BF83F00043FC
:1002580030B54FEA41044FEA430594EA050F08BF59
:1002680090EA020F1FBF54EA000C55EA020C7FEA1D
:10027800645C7FEA655C00F0E2804FEA5454D4EB9A
:100288005555B8BF6D420CDD2C4480EA020281EA64
:10029800030382EA000083EA010180EA020281EA9C
:1002A8000303362D88BF30BD11F0004F4FEA0131EE
:1002B8004FF4801C4CEA113102D0404261EB4101FD
:1002C80013F0004F4FEA03334CEA133302D0524283
:1002D80063EB430394EA050F00F0A780A4F101043F
:1002E800D5F1200E0DDB02FA0EFC22FA05F2801879
:1002F80041F1000103FA0EF2801843FA05F359415F
:100308000EE0A5F120050EF1200E012A03FA0EFCDD
:1003180028BF4CF0020C43FA05F3C01851EBE37107
:1003280001F0004507D54FF0000EDCF1000C7EEB24
:1003380000006EEB0101B1F5801F1BD3B1F5001F62
:100348000CD349085FEA30004FEA3C0C04F1010481
:100358004FEA445212F5800F80F09A80BCF1004FAA
:1003680008BF5FEA500C50F1000041EB045141EA2C
:10037800050130BD5FEA4C0C404141EB0101013CF5
:1003880028BFB1F5801FE9D291F0000F04BF0146E4
:100398000020B1FA81F308BF2033A3F10B03B3F1B6
:1003A80020020CDA0C3208DD02F1140CC2F10C0246
:1003B80001FA0CF021FA02F10CE002F11402D8BFA4
:1003C800C2F1200C01FA02F120FA0CFCDCBF41EA70
:1003D8000C019040E41AA2BF01EB0451294330BD3F
:1003E8006FEA04041F3C1CDA0C340EDC04F114041C
:1003F800C4F1200220FA04F001FA02F340EA0300F3
:1004080021FA04F345EA030130BDC4F10C04C4F138
:10041800200220FA02F001FA04F340EA0300294618
:1004280030BD21FA04F0294630BD94F0000F83F462
:10043800801306BF81F480110134013D4EE77FEA45
:10044800645C18BF7FEA655C29D094EA050F08BF91
:1004580090EA020F05D054EA000C04BF1946104672
:1004680030BD91EA030F1EBF0021002030BD5FEAB6
:10047800545C05D14000494128BF41F0004130BDDE
:1004880014F580043CBF01F5801130BD01F0004532
:1004980045F0FE4141F470014FF0000030BD7FEAA5
:1004A800645C1ABF194610467FEA655C1CBF0B46A0
:1004B800024650EA013406BF52EA033591EA030FB7
:1004C80041F4002130BD00BF90F0000F04BF0021AF
:1004D800704730B54FF4806404F132044FF00005E2
:1004E8004FF0000150E700BF90F0000F04BF00215B
:1004F800704730B54FF4806404F1320410F00045C1
:1005080048BF40424FF000013EE700BF42004FEABB
:10051800E2014FEA31014FEA02701FBF12F07F4338
:1005280093F07F4F81F06051704732F07F4208BFEF
:10053800704793F07F4F04BF41F40021704730B5F6
:100548004FF4607401F0004521F000411CE700BF42
:1005580050EA010208BF704730B54FF000050AE0C5
:1005680050EA010208BF704730B511F0004502D5C6
:10057800404261EB41014FF4806404F132045FEAC8
:10058800915C3FF4D8AE4FF003025FEADC0C18BF71
:1005980003325FEADC0C18BF033202EBDC02C2F163
:1005A800200300FA03FC20FA02F001FA03FE40EAF5
:1005B8000E0021FA02F11444BDE600BF70B54FF0F9
:1005C800FF0C4CF4E06C1CEA11541DBF1CEA1355D7
:1005D80094EA0C0F95EA0C0F00F0DEF82C4481EA3F
:1005E800030621EA4C5123EA4C5350EA013518BF5F
:1005F80052EA033541F4801143F4801338D0A0FB4C
:1006080002CE4FF00005E1FB02E506F00042E0FBF8
:1006180003E54FF00006E1FB03569CF0000F18BFFE
:100628004EF0010EA4F1FF04B6F5007F64F54074A6
:1006380004D25FEA4E0E6D4146EB060642EAC62139
:1006480041EA55514FEAC52040EA5E504FEACE2EA6
:10065800B4F1FD0C88BFBCF5E06F1ED8BEF1004FA9
:1006680008BF5FEA500E50F1000041EB045170BD25
:1006780006F0004646EA010140EA020081EA030169
:10068800B4EB5C04C2BFD4EB0C0541EA045170BD65
:1006980041F480114FF0000E013C00F3AB8014F1DF
:1006A800360FDEBF002001F0004170BDC4F1000428
:1006B800203C35DA0C341BDC04F11404C4F12005A9
:1006C80000FA05F320FA04F001FA05F240EA020004
:1006D80001F0004221F0004110EBD37021FA04F63A
:1006E80042EB06015EEA430E08BF20EAD37070BDF4
:1006F800C4F10C04C4F1200500FA04F320FA05F053
:1007080001FA04F240EA020001F0004110EBD37054
:1007180041F100015EEA430E08BF20EAD37070BDC4
:10072800C4F1200500FA05F24EEA020E20FA04F39D
:1007380001FA05F243EA020321FA04F001F000414C
:1007480021FA04F220EA020000EBD3705EEA430EBD
:1007580008BF20EAD37070BD94F0000F0FD101F0EC
:100768000046400041EB010111F4801F08BF013C25
:10077800F7D041EA060195F0000F18BF704703F063
:100788000046520043EB030313F4801F08BF013DEA
:10079800F7D043EA0603704794EA0C0F0CEA1355A6
:1007A80018BF95EA0C0F0CD050EA410618BF52EA60
:1007B8004306D1D181EA030101F000414FF0000066
:1007C80070BD50EA410606BF1046194652EA430674
:1007D80019D094EA0C0F02D150EA013613D195EAE8
:1007E8000C0F05D152EA03361CBF104619460AD130
:1007F80081EA030101F0004141F0FE4141F470013A
:100808004FF0000070BD41F0FE4141F4780170BD29
:1008180070B54FF0FF0C4CF4E06C1CEA11541DBF8E
:100828001CEA135594EA0C0F95EA0C0F00F0A7F890
:10083800A4EB050481EA030E52EA03354FEA0131BD
:1008480000F088804FEA03334FF0805545EA1313D0
:1008580043EA12634FEA022245EA111545EA106598
:100868004FEA00260EF000419D4208BF964244F12F
:10087800FD0404F5407402D25B084FEA3202B61A4E
:1008880065EB03055B084FEA32024FF480104FF422
:10089800002CB6EB020E75EB030E22BFB61A754696
:1008A80040EA0C005B084FEA3202B6EB020E75EB29
:1008B800030E22BFB61A754640EA5C005B084FEA91
:1008C8003202B6EB020E75EB030E22BFB61A75465E
:1008D80040EA9C005B084FEA3202B6EB020E75EB69
:1008E800030E22BFB61A754640EADC0055EA060E2A
:1008F80018D04FEA051545EA16754FEA06164FEA6D
:10090800C30343EA52734FEAC2025FEA1C1CC0D118
:1009180011F4801F0BD141EA00014FF000004FF0A5
:10092800004CB6E711F4801F04BF01430020B4F166
:10093800FD0C88BFBCF5E06F3FF6AFAEB5EB030C1E
:1009480004BFB6EB020C5FEA500C50F1000041EB1B
:10095800045170BD0EF0004E4EEA113114EB5C04E8
:10096800C2BFD4EB0C0541EA045170BD41F48011BB
:100978004FF0000E013C90E645EA060E8DE60CEAC3
:10098800135594EA0C0F08BF95EA0C0F3FF43BAFE0
:1009980094EA0C0F0AD150EA01347FF434AF95EA97
:1009A8000C0F7FF425AF104619462CE795EA0C0F7B
:1009B80006D152EA03353FF4FDAE1046194622E748
:1009C80050EA410618BF52EA43067FF4C5AE50EA22
:1009D80041047FF40DAF52EA43057FF4EBAE12E712
:1009E8004FF0FF3C06E000BF4FF0010C02E000BFF3
:1009F8004FF0010C4DF804CD4FEA410C7FEA6C5CD6
:100A08004FEA430C18BF7FEA6C5C1BD001B050EA78
:100A1800410C0CBF52EA430C91EA030F02BF90EA63
:100A2800020F0020704710F1000F91EA030F58BF22
:100A3800994208BF90422CBFD8176FEAE37040F084
:100A4800010070474FEA410C7FEA6C5C02D150EA22
:100A5800013C07D14FEA430C7FEA6C5CD6D152EADD
:100A6800033CD3D05DF8040B704700BF84461046A2
:100A780062468C461946634600E000BF01B5FFF7A1
:100A8800B7FF002848BF10F1000F01BD4DF808ED71
:100A9800FFF7F4FF0CBF012000205DF808FB00BF42
:100AA8004DF808EDFFF7EAFF34BF012000205DF89C
:100AB80008FB00BF4DF808EDFFF7E0FF94BF0120E9
:100AC80000205DF808FB00BF4DF808EDFFF7CEFFEA
:100AD80094BF012000205DF808FB00BF4DF808ED29
:100AE800FFF7C4FF34BF012000205DF808FB00BFFA
:100AF8004FEA410C7FEA6C5C02D150EA013C0AD112
:100B08004FEA430C7FEA6C5C02D152EA033C02D103
:100B18004FF0000070474FF0010070474A0011D2B3
:100B280012F5001211D20DD56FF47873B3EB62523F
:100B38000ED44FEAC12343F0004343EA505323FA4B
:100B480002F070474FF00000704750EA013002D1C0
:100B58004FF0FF3070474FF0000070474FEA4102F6
:100B6800B2F1E04324BFB3F5001CDCF1FE5C0DD903
:100B780001F0004C4FEAC0024CEA5070B2F1004F4D
:100B880040EB830008BF20F00100704711F0804F50
:100B980021D113F13872BCBF01F00040704741F415
:100BA80080114FEA5252C2F11802C2F1200C10FA19
:100BB8000CF320FA02F018BF40F001004FEAC123FD
:100BC8004FEAD32303FA0CFC40EA0C0023FA02F3A1
:100BD8004FEA4303CCE77FEA625307D150EA013377
:100BE8001EBF4FF0FE4040F44000704701F0004047
:100BF80040F0FE4040F40000704700BF80F0004025
:100C080002E000BF81F0004142001FBF5FEA4103DC
:100C180092EA030F7FEA226C7FEA236C6AD04FEADC
:100C28001262D2EB1363C1BFD21841404840414021
:100C3800B8BF5B42192B88BF704710F0004F40F4D3
:100C4800000020F07F4018BF404211F0004F41F4EF
:100C5800000121F07F4118BF494292EA030F3FD0BB
:100C6800A2F1010241FA03FC10EB0C00C3F12003CE
:100C780001FA03F100F0004302D5494260EB40005D
:100C8800B0F5000F13D3B0F1807F06D340084FEAC8
:100C9800310102F10102FE2A51D2B1F1004F40EBBD
:100CA800C25008BF20F0010040EA03007047490025
:100CB80040EB0000013A28BFB0F5000FEDD2B0FAC2
:100CC80080FCACF1080CB2EB0C0200FA0CF0AABFE5
:100CD80000EBC25052421843BCBFD0401843704783
:100CE80092F0000F81F4000106BF80F40000013289
:100CF800013BB5E74FEA41037FEA226C18BF7FEA60
:100D0800236C21D092EA030F04D092F0000F08BFA1
:100D18000846704790EA010F1CBF0020704712F088
:100D28007F4F04D1400028BF40F00040704712F1C7
:100D380000723CBF00F50000704700F0004343F02C
:100D4800FE4040F4000070477FEA226216BF084662
:100D58007FEA23630146420206BF5FEA412390EA25
:100D6800010F40F4800070474FF0000304E000BF1B
:100D780010F0004348BF40425FEA000C08BF7047CC
:100D880043F0964301464FF000001CE050EA010290
:100D980008BF70474FF000030AE000BF50EA0102A5
:100DA80008BF704711F0004302D5404261EB410192
:100DB8005FEA010C02BF84460146002043F0B643B7
:100DC80008BFA3F18053A3F50003BCFA8CF2083ADC
:100DD800A3EBC25310DB01FA02FC634400FA02FCE5
:100DE800C2F12002BCF1004F20FA02F243EB0200EC
:100DF80008BF20F00100704702F1200201FA02FC4E
:100E0800C2F1200250EA4C0021FA02F243EB020040
:100E180008BF20EADC7070474FF0FF0C1CEAD05284
:100E28001EBF1CEAD15392EA0C0F93EA0C0F6FD045
:100E38001A4480EA010C400218BF5FEA41211ED023
:100E48004FF0006343EA501043EA5111A0FB01310F
:100E58000CF00040B1F5000F3EBF490041EAD371E4
:100E68005B0040EA010062F17F02FD2A1DD8B3F160
:100E7800004F40EBC25008BF20F00100704790F0CF
:100E8800000F0CF0004C08BF49024CEA502040EA21
:100E980051207F3AC2BFD2F1FF0340EAC2507047E7
:100EA80040F400004FF00003013A5DDC12F1190F25
:100EB800DCBF00F000407047C2F10002410021FA97
:100EC80002F1C2F1200200FA02FC5FEA310040F1AF
:100ED800000053EA4C0308BF20EADC70704792F028
:100EE800000F00F0004C02BF400010F4000F013A60
:100EF800F9D040EA0C0093F0000F01F0004C02BF5B
:100F0800490011F4000F013BF9D041EA0C018FE7C9
:100F18000CEAD15392EA0C0F18BF93EA0C0F0AD0CF
:100F280030F0004C18BF31F0004CD8D180EA0100F5
:100F380000F00040704790F0000F17BF90F0004F8E
:100F4800084691F0000F91F0004F14D092EA0C0F70
:100F580001D142020FD193EA0C0F03D14B0218BF03
:100F6800084608D180EA010000F0004040F0FE4049
:100F780040F40000704740F0FE4040F440007047E5
:100F88004FF0FF0C1CEAD0521EBF1CEAD15392EA64
:100F98000C0F93EA0C0F69D0A2EB030280EA010C54
:100FA80049024FEA402037D04FF0805343EA1111ED
:100FB80043EA10130CF000408B4238BF5B0042F14B
:100FC8007D024FF4000C8B4224BF5B1A40EA0C00F0
:100FD800B3EB510F24BFA3EB510340EA5C00B3EB22
:100FE800910F24BFA3EB910340EA9C00B3EBD10F10
:100FF80024BFA3EBD10340EADC001B0118BF5FEA62
:101008001C1CE0D1FD2A3FF650AF8B4240EBC2508A
:1010180008BF20F0010070470CF0004C4CEA50204B
:101028007F32C2BFD2F1FF0340EAC250704740F49A
:1010380000004FF00003013A37E792F0000F00F08C
:10104800004C02BF400010F4000F013AF9D040EA0A
:101058000C0093F0000F01F0004C02BF490011F49E
:10106800000F013BF9D041EA0C0195E70CEAD15396
:1010780092EA0C0F08D142027FF47DAF93EA0C0F7D
:101088007FF470AF084676E793EA0C0F04D14B0261
:101098003FF44CAF08466EE730F0004C18BF31F013
:1010A800004CCAD130F000427FF45CAF31F000430D
:1010B8007FF43CAF5FE700BF4FF0FF3C06E000BFA6
:1010C8004FF0010C02E000BF4FF0010C4DF804CDC9
:1010D8004FEA40024FEA41037FEA226C18BF7FEAD9
:1010E800236C11D001B052EA530C18BF90EA010FDB
:1010F80058BFB2EB030088BFC81738BF6FEAE1706A
:1011080018BF40F0010070477FEA226C02D15FEA05
:10111800402C05D17FEA236CE4D15FEA412CE1D071
:101128005DF8040B704700BF844608466146FFE738
:101138000FB5FFF7C9FF002848BF10F1000F0FBD1A
:101148004DF808EDFFF7F4FF0CBF012000205DF813
:1011580008FB00BF4DF808EDFFF7EAFF34BF012098
:1011680000205DF808FB00BF4DF808EDFFF7E0FF31
:1011780094BF012000205DF808FB00BF4DF808ED82
:10118800FFF7D2FF94BF012000205DF808FB00BFE5
:101198004DF808EDFFF7C8FF34BF012000205DF8C7
:1011A80008FB00BF4FEA4002B2F1FE4F0FD34FF0E9
:1011B8009E03B3EB12620DD94FEA002343F00043BC
:1011C80010F0004F23FA02F018BF404270474FF06A
:1011D8000000704712F1610F01D1420205D110F0F1
:1011E800004008BF6FF0004070474FF000007047A4
:1011F80042000ED2B2F1FE4F0BD34FF09E03B3EB79
:10120800126209D44FEA002343F0004323FA02F0A4
:1012180070474FF00000704712F1610F01D1420290
:1012280002D14FF0FF3070474FF00000704700BF09
:101238007BB972B90029BEBF00204FF0004106E01B
:1012480008BF00281CBF6FF000414FF0FF3000F0CE
:10125800DDB9ADF1080C6DE904CE002909DB002BDE
:101268001ADB00F06DF8DDF804E0DDE9022304B0D4
:101278007047404261EB4101002B1BDB00F060F836
:10128800DDF804E0DDE9022304B0404261EB4101EE
:10129800524263EB43037047524263EB430300F04F
:1012A8004FF8DDF804E0DDE9022304B0404261EBC9
:1012B80041017047524263EB430300F041F8DDF807
:1012C80004E0DDE9022304B0524263EB43037047B4
:1012D80038B505460C460022002328462146FFF76C
:1012E800DFFB28B928462146BDE8384000F00AB897
:1012F800284604F1004100F005F8404261EB410145
:1013080038BD00BFD0B500220B4B06460F46FFF78D
:1013180055F9FFF703FC0446FFF7D6F80022074B00
:10132800FFF74CF902460B4630463946FEF78EFF6A
:10133800FFF7F4FB2146D0BD0000F03D0000F0416E
:101348002DE9F047089E0D4604468E46002B4CD1E9
:101358008A42944667D9B2FA82F353B102FA03FC7F
:10136800C3F1200201FA03FE20FA02F242EA0E0E4D
:101378009C404FEA1C47BEFBF7F11FFA8CF507FBB0
:1013880011EE01FB05F0220C42EA0E4290420AD906
:101398001CEB020201F1FF3E80F01981904240F2FD
:1013A800168102396244121AB2FBF7F007FB1022C9
:1013B80000FB05F5A4B244EA0244A5420AD91CEB95
:1013C800040400F1FF3280F00481A54240F201815B
:1013D8006444023840EA01400021641B1EB1DC402D
:1013E8000023C6E90043BDE8F0878B4208D9002EE8
:1013F80000F0EA800021C6E900050846BDE8F0874C
:10140800B3FA83F1002948D1AB4202D3824200F2F9
:10141800F880841A65EB030201209646002EE2D07C
:10142800C6E9004EDFE702B9FFDEB2FA82F3002B0D
:1014380040F08E80881A0121170C1FFA82FEB0FB3B
:10144800F7F507FB1500220C42EA00420EFB05F0F7
:10145800904208D91CEB020205F1FF3802D29042F3
:1014680000F2CC804546121AB2FBF7F007FB1022B7
:101478000EFB00FEA4B244EA0244A64508D91CEBC0
:10148800040400F1FF3202D2A64500F2B4801046EF
:10149800A4EB0E0440EA0540A0E7C1F120078B4009
:1014A80022FA07FC4CEA030C25FA07FA4FEA1C4912
:1014B800BAFBF9F88D4020FA07F309FB18AA1FFABE
:1014C8008CFE2B4300FA01F508FB0EF01C0C44EAD5
:1014D8000A44A04202FA01F20BD91CEB040408F1F9
:1014E800FF3A80F08680A04240F28380A8F102088B
:1014F8006444241A98B2B4FBF9F309FB134403FBC0
:101508000EFE40EA0444A64508D91CEB040403F186
:10151800FF306AD2A64568D9023B644443EA0840D2
:10152800A0FB0293A4EB0E049C42C8469E4654D3EB
:1015380051D0002E67D0B5EB080364EB0E04CB4006
:1015480004FA07F71F43CC40C6E9007400214AE7B4
:1015580002FA03FCC3F12000C1409D4024FA00F0C8
:101568004FEA1C472843B1FBF7F507FB15111FFA93
:101578008CFE020C42EA014205FB0EF1914204FA8C
:1015880003F408D91CEB020205F1FF382FD291426F
:101598002DD9023D6244521AB2FBF7F107FB112222
:1015A80080B240EA024001FB0EF2824208D91CEBED
:1015B800000001F1FF3816D2824214D90239604482
:1015C800801A41EA05413AE7314630460BE7714651
:1015D800E9E61046FEE64D45ABD2B9EB020863EBEF
:1015E8000C0E0138A5E74146EAE7034696E745466B
:1015F800D1E7D0467DE76444023849E7023D6244BA
:1016080031E708460AE73146EDE600BF704700BFFC
:1016180005F05CBC10B5044605F07EFC230A5B00AF
:10162800603B03F0FE0005F023FD05F0B7FCE0B2D7
:1016380005F01EFD05F0B2FC05F06EFCA12005F0DA
:1016480017FD05F0ABFC002005F040FD044605F051
:1016580083FC204610BD38B504460D4605F05CFCF9
:10166800230A5B00603B03F0FE0005F001FD05F076
:1016780095FCE0B205F0FCFC05F090FC284605F06E
:10168800F7FC05F08BFC05F067FCBDE838400A2044
:1016980000F0B2BB70B50D468418A4B2A04200D1C8
:1016A80070BD461CFFF7B6FFB6B205F8010B304611
:1016B800F4E770B504460E468518ADB2AC4200D1C9
:1016C80070BD204616F8011B0134FFF7C4FFA4B211
:1016D800F4E72DE9F04105460C4614200BF0ECFF29
:1016E80055EA040306460FD080460746012D74F1DB
:1016F8000002A7EB06030CDAF21806EB6303984521
:1017080013D100233B7001E0302303803046BDE84D
:10171800F081284621460A220023FFF789FD30324E
:1017280005460C4607F8012BE0E798F8001012F878
:10173800010D08F8010B1170E1E72DE9F04F0024C5
:101748000E46A3B06022214605460AA809940DF06A
:1017580039F93046FEF764FDA04607462346BB42EA
:101768000EDB04F188030DEB0304002309A804F839
:10177800643C0DF0F1F8284609A900F0B9F833E007
:10178800F25CF1182D2A03D0A2F12A00012807D80B
:1017980004F18801694401F8642C01340133DEE75F
:1017A800303A012AFAD80DF1100C0022604611F8DF
:1017B80001EB02EB0309AEF1300ABAF1010F17D9B8
:1017C80002F188030DEB030202F8788C03A90222C8
:1017D8000DF034F8039B93F800A0BAF1000F0BD07A
:1017E80004232B6000236B60284623B0BDE8F08FEC
:1017F80001320CF801EBDAE7C117FFF76AFF22465E
:10180800834609AB2344584601930AEB020400922D
:10181800FEF706FDDDE90023504502D809F1FF3344
:10182800BCE71BF80A100AF1010A03F8011BEAE7F2
:10183800D0F894312DE97043002B044654DDD0F8DC
:101848009031002B50DBC35C282B2AD006F022F9FC
:101858000546204606F01EF90646204606F002F91F
:101868002F280AD829283DD9A0F12A03052B39D8D1
:10187800DFE803F0192E3833381E5E2832D12846A7
:10188800FEF744FE804689463046FEF73FFE424654
:101898004B460FF015F9FFF761F90146204606F0AF
:1018A800E9F800200DE031462846FFF7B5FAF4E7DD
:1018B80000212846FFF744FC28B10C480DF04CF8ED
:1018C8000120BDE8708329463046FFF759FBE4E75D
:1018D80031462846FFF798F9DFE729463046FFF7F3
:1018E80091F9DAE70020D8E70320EAE75A1D010852
:1018F8002DE9F04F814685B000200F4606F09AF892
:10190800282104464FF0000A06F09EF83846FEF7F4
:1019180087FC504580460BD2204606F0BBF80025D0
:10192800C9F804004846C9F8005005B0BDE8F08F72
:1019380040F2BE8017F80A10A1F13003092B68D9CC
:101948002F2900F2A680272940F2A58028390729E7
:1019580000F2A180DFE801F0A2ACCACE9FD09FCCF4
:10196800514630460093FFF757FA009B0646184643
:10197800FFF7FEF901463046FFF746F97249FFF7CF
:1019880041F9064601357B5DA3F13002092A45D9A4
:101998002E2B00F0B5805E2B42D1454540D2D4F8BD
:1019A8009031E35C5E2B3BD07B195B78283B012BA5
:1019B80036D90020654ADFF890B101357B5DA3F187
:1019C8003001092901D8A84544D8FEF79FFD824671
:1019D80030468B46FEF79AFD02460B46CDE90023BA
:1019E8000FF03CF802460B4650465946FEF7E6FD16
:1019F80053A3D3E90023FFF771F800287ED1DDE96E
:101A0800000152465B460FF05BF8FFF7A7F8064661
:101A180006E055460026DFF834A1B4E745459FD3D4
:101A28003146204606F026F8D4F8903105F1FF3A01
:101A3800E35C2A2B01D02F2B20D17B5D5E2B1DD0A0
:101A48002046FFF7F5FE0546C0B120460BF03CFEE8
:101A5800002065E7114600920393FFF7DDF9039B29
:101A680082461846FFF784F901465046FFF7CCF83E
:101A78005946FFF7C7F80135009A9FE7D4F8903127
:101A8800E35C5E2B07D12046FFF7D2FE054610B176
:101A9800DBE75E2903D00AF1010A37E7282120464F
:101AA80005F0D2FFF7E7FFF7C3FE05460028CCD1C3
:101AB800D4F890312046E35C282BF4D105F0D2FF0E
:101AC800D4F89031E35C5E2B05D12046FFF7B0FED9
:101AD80005460028B9D1D4F89031E35C2A2BDAD135
:101AE80007EB0A035B785E2BD5D0CCE72A21D6E733
:101AF8002F21D4E72B21D2E72D21D0E70425A7E712
:101B080045458DD2DFF848B00135785D3038C2B22E
:101B1800092A3FF638AFA8457FF635AFFFF728F911
:101B28005946FFF779F901463046FFF76DF85146F7
:101B380006465846FFF724FA01358346E5E700BF15
:101B4800EF39FAFE422E36400000404200002041A4
:101B5800CDCCCC3D052000F035B900000E4B10B5BA
:101B68009A6986B042F010029A619B69012403F0D9
:101B780010030193019B0923CDE90234032307488D
:101B880002A90593049408F0CFFE054BC3F88041E1
:101B9800C3F88C4106B010BD00100240001001408F
:101BA8000000224238B50D4B00251A680C4C22F46F
:101BB80070421A601A681E2042F440521A600123CB
:101BC800C4F88C31C4F8803100F0FCF8C4F88C51AA
:101BD800FFF7C0FFC4F8805138BD00BF00100140B6
:101BE8000000224238B501250B4B0C4C1A681E2008
:101BF80022F470421A601A6842F440521A60C4F81B
:101C0800805100F0DFF80023C4F88C31FFF7A2FF01
:101C1800C4F88C5138BD00BF0010014000002242BA
:101C280038B5114B114D1A68FB2422F470421A6022
:101C38001A6842F400421A600123C5F88C31C5F8CD
:101C48008031FFF787FFD5F80C0110B9C5F880017E
:101C580006E0013C14F0FF0403D1FFF7C3FF0120A5
:101C680038BDFFF777FFEEE7001001400000224281
:101C780038B500250C4C0D4BC4F880511A6822F475
:101C880070421A601A6842F440521A60FFF762FF05
:101C9800C4F88C51FFF75EFF0123C4F88031FFF7C9
:101CA80059FFC4F8805138BD00002242001001409D
:101CB80070B5002501260C4C0C4BC4F880511A68ED
:101CC80022F470421A601A6842F440521A60FFF710
:101CD80041FFC4F88C61FFF73DFFC4F88061FFF74E
:101CE80039FFC4F8805170BD000022420010014045
:101CF8002DE9F0410027124B124E1A68044622F4CF
:101D080070421A601A68082542F440521A60C6F8F0
:101D18008071FFF71FFF4FF00108E309C6F88C3107
:101D2800C6F88081FFF716FF013DC6F88071FFF7FE
:101D380011FF640015F0FF05E4B2EED1BDE8F081B3
:101D480000100140000022422DE9F8430024164B00
:101D580006461A681E2022F470421A601A6808257E
:101D680042F400421A6000F02DF8A1464FF0010835
:101D78000E4FC7F88091FFF7EDFEC7F88081D7F8BE
:101D88000C316400E4B20BB10134E4B2013D15F04A
:101D9800FF05EED126B9FFF78BFF2046BDE8F88393
:101DA800FFF766FFF9E700BF00100140000022427C
:101DB80010B50446042008F065FB014B1C6010BDFB
:101DC800640200200B4B70B51B684FF0E0245843A9
:101DD80000236569A169A2699142FCD095BFAE1A3A
:101DE8005B189B199B1A98BF5B18834200D370BD80
:101DF8001146F0E76402002038B505460024A542E4
:101E080000D838BD4FF47A70FFF7DCFF0134F6E7ED
:101E18000A4B07B55A693B2042F002025A61002278
:101E28005B69114603F002030193019B08F0D8FA9D
:101E38003B2003B05DF804EB08F002BB0010024041
:101E480070B505460C461646FFF7ACFE7020FFF746
:101E58004FFFFFF7E5FEE8B2FFF74AFFFFF7E0FEA6
:101E68002644B44201D1002508E014F8010BFFF71D
:101E78003FFFFFF7D5FE05460028F2D0FFF7B2FE78
:101E8800284670BDF8B5044615460E46FFF78AFE8B
:101E98007020FFF72DFFFFF7C3FEE0B2FFF728FF22
:101EA800FFF7BEFEFFF77EFE7120FFF721FF00243B
:101EB800FFF7B6FE6F1EAC4203D1BDE8F840FFF74E
:101EC80091BE381B18BF0120FFF73EFF3055013483
:101ED800F1E700002F4BF0B59A6987B042F0100285
:101EE8009A619B69012403F010030193019B4FF44D
:101EF8000053CDE902340323002502262648274F44
:101F080002A90593049408F00FFD02A92248CDE91F
:101F1800026508F009FDFFF721FE1420C7F8B45147
:101F2800FFF76AFF3220C7F8B441FFF765FF224682
:101F3800694628468DF80050FFF782FF2246694619
:101F4800A420FFF77DFF16232246694680208DF8DE
:101F58000030FFF775FF0C232246694688208DF86C
:101F68000030FFF76DFF32466946A120FFF78AFF70
:101F78009DF80030302B0BD19DF80130032B07D191
:101F880043F2030106480CF081FC284607B0F0BD77
:101F98002046FBE7001002400010014000002242EA
:101FA800731D01082DE9FF410A21484E8DF80700ED
:101FB80033780133DBB2B3FBF1F201FB1232D2B258
:101FC800337002B3092B1ED900209DF80730DB06B9
:101FD80011D13F4B93F9201093F820200029A9BF75
:101FE8004FF6FF7102F07F0222F01F029981A8BF0D
:101FF800D98283F820203378F02B84BF0A233370EA
:1020080004B0BDE8F081012202200DF10701FFF7BD
:1020180039FF9DF8072002F00F02531E042BD3D876
:10202800FF239340DB430027294D63F03F03DFF88C
:10203800A48085F8203005F10C0495F820303B4148
:10204800DA0724D5042238F8170003A9FFF71AFF86
:1020580095F830309DF80C1013F0010F9DF80D2005
:102068009DF80E309DF80F0021D04FEA012C0CF49A
:10207800706C624462811A0202F470620244228027
:1020880001F0F003802B1EBF0023638123800137FA
:10209800052F04F10204D0D1AB89EA8A13439BB21D
:1020A8000BB98DF807300023012033708DE74FEA14
:1020B800012C1B02C2F5F0720CF4706C03F470630F
:1020C800A2EB0C02184422806081D9E76802002044
:1020D80030000020801D010810222DE9F04188B051
:1020E8000DEB020000210CF06DFC3B4B01249A69BA
:1020F800022742F020029A619A69384D02F02002C4
:102108000092009A9A69284642F004029A619A69F4
:102118004FF4807102F004020192019A9A69002634
:1021280042F010029A619A69DFF8B48002F0100256
:102138000292029A9A6942F008029A619B69002207
:1021480003F008030393039B08F0DCFC254B2846A7
:1021580004A9CDE90443069708F0E6FB08232846BE
:1021680004A9CDE90436069608F0DEFB202304A96D
:102178001D48CDE90438069408F0D6FB4FF4807367
:10218800284604A9CDE90434CDE9066708F0CCFB5C
:102198004FF40043284604A9CDE90438069408F012
:1021A800C3FB32462146062008F01AF9062008F03B
:1021B80047F922462146172008F012F9172008F09F
:1021C8003FF93A462146282008F00AF9282008F065
:1021D80037F908B0BDE8F08100100240000801405E
:1021E80000002110000011100010014070B50546D4
:1021F8000C461646FFF7D6FC2820FFF779FDFFF7B7
:102208000FFD280AFFF774FDFFF70AFDE8B2FFF794
:102218006FFDFFF705FD2644B44201D1002508E013
:1022280014F8010BFFF764FDFFF7FAFC05460028D8
:10223800F2D0FFF7D7FC284670BD0000002307B591
:102248001A460E498DF8050011F8010B0132D2B279
:102258000344B82ADBB2F7D15B42084948F2470089
:102268008DF80430FFF7C2FF022201A948F2FF00EF
:10227800FFF7BCFF002003B05DF804FBAC1D0108AC
:10228800F8B5044615460E46FFF78CFC2820FFF7E4
:102298002FFDFFF7C5FC200AFFF72AFDFFF7C0FC5A
:1022A800E0B2FFF725FDFFF7BBFCFFF77BFC292019
:1022B800FFF71EFD0024FFF7B3FC6F1EAC4203D1ED
:1022C800BDE8F840FFF78EBC381B18BF0120FFF7A8
:1022D8003BFD30550134F1E7374BF0B59A6989B0C9
:1022E80042F010029A619B69012403F010030193E4
:1022F800019B4FF40053CDE9043403230026022543
:102308002E482F4F04A90793069408F00DFB04A943
:102318002A48CDE9045608F007FBFFF71FFC0A20FE
:10232800C7F8B461FFF768FD0A20C7F8B441FFF7A2
:1023380063FD04A92148CDE90565049508F0F4FA80
:102348006420FFF759FD042248F2401002A9FFF764
:1023580097FF02A91B488DF80C600CF097FA1A49F0
:1023680002A8FDF765FF18BB224602A948F2400003
:102378008DF80850FFF73AFF02A9224648F24700B5
:10238800FFF77EFF9DF808105F2905D80F480CF06D
:102398007DFA2046FFF752FF0A20FFF72DFD0023A4
:1023A800012248F2400002A98DF80830FFF71EFF0D
:1023B800002009B0F0BD00BF00100240001001402D
:1023C800000022428A1D0108961D01089B1D010874
:1023D8002DE9FF470A21564D8DF807002B78013368
:1023E800DBB2B3FBF1F201FB1232D2B22B7012B3A3
:1023F800092B20D900209DF8073003F08F03802B8C
:1024080011D14C4B93F9201093F820200029A9BF33
:102418004FF6FF7102F07F0222F01F029981A8BFD8
:10242800D98283F820202B78F02B84BF0A232B70C5
:1024380004B0BDE8F087012248F24E100DF1070103
:10244800FFF71EFF9DF907309DF80780002B08F065
:102458000F040BDA052C09D80023012248F24E108C
:102468000DF10B018DF80B30FFF7C0FEE2B2013C15
:10247800042CBFD8FF2393408DF80B30DB43002793
:102488002C4C63F03F0394F8209084F82030A38903
:10249800DFF8A4A0A382E38A04F10C06E38394F88E
:1024A80020303B41DB0720D504223AF8170003A966
:1024B800FFF7E6FE94F830309DF80F1013F0010F87
:1024C8009DF80E309DF80D009DF80C2018BFC3F53F
:1024D800487302EB002217BFA3EB012303EB012390
:1024E8007281338004BF328073810137052F06F172
:1024F8000206D4D1114BA1891A88914203D8E28AE5
:102508005B889A4206D918F00E0F06D0E389A3819A
:10251800238BE38200232B7008E0A38A84F82090A1
:10252800A381E38BE38280238DF80730012062E7E3
:102538006902002030000020641E0108C202002049
:1025480008B50B480B4A0C4BC0E9002300234FF495
:102558008042C0E90233C0E90423C0E906330362BC
:1025680008F0E2FA18B1BDE8084004F0ADBC08BDB7
:102578006C02002000540040A086010010B50446FB
:1025880086B01022002102A80CF01CFA2268114B18
:102598009A421CD1104CC022A369104843F008038A
:1025A800A361A36902A903F008030093009B122307
:1025B800CDE902230323059308F0B6F9E36943F450
:1025C8000013E361E36903F400130193019B06B070
:1025D80010BD00BF0054004000100240000C014034
:1025E8004FF48072054B06495A614FF400725A61E4
:1025F800C8608021596119611A6170470010014053
:10260800000C014038B54FF08833134C134D23604C
:1026180063600023E3604FF480732B614FF4007311
:102628006B6140236B610E4B9A8848F689139A4276
:1026380002D1012007F0B0FE4023A0682B614FF4BF
:1026480000732B614FF03333236063604FF6FF73E1
:1026580080B2E36038BD00BF000C014000100140AB
:10266800C202002010B50C46FFF7BAFF4FF4807283
:10267800054B06491A614FF400725A61CC608021FB
:10268800596119611A6110BD00100140000C014028
:1026980008B5FFF7A5FFBDE80840FFF7B3BF000086
:1026A800014B1889FFF79CBFC20200204FF48072CB
:1026B800054B06491A614FF400725A61C8608021BF
:1026C800596119611A61704700100140000C0140FE
:1026D80049F241322DE9F84FDFF83C920546B9F846
:1026E80004300E469342B9F80A00B9F80C8003D0BA
:1026F80045F2103293423AD14FF400774FF08009F7
:102708004FF4807B854CDFF818A2FFF769FF2B0A8E
:10271800EDB2C4F810B040466761CAF80C30C4F88E
:102728001490C4F810902761C4F810B06761CAF813
:102738000C50C4F81490C4F810902761FFF750FFAC
:10274800330AC4F810B06761CAF80C30C4F81490A2
:10275800C4F810902761F6B2C4F810B06761CAF8DF
:102768000C60C4F81490C4F81090276169E046F62C
:10277800040293420AD199F80630012B01BFB9F837
:10278800003003F1FF335B1B9DB2B5E741F66312DE
:10279800934272D1B9F8007099F806A05F4C013FD6
:1027A800BAF1000F4FD1FFF71BFF4FF400738022DF
:1027B8004FF480705A497F1BBFB220613D0A6361A4
:1027C800C1F80CA062612261236120616361C1F8D4
:1027D8000CA062612261236120616361FFB2CD6058
:1027E800626122612361206163614046CF6062615A
:1027F80022612361FFF7F4FE4FF480754FF40073F4
:102808004748320A25616361C2608022B9F8021024
:10281800F6B2013962612261236125616361C66094
:102828000E12C9B262612261236125616361C660CB
:1028380062612261236125616361C1606261226115
:102848002361BDE8F88FFFF7CBFE4FF400734FF418
:10285800807033492A0A20616361CA608022EDB220
:1028680062612261236120616361CD6062613D1212
:102878002261236120616361B0E745F210529342FF
:1028880037D14FF400774FF080094FF4807B234C09
:10289800DFF88CA0FFF7A4FE2B0A0130C4F810B0B3
:1028A80080B26761CAF80C30C4F81490C4F810906C
:1028B8002761FFF795FE4046EDB2C4F810B0676196
:1028C800CAF80C50C4F81490C4F810902761FFF7A8
:1028D80087FE330A0130C4F810B080B26761CAF8C5
:1028E8000C30C4F81490C4F810902761FFF778FEF4
:1028F80031E799F80630012B01BFB9F8003003F130
:10290800FF335B1B9DB22946FFF7ACFE31464046BC
:10291800BDE8F84FFFF7A6BEC20200200010014034
:10292800000C01402DE9F74FA84D41F66313AA7931
:10293800AE88012A25D146F60402964201D09E426D
:1029480022D10138C0B2062896BFA14B00271F5CD0
:1029580045F210539E4240F025814FF458503946B5
:10296800FFF780FE41F663118E422B886A88994CE6
:1029780000F0C080B9062ED593422ED22A806B80F3
:102988002BE02AB99E4203D107289CBF924B185CC2
:1029980049F241339E42D4D046F604039E42D0D039
:1029A80045F210339E42CCD045F210539E42C8D017
:1029B80041F663139E42C4D0072896BF874B002177
:1029C800195C032041F4805103B0BDE8F04FFFF7D4
:1029D80049BE1F46F7E09342D0D845F210539E42B5
:1029E800B5F800906F88B5F80AA0B5F80C8040F0EB
:1029F800818009F1FF334FF480764FF080094FF062
:102A0800000B01937B1E4FF40077754D50460093E1
:102A1800FFF7E6FD0AF10100266180B26761C5F89B
:102A28000CB0C4F81490C4F810902761FFF7D8FDD3
:102A38000AF10200266180B26761C5F80CB0C4F8DB
:102A48001490C4F810902761FFF7CAFD019B0AF1A2
:102A580003001912266180B26761E960C4F8149016
:102A6800C4F810902761FFF7BBFD9DF8041026619C
:102A780040466761E960C4F81490C4F81090276173
:102A8800FFF7AEFD08F10100266180B26761C5F865
:102A98000CB0C4F81490C4F810902761FFF7A0FD9B
:102AA80008F10200266180B26761C5F80CB0C4F86D
:102AB8001490C4F810902761FFF792FD009B08F16D
:102AC80003001912266180B26761E960C4F81490A6
:102AD800C4F810902761FFF783FD9DF80030266148
:102AE8006761EB60C4F81490C4F81090276103B0D4
:102AF800BDE8F08F4FF4007680274FF480794FF0CF
:102B0800000A6889FFF76CFD2B88DFF8D480013B49
:102B18001A12DBB2C4F81090A8896661C8F80CA034
:102B2800676127612661C4F810906661C8F80CA037
:102B3800676127612661C4F810906661C8F80C20A7
:102B4800676127612661C4F810906661C8F80C3087
:102B5800676127612661FFF743FD6B88C4F8109011
:102B6800013B1A12DBB26661C8F80CA067612761E5
:102B78002661C4F810906661C8F80CA067612761E7
:102B88002661C4F810906661C8F80C206761276157
:102B98002661C4F810906661C8F80C306761276137
:102BA8002661A4E745F210339E420CD041F6631328
:102BB8009E4208D046F60402964247F008037FF486
:102BC80008AF47F00A073620C9E600BFC202002056
:102BD800761E0108001001406E1E01087D1E0108C6
:102BE800000C014008B5FFF773FDFFF759FD4FF4DE
:102BF8008072074B07491A614FF40072088806492A
:102C08005A61C8608021596119611A6108BD00BF05
:102C180000100140C0020020000C01402DE9F74FD0
:102C2800019249F24132DFF890820546B8F8043043
:102C38000E469342B8F80A00B8F80CB09F4C03D07F
:102C480045F21032934236D1FFF7CAFC4FF40077B1
:102C58004FF0800A4FF48072DFF86492290AEDB2CF
:102C6800226158466761C9F80C10C4F814A0C4F86A
:102C780010A0276122616761C9F80C50C4F814A03C
:102C8800C4F810A02761FFF7ABFC4FF48072310A3B
:102C9800F6B222616761C9F80C10C4F814A0C4F830
:102CA80010A0276122616761C9F80C60C4F814A0FC
:102CB800C4F810A0B1E045F21052934257D1FFF783
:102CC8008FFC4FF4007980274FF48073DFF8F0A170
:102CD8002A0A0130236180B2C4F81490CAF80C2083
:102CE80067612761C4F81090FFF77AFC4FF480738E
:102CF8005846EDB22361C4F81490CAF80C504FF44A
:102D0800807567612761C4F81090FFF769FC310A84
:102D18000130256180B2C4F81490F6B2CAF80C10DC
:102D280067612761C4F81090FFF75AFC2561C4F861
:102D38001490CAF80C6067612761C4F810904FF4CA
:102D480000734FF48070B8F808205D4960616361D2
:102D5800CA608022626122612361206101986361F7
:102D6800C86062612261236103B0BDE8F08F41F65B
:102D780063118B4298F8062051D122B9B8F8003077
:102D8800013B5B1B9DB2FFF72BFC4FF400778023C0
:102D98004FF48072DFF828A1290AEDB22261584663
:102DA8006761CAF80C10636123612761226167615A
:102DB800CAF80C5063612361276122616761CAF810
:102DC8000C1063612361276122616761CAF80C50A6
:102DD800636123612761FFF703FC80234FF480724E
:102DE800310AF6B222616761CAF80C106361236187
:102DF800276122616761CAF80C60636123612761FA
:102E080022616761CAF80C1063612361276122613E
:102E18006761CAF80C606361236127618FE746F632
:102E280004018B4238D1012A08BFB8F800304FF4AA
:102E3800007704BF03F1FF335B1B4FF0800A08BF24
:102E48009DB2FFF7CDFB4FF480721D4B290AEDB2FE
:102E5800226158466761D960C4F814A0C4F810A06C
:102E6800276122616761DD60C4F814A0C4F810A06E
:102E78002761FFF7B5FB4FF48072114B310AF6B2A8
:102E880022616761D960C4F814A0C4F810A0276152
:102E980022616761DE6009E7012A01BFB8F80030E6
:102EA80003F1FF335B1B9DB22946FFF7DBFB31467D
:102EB8005846FFF7D7FB42E7C20200200010014046
:102EC800000C0140000000002DE9F8438146BE20B7
:102ED800FFF786FB4FF4007580264FF480780523B2
:102EE8001F4C204FC4F8108048466561FB6066613E
:102EF80026612561C4F810806561FDF7F5FA16A30F
:102F0800D3E90023FDF75AFBFDF708FE0123F8601B
:102F1800666126612561C4F810806561FB60FF2346
:102F2800666126612561C4F810806561FB60002335
:102F3800666126612561C4F810806561FB60666181
:102F480026612561C4F810806561FB6066612661B1
:102F58002561BDE8F88300BF66666666666604405C
:102F680000100140000C01404E4B4FF4A0719A88AC
:102F780000284AD1598049F241319871F0208A429B
:102F8800188007D046F604018A4203D045F2103172
:102F98008A4213D12C2119812A2159812B21998107
:102FA80046F604018A4203D045F210318A4229D1FB
:102FB8004FF4A0721A804FF4F07211E045F21051EC
:102FC8008A420FD14FF430521A814FF428525A8155
:102FD8004FF42C529A814FF4F0721A804FF44872D1
:102FE8005A800FE041F663118A4205D12C221A81DA
:102FF8002B225A812A22EDE722221A8120225A8185
:1030080021229A810020FFF78DBC1980F021598078
:1030180049F2413101208A42987103D045F21031BA
:103028008A420FD12C2119812A2159812B2199817A
:1030380046F604018A4230D14FF4F0721A804FF4F8
:10304800A072CDE746F604018A4206D12C221A81E5
:103058002B225A812A229A81EEE745F210518A42A0
:103068000BD14FF430521A814FF428525A814FF441
:103078002C529A814FF448729CE741F663118A42B8
:1030880005D12C221A812A225A812B22F1E72222E9
:103098001A8121225A812022B3E745F210318A424F
:1030A800CAD0AFE7C20200202DE9F8431C4C0646FF
:1030B80023886588A2885D4346F604039A424FF048
:1030C800000121D194F80690B9F1010F1CD12A27EB
:1030D8004FF02B080846A1716781A4F80C80FFF710
:1030E800F7FA84F80690A4F80A80A781FFF7D8FABF
:1030F8004FF4807400224FF400718020094B0A4F6E
:10310800AA4205D1BDE8F8830846FFF7E1FAEDE7E2
:103118001C6101325961FE60586118611961EFE75D
:10312800C202002000100140000C01404F4B2DE965
:10313800F04F9A6987B042F008029A619A690124AF
:1031480002F008020092009A9A69494842F0100277
:103158009A619B6902A903F010030193019B4FF444
:10316800F863CDE9023403230494059307F0DCFBEC
:103178004FF6FF7302A93F48029307F0D5FB3220B0
:1031880007F00AF921460020FFF76CFA322007F011
:1031980003F90020FFF77CFAA0F1FF03364C9BB23D
:1031A800B3F57F4FA08002D2B0F5134F7ED1D32064
:1031B800FFF716FAFFF726FAFFF724FAFFF722FAC5
:1031C8000002A080FFF71EFAA388184349F2413392
:1031D80080B29842A08069D0BF20FFF701FAFFF7BC
:1031E80011FAFFF70FFAFFF70DFAFFF70BFA0002D3
:1031F800A080FFF707FAA388184346F6040380B2B5
:103208009842A08052D0D420FFF7EAF9FFF7FAF9E4
:10321800FFF7F8F9FFF7F6F90002A080FFF7F2F9D7
:10322800A388184345F2103380B29842A0803DD05D
:103238004FF45A40FFF7D4F9FFF7E4F94FF45B4035
:10324800FFF7CEF9FFF7DEF90002A0804FF45C40EB
:10325800FFF7C6F9FFF7D6F9A388184380B2B0F58F
:10326800004F45F2105309D1A3801FE0001002401F
:1032780000100140000C0140C20200209842A080CA
:1032880014D0A120FFF7ACF9FFF7BCF9A080FFF735
:10329800B9F90002A080FFF7B5F9A388184345F2F1
:1032A800617380B2984200F01381A08049F24132E4
:1032B800A388934240F00F81CF20FFF791F90020B7
:1032C800FFF7F4F9C120FFF7F1F93020FFF7EEF925
:1032D800ED20FFF785F96420FFF7E8F90320FFF7F1
:1032E800E5F91220FFF7E2F98120FFF7DFF9E8207E
:1032F800FFF776F98520FFF7D9F91020FFF7D6F9FF
:103308007A20FFF7D3F9CB20FFF76AF93920FFF7C6
:10331800CDF92C20FFF7CAF90020FFF7C7F93420B0
:10332800FFF7C4F90220FFF7C1F9F720FFF758F9B2
:103338002020FFF7BBF9EA20FFF752F90020FFF73A
:10334800B5F9FFF7B3F9C020FFF74AF91B20FFF7DB
:10335800ADF9C120FFF744F90120FFF7A7F9C5200F
:10336800FFF73EF93020FFF7A1F9FFF79FF9C720D3
:10337800FFF736F9B720FFF799F93620FFF730F94C
:103388004820FFF793F93A20FFF72AF95520FFF76D
:103398008DF9B120FFF724F90020FFF787F91A20EB
:1033A800FFF784F9B620FFF71BF90A20FFF77EF92B
:1033B800A220FFF77BF9F220FFF712F90020FFF7B0
:1033C80075F92620FFF70CF90120FFF76FF9E020C7
:1033D800FFF706F90F20FFF769F92A20FFF766F9CA
:1033E8002820FFF763F90820FFF760F90E20FFF7A0
:1033F8005DF90820FFF75AF95420FFF757F9A9207B
:10340800FFF754F94320FFF751F90A20FFF74EF967
:103418000F20FFF74BF90020FFF748F9FFF746F9AF
:10342800FFF744F9FFF742F9E120FFF7D9F8002048
:10343800FFF73CF91520FFF739F91720FFF736F9A0
:103448000720FFF733F91120FFF730F90620FFF7BF
:103458002DF92B20FFF72AF95620FFF727F93C20F2
:10346800FFF724F90520FFF721F91020FFF71EF9CF
:103478000F20FFF71BF93F20FFF718F9FFF716F9A0
:103488000F20FFF713F92B20FFF7AAF80020FFF70A
:103498000DF9FFF70BF90120FFF708F93F20FFF7B7
:1034A80005F92A20FFF79CF80020FFF7FFF8FFF73F
:1034B800FDF8FFF7FBF8EF20FFF7F8F81120FFF70A
:1034C8008FF8782006F068FF2920FFF789F81EE0BA
:1034D80041F66313C8E646F60402934201F0EB8016
:1034E80000F2588744F23552934202F09D871FD864
:1034F80041F66312934203F0428044F23152934200
:1035080002F0DD8641F20552934202F00684002063
:10351800FFF72AFD0122054B4FF6FF70C3F8A821DB
:10352800FFF7C2FD07B0BDE8F08F00BF00002242E0
:1035380045F20842934202F04D8345F210529342FD
:1035480001F05B8145F210329342E0D1ED20FFF7A4
:1035580047F80120FFF7AAF8FE20FFF7A7F8EE20AA
:10356800FFF73EF8DE20FFF7A1F82120FFF79EF8CD
:10357800F120FFF735F80120FFF798F8DF20FFF773
:103588002FF81020FFF792F8C420FFF729F88F20B2
:10359800FFF78CF8C620FFF723F80020FFF786F81E
:1035A800E220FFF783F8FFF781F8FFF77FF8BF20E5
:1035B800FFF716F8AA20FFF779F8B020FFF710F800
:1035C8000D20FFF773F80020FFF770F80D20FFF7C4
:1035D8006DF80020FFF76AF81120FFF767F8002060
:1035E800FFF764F81920FFF761F80020FFF75EF88D
:1035F8002120FFF75BF80020FFF758F82D20FFF790
:1036080055F80020FFF752F83D20FFF74FF800204B
:10361800FFF74CF85D20FFF749F80020FFF746F860
:103628005D20FFF743F80020FFF740F8B120FEF7D0
:10363800D7FF8020FFF73AF80020FFF737F88B20F4
:10364800FFF734F80020FFF731F89620FFF72EF83F
:103658000020FFF72BF8B220FEF7C2FF0020FFF78B
:1036680025F8FFF723F80220FFF720F80020FFF7DE
:103678001DF80320FFF71AF80020FFF717F8B3200A
:10368800FEF7AEFF0020FFF711F8FFF70FF8FFF77E
:103698000DF8FFF70BF8FFF709F8FFF707F8FFF742
:1036A80005F8FFF703F8FFF701F8FEF7FFFFFEF74D
:1036B800FDFFFEF7FBFFFEF7F9FFFEF7F7FFFEF74A
:1036C800F5FFFEF7F3FFFEF7F1FFFEF7EFFFFEF75A
:1036D800EDFFFEF7EBFFFEF7E9FFFEF7E7FFFEF76A
:1036E800E5FFFEF7E3FFB420FEF77AFF8B20FEF735
:1036F800DDFF0020FEF7DAFF9620FEF7D7FF002057
:10370800FEF7D4FFA120FEF7D1FF0020FEF7CEFF81
:10371800B520FEF765FF0220FEF7C8FF0020FEF780
:10372800C5FF0320FEF7C2FF0020FEF7BFFF0420FD
:10373800FEF7BCFF0020FEF7B9FFB620FEF750FFEA
:103748000020FEF7B3FFFEF7B1FFB720FEF748FFF2
:103758000020FEF7ABFFFEF7A9FF3F20FEF7A6FF0C
:103768000020FEF7A3FF5E20FEF7A0FF0020FEF773
:103778009DFF6420FEF79AFF0020FEF797FF8C203C
:10378800FEF794FF0020FEF791FFAC20FEF78EFFB6
:103798000020FEF78BFFDC20FEF788FF0020FEF7F5
:1037A80085FF7020FEF782FF0020FEF77FFF902044
:1037B800FEF77CFF0020FEF779FFEB20FEF776FF8F
:1037C8000020FEF773FFDC20FEF770FF0020FEF7F5
:1037D8006DFFB820FEF704FF0020FEF767FFFEF735
:1037E80065FFFEF763FFFEF761FFFEF75FFFFEF779
:1037F8005DFFFEF75BFFFEF759FFBA20FEF7F0FE0C
:103808002420FEF753FF0020FEF750FFFEF74EFF7F
:10381800FEF74CFFC120FEF7E3FE2020FEF746FF2F
:103828000020FEF743FF5420FEF740FF0020FEF77C
:103838003DFFFF20FEF73AFF0020FEF737FFC220CA
:10384800FEF7CEFE0A20FEF731FF0020FEF72EFF1E
:103858000420FEF72BFF0020FEF728FFC320FEF709
:10386800BFFE3C20FEF722FF0020FEF71FFF3A2094
:10387800FEF71CFF0020FEF719FF3920FEF716FFA0
:103888000020FEF713FF3720FEF710FF0020FEF799
:103898000DFF3C20FEF70AFF0020FEF707FF362049
:1038A800FEF704FF0020FEF701FF3220FEF7FEFEC0
:1038B8000020FEF7FBFE2F20FEF7F8FE0020FEF7A3
:1038C800F5FE2C20FEF7F2FE0020FEF7EFFE292081
:1038D800FEF7ECFE0020FEF7E9FE2620FEF7E6FEE6
:1038E8000020FEF7E3FE2420FEF7E0FE0020FEF7AE
:1038F800DDFE2420FEF7DAFE0020FEF7D7FE2320A7
:10390800FEF7D4FE0020FEF7D1FE3C20FEF7CEFEE7
:103918000020FEF7CBFE3620FEF7C8FE0020FEF79B
:10392800C5FE3220FEF7C2FE0020FEF7BFFE2F20A4
:10393800FEF7BCFE0020FEF7B9FE2C20FEF7B6FE0F
:103948000020FEF7B3FE2920FEF7B0FE0020FEF7A8
:10395800ADFE2620FEF7AAFE0020FEF7A7FE2420D3
:10396800FEF7A4FE0020FEF7A1FE2420FEF79EFE2F
:103978000020FEF79BFE2320FEF798FE0020FEF7AE
:1039880095FEC420FEF72CFE6220FEF78FFE002075
:10399800FEF78CFE0520FEF789FE0020FEF786FE66
:1039A8008420FEF783FE0020FEF780FEF020FEF75D
:1039B8007DFE0020FEF77AFE1820FEF777FE002035
:1039C800FEF774FEA420FEF771FE0020FEF76EFEDF
:1039D8001820FEF76BFE0020FEF768FE5020FEF769
:1039E80065FE0020FEF762FE0C20FEF75FFE002059
:1039F800FEF75CFE1720FEF759FE0020FEF756FE84
:103A08009520FEF753FE0020FEF750FEF320FEF748
:103A18004DFE0020FEF74AFEE620FEF747FE002096
:103A2800FEF744FEC520FEF7DBFD3220FEF73EFE22
:103A38000020FEF73BFE4420FEF738FE0020FEF78C
:103A480035FE6520FEF732FE0020FEF72FFE7620B9
:103A5800FEF72CFE0020FEF729FE8820FEF726FE42
:103A68000020FEF723FEC620FEF7BAFD2020FEF751
:103A78001DFE0020FEF71AFE1720FEF717FE002095
:103A8800FEF714FE0120FEF711FE0020FEF70EFEE1
:103A9800C720FEF7A5FD0020FEF708FEFEF706FE8C
:103AA800FEF704FEFEF702FEC820FEF799FD00208F
:103AB800FEF7FCFDFEF7FAFDFEF7F8FDFEF7F6FD52
:103AC800C920FEF78DFD0020FEF7F0FDFEF7EEFDA4
:103AD800FEF7ECFDFEF7EAFDFEF7E8FDFEF7E6FD72
:103AE800FEF7E4FDFEF7E2FDFEF7E0FDFEF7DEFD82
:103AF800FEF7DCFDFEF7DAFDFEF7D8FDFEF7D6FD92
:103B0800FEF7D4FDFEF7D2FDE020FEF769FD162092
:103B1800FEF7CCFD0020FEF7C9FD1C20FEF7C6FD10
:103B28000020FEF7C3FD2120FEF7C0FD0020FEF7B0
:103B3800BDFD3620FEF7BAFD0020FEF7B7FD462092
:103B4800FEF7B4FD0020FEF7B1FD5220FEF7AEFDF2
:103B58000020FEF7ABFD6420FEF7A8FD0020FEF76D
:103B6800A5FD7A20FEF7A2FD0020FEF79FFD8B2021
:103B7800FEF79CFD0020FEF799FD9920FEF796FDC3
:103B88000020FEF793FDA820FEF790FD0020FEF729
:103B98008DFDB920FEF78AFD0020FEF787FDC420C1
:103BA800FEF784FD0020FEF781FDCA20FEF77EFDAA
:103BB8000020FEF77BFDD220FEF778FD0020FEF7FF
:103BC80075FDD920FEF772FD0020FEF76FFDE0209D
:103BD800FEF76CFD0020FEF769FDF320FEF766FD99
:103BE8000020FEF763FDE120FEF7FAFC1620FEF741
:103BF8005DFD0020FEF75AFD1C20FEF757FD002052
:103C0800FEF754FD2220FEF751FD0020FEF74EFD81
:103C18003620FEF74BFD0020FEF748FD4520FEF755
:103C280045FD0020FEF742FD5220FEF73FFD002033
:103C3800FEF73CFD6420FEF739FD0020FEF736FD57
:103C48007A20FEF733FD0020FEF730FD8B20FEF7CB
:103C58002DFD0020FEF72AFD9920FEF727FD002004
:103C6800FEF724FDA820FEF721FD0020FEF71EFD2B
:103C7800B920FEF71BFD0020FEF718FDC420FEF753
:103C880015FD0020FEF712FDCA20FEF70FFD0020EB
:103C9800FEF70CFDD220FEF709FD0020FEF706FD19
:103CA800D820FEF703FD0020FEF700FDE020FEF718
:103CB800FDFC0020FEF7FAFCF320FEF7F7FC0020DD
:103CC800FEF7F4FCE220FEF78BFC0520FEF7EEFC85
:103CD8000020FEF7EBFC0B20FEF7E8FC0020FEF7C7
:103CE800E5FC1B20FEF7E2FC0020FEF7DFFC342099
:103CF800FEF7DCFC0020FEF7D9FC4420FEF7D6FCDA
:103D08000020FEF7D3FC4F20FEF7D0FC0020FEF782
:103D1800CDFC6120FEF7CAFC0020FEF7C7FC792025
:103D2800FEF7C4FC0020FEF7C1FC8820FEF7BEFCAD
:103D38000020FEF7BBFC9720FEF7B8FC0020FEF73A
:103D4800B5FCA620FEF7B2FC0020FEF7AFFCB720BA
:103D5800FEF7ACFC0020FEF7A9FCC220FEF7A6FC8B
:103D68000020FEF7A3FCC720FEF7A0FC0020FEF70A
:103D78009DFCD120FEF79AFC0020FEF797FCD62088
:103D8800FEF794FC0020FEF791FCDD20FEF78EFC88
:103D98000020FEF78BFCF320FEF788FC0020FEF7DE
:103DA80085FCE320FEF71CFC0520FEF77FFC0020C5
:103DB800FEF77CFC0A20FEF779FC0020FEF776FC73
:103DC8001C20FEF773FC0020FEF770FC3320FEF782
:103DD8006DFC0020FEF76AFC4420FEF767FC00201B
:103DE800FEF764FC5020FEF761FC0020FEF75EFC45
:103DF8006220FEF75BFC0020FEF758FC7820FEF7F7
:103E080055FC0020FEF752FC8820FEF74FFC0020EE
:103E1800FEF74CFC9720FEF749FC0020FEF746FC15
:103E2800A620FEF743FC0020FEF740FCB720FEF773
:103E38003DFC0020FEF73AFCC220FEF737FC0020CC
:103E4800FEF734FCC720FEF731FC0020FEF72EFCFD
:103E5800D120FEF72BFC0020FEF728FCD520FEF72A
:103E680025FC0020FEF722FCDD20FEF71FFC0020C9
:103E7800FEF71CFCF320FEF719FC0020FEF716FCE9
:103E8800E420FEF7ADFB0120FEF710FC0020FEF752
:103E98000DFC0120FEF70AFC0020FEF707FC0220BB
:103EA800FEF704FC0020FEF701FC2A20FEF7FEFBCB
:103EB8000020FEF7FBFB3C20FEF7F8FB0020FEF796
:103EC800F5FB4B20FEF7F2FB0020FEF7EFFB5D2031
:103ED800FEF7ECFB0020FEF7E9FB7420FEF7E6FB9B
:103EE8000020FEF7E3FB8420FEF7E0FB0020FEF74E
:103EF800DDFB9320FEF7DAFB0020FEF7D7FBA220BC
:103F0800FEF7D4FB0020FEF7D1FBB320FEF7CEFB73
:103F18000020FEF7CBFBBE20FEF7C8FB0020FEF713
:103F2800C5FBC420FEF7C2FB0020FEF7BFFBCD2077
:103F3800FEF7BCFB0020FEF7B9FBD320FEF7B6FB6B
:103F48000020FEF7B3FBDD20FEF7B0FB0020FEF7F4
:103F5800ADFBF320FEF7AAFB0020FEF7A7FBE52048
:103F6800FEF73EFB0020FEF7A1FBFEF79FFBFEF7E6
:103F78009DFBFEF79BFB0220FEF798FB0020FEF757
:103F880095FB2920FEF792FB0020FEF78FFB3C20D3
:103F9800FEF78CFB0020FEF789FB4B20FEF786FB23
:103FA8000020FEF783FB5D20FEF780FB0020FEF774
:103FB8007DFB7420FEF77AFB0020FEF777FB842058
:103FC800FEF774FB0020FEF771FB9320FEF76EFBF3
:103FD8000020FEF76BFBA220FEF768FB0020FEF72F
:103FE80065FBB320FEF762FB0020FEF75FFBBE20F7
:103FF800FEF75CFB0020FEF759FBC420FEF756FBDA
:104008000020FEF753FBCD20FEF750FB0020FEF703
:104018004DFBD320FEF74AFB0020FEF747FBDC20D0
:10402800FEF744FB0020FEF741FBF320FEF73EFBC2
:104038000020FEF73BFBE620FEF7D2FA1120FEF740
:1040480035FB0020FEF732FB3420FEF72FFB002063
:10405800FEF72CFB5620FEF729FB0020FEF726FB77
:104068007620FEF723FB0020FEF720FB7720FEF7E3
:104078001DFB0020FEF71AFB6620FEF717FB002049
:10408800FEF714FB8820FEF711FB0020FEF70EFB5D
:104098009920FEF70BFB0020FEF708FBBB20FEF77C
:1040A80005FB0020FEF702FB9920FEF7FFFA00202F
:1040B800FEF7FCFA6620FEF7F9FA0020FEF7F6FA9A
:1040C8005520FEF7F3FA0020FEF7F0FA5520FEF728
:1040D800EDFA0020FEF7EAFA4520FEF7E7FA00209D
:1040E800FEF7E4FA4320FEF7E1FA0020FEF7DEFAD5
:1040F8004420FEF7DBFA0020FEF7D8FAE720FEF7A7
:104108006FFA3220FEF7D2FA0020FEF7CFFA5520D8
:10411800FEF7CCFA0020FEF7C9FA7620FEF7C6FAB9
:104128000020FEF7C3FA6620FEF7C0FA0020FEF76B
:10413800BDFA6720FEF7BAFA0020FEF7B7FA672043
:10414800FEF7B4FA0020FEF7B1FA8720FEF7AEFAC0
:104158000020FEF7ABFA9920FEF7A8FA0020FEF738
:10416800A5FABB20FEF7A2FA0020FEF79FFA9920D5
:10417800FEF79CFA0020FEF799FA7720FEF796FAE8
:104188000020FEF793FA4420FEF790FA0020FEF78D
:104198008DFA5620FEF78AFA0020FEF787FA2320C8
:1041A800FEF784FA0020FEF781FA3320FEF77EFA44
:1041B8000020FEF77BFA4520FEF778FA0020FEF78C
:1041C80075FAE820FEF70CFA0020FEF76FFAFEF702
:1041D8006DFA9920FEF76AFA0020FEF767FA872041
:1041E800FEF764FA0020FEF761FA8820FEF75EFA0F
:1041F8000020FEF75BFA7720FEF758FA0020FEF75A
:1042080055FA6620FEF752FA0020FEF74FFA88208A
:10421800FEF74CFA0020FEF749FAAA20FEF746FA04
:104228000020FEF743FABB20FEF740FA0020FEF715
:104238003DFA9920FEF73AFA0020FEF737FA662091
:10424800FEF734FA0020FEF731FA5520FEF72EFA71
:104258000020FEF72BFA5520FEF728FA0020FEF77B
:1042680025FA4420FEF722FA0020FEF71FFA442020
:10427800FEF71CFA0020FEF719FA5520FEF716FA89
:104288000020FEF713FAE920FEF7AAF9AA20FEF7A4
:104298000DFA0020FEF70AFAFEF708FAFEF706FA0A
:1042A800FEF79EF9AA20FEF701FACF20FEF798F94B
:1042B8000020FEF7FBF9FEF7F9F9FEF7F7F9FEF72C
:1042C800F5F9FEF7F3F9FEF7F1F9FEF7EFF9FEF766
:1042D800EDF9FEF7EBF9FEF7E9F9FEF7E7F9FEF776
:1042E800E5F9FEF7E3F9FEF7E1F9FEF7DFF9FEF786
:1042F800DDF9FEF7DBF9F020FEF772F90020FEF792
:10430800D5F95020FEF7D2F90020FEF7CFF9FEF7D5
:10431800CDF9FEF7CBF9F320FEF762F90020FEF79E
:10432800C5F9F920FEF75CF90620FEF7BFF9102061
:10433800FEF7BCF92920FEF7B9F90020FEF7B6F917
:104348003A20FEF74DF95520FEF7B0F91120FEF797
:1043580047F9642006F020F82920FEF741F93520B6
:10436800FEF73EF90020FEF7A1F95120FEF738F9D3
:10437800FF20FEF79BF95320FEF732F92C20FEF7B9
:1043880095F95520FEF72CF98220FEF78FF92C209D
:10439800FFF79BB849F22832934201F07E8200F27F
:1043A800C98049F22032934201F0678349F22532ED
:1043B800934201F09E8148F6891293427FF4A7A8A0
:1043C80001210020FEF74EF94AF6A4010320FEF76A
:1043D80049F900210C20FEF745F940F60C010D20A3
:1043E800FEF740F94FF42C510E20FEF73BF9B021AF
:1043F8001E20FEF737F942F63F310120FEF732F969
:104408004FF4C0610220FEF72DF900211020FEF7BD
:1044180029F946F278011120FEF724F90021052038
:10442800FEF720F900210620FEF71CF94EF61C7154
:104438001620FEF717F903211720FEF713F940F2AB
:1044480033210720FEF70EF900210B20FEF70AF9A9
:1044580000210F20FEF706F900214120FEF702F99E
:1044680000214220FEF7FEF800214820FEF7FAF866
:1044780040F23F114920FEF7F5F800214A20FEF7E7
:10448800F1F800214B20FEF7EDF84FF46F4144207E
:10449800FEF7E8F800214520FEF7E4F840F23F1166
:1044A8004620FEF7DFF840F207713020FEF7DAF811
:1044B8004FF401713120FEF7D5F84FF40171322025
:1044C800FEF7D0F840F202513320FEF7CBF840F265
:1044D80007513420FEF7C6F84FF401713520FEF776
:1044E800C1F84FF401713620FEF7BCF840F20251D2
:1044F8003720FEF7B7F840F202313A20FEF7B2F85B
:1045080040F202313B20FEF7ADF800212320FEF7F0
:10451800A9F800212420FEF7A5F84FF40041252032
:10452800FEF7A0F800214F20FEF79CF800214E204E
:1045380001F04CBB4BF20552934201F0FF844CF260
:104548000552934201F0F38549F2313293427EF4E9
:10455800DEAF41F21401E720FEF784F84FF48071D2
:104568000120FEF77FF84FF400710220FEF77AF879
:1045780041F238010320FEF775F840F202210820C5
:10458800FEF770F800210920FEF76CF800210A20D8
:10459800FEF768F800210C20FEF764F800210D20D2
:1045A800FEF760F800210F20FEF75CF800211020CC
:1045B800FEF758F807211120FEF754F800211220C1
:1045C800FEF750F800211320FEF74CF8C82005F03C
:1045D800E3FE41F290611020FEF744F840F22721F3
:1045E8001120FEF73FF8322005F0D6FE0C211220EC
:1045F800FEF738F8322005F0CFFE4FF400611320A3
:10460800FEF730F811212920FEF72CF80B212B207A
:10461800FEF728F8322005F0BFFE00212020FEF723
:1046280021F840F23F112120FEF71CF8002130202C
:10463800FEF718F84FF483713120FEF713F80021C4
:104648003220FEF70FF84FF401713520FEF70AF813
:1046580041F20A613620FEF705F840F2077137206B
:10466800FEF700F84FF483713820FDF7FBFF40F2A6
:1046780007713920FDF7F6FF40F202413C20FDF7B3
:10468800F1FF40F60F413D20FDF7ECFF00215020DF
:10469800FDF7E8FFEF215120FDF7E4FF002152204C
:1046A800FDF7E0FF40F23F115320FDF7DBFF4FF429
:1046B8001C5101F0B3B91120FDF792FF142005F049
:1046C8006BFED020FDF78CFF0720FDF7EFFF42209F
:1046D800FDF7ECFF1D20FDF7E9FFD120FDF780FF76
:1046E8000020FDF7E3FF1A20FDF7E0FF0920FDF7A2
:1046F800DDFFD220FDF774FF0120FDF7D7FF222050
:10470800FDF7D4FFC020FDF76BFF1020FDF7CEFFAB
:104718003B20FDF7CBFF0020FDF7C8FF0220FDF787
:10472800C5FF1120FDF7C2FFC520FDF759FF032083
:10473800FDF7BCFFC820FDF753FF0020FDF7B6FFCB
:104748002520FDF7B3FF2120FDF7B0FF0520FDF779
:10475800ADFF0020FDF7AAFF0A20FDF7A7FF65209F
:10476800FDF7A4FF2520FDF7A1FF7720FDF79EFFA9
:104778005020FDF79BFF0F20FDF798FF0020FDF765
:1047880095FFF820FDF72CFF0120FDF78FFFFE2095
:10479800FDF726FF0020FDF789FF0220FDF786FFC1
:1047A8002020FDF71DFF3620FDF71AFF0820FDF732
:1047B8007DFF3A20FDF714FF5520FDF777FF2B20EA
:1047C800FDF70EFF0020FDF771FFFDF76FFF0120D9
:1047D800FDF76CFF3F20FDF769FF2A20FDF700FF7A
:1047E8000020FDF763FFFDF761FF0120FDF75EFF85
:1047F800DF20FDF75BFFFEF764BE55214FF47040E4
:10480800FDF730FFAA214FF20100FDF72BFF5221DF
:104818004FF20200FDF726FF08214FF20300FDF7D3
:1048280021FF01214FF20400FDF71CFF0D214FF479
:104838003040FDF717FF0D214BF20100FDF712FF85
:104848000D214BF20200FDF70DFF34214FF43640E5
:10485800FDF708FF34214BF20160FDF703FF342117
:104868004BF20260FDF7FEFE0D214FF43140FDF7DB
:10487800F9FE0D214BF20110FDF7F4FE0D214BF26C
:104888000210FDF7EFFE34214FF43740FDF7EAFE42
:1048980034214BF20170FDF7E5FE34214BF2027032
:1048A800FDF7E0FE00214FF43240FDF7DBFE00216A
:1048B8004BF20120FDF7D6FE00214BF20220FDF756
:1048C800D1FE24214FF43840FDF7CCFE24214BF6CD
:1048D8000100FDF7C7FE24214BF60200FDF7C2FEDA
:1048E80001214FF43F40FDF7BDFE0F214FF4334047
:1048F800FDF7B8FE0F214BF20130FDF7B3FE0F2193
:104908004BF20230FDF7AEFE34214FF43940FDF78B
:10491800A9FE34214BF60110FDF7A4FE34214BF615
:104928000210FDF79FFE08214FF43540FDF79AFE6F
:1049380008214BF20150FDF795FE08214BF2025079
:10494800FDF790FE03214FF44240FDF78BFE242132
:104958004FF43A40FDF786FE24214BF60120FDF77F
:1049680081FE24214BF60220FDF77CFE00214FF446
:104978003C40FDF777FE78214BF60140FDF772FECB
:1049880000214BF60240FDF76DFE00214FF43D403B
:10499800FDF768FE78214BF60150FDF763FE002114
:1049A8004BF60250FDF75EFE00214FF43E40FDF746
:1049B80059FE64214BF60160FDF754FE00214FF4C7
:1049C8005140FDF74FFE33214DF20110FDF74AFE2D
:1049D80000214DF20210FDF745FE34214DF203107F
:1049E800FDF740FE00214DF20410FDF73BFE3A2191
:1049F8004DF20510FDF736FE00214DF20610FDF7C9
:104A080031FE4A214DF20710FDF72CFE00214DF230
:104A18000810FDF727FE5C214DF20910FDF722FE74
:104A280000214DF20A10FDF71DFE81214DF20B10F9
:104A3800FDF718FE00214DF20C10FDF713FEA6211C
:104A48004DF20D10FDF70EFE00214DF20E10FDF790
:104A580009FEE5214DF20F10FDF704FE01214DF28C
:104A68001010FDF7FFFD13214DF21110FDF7FAFDAF
:104A780001214DF21210FDF7F5FD54214DF21310EE
:104A8800FDF7F0FD01214DF21410FDF7EBFD822139
:104A98004DF21510FDF7E6FD01214DF21610FDF758
:104AA800E1FDCA214DF21710FDF7DCFD02214DF2A0
:104AB8001810FDF7D7FD00214DF21910FDF7D2FDB2
:104AC80002214DF21A10FDF7CDFD01214DF21B1008
:104AD800FDF7C8FD02214DF21C10FDF7C3FD34217E
:104AE8004DF21D10FDF7BEFD02214DF21E10FDF71F
:104AF800B9FD67214DF21F10FDF7B4FD02214DF2FB
:104B08002010FDF7AFFD84214DF22110FDF7AAFD1D
:104B180002214DF22210FDF7A5FDA4214DF223102C
:104B2800FDF7A0FD02214DF22410FDF79BFDB721F2
:104B38004DF22510FDF796FD02214DF22610FDF7E6
:104B480091FDCF214DF22710FDF78CFD02214DF28A
:104B58002810FDF787FDDE214DF22910FDF782FDB3
:104B680002214DF22A10FDF77DFDF2214DF22B10A6
:104B7800FDF778FD02214DF22C10FDF773FDFE21A3
:104B88004DF22D10FDF76EFD03214DF22E10FDF7AD
:104B980069FD10214DF22F10FDF764FD03214DF240
:104BA8003010FDF75FFD33214DF23110FDF75AFD4E
:104BB80003214DF23210FDF755FD6D214DF23310F2
:104BC800FDF750FD00214FF45240FDF74BFD332116
:104BD8004DF20120FDF746FD00214DF20220FDF7C0
:104BE80041FD34214DF20320FDF73CFD00214DF23B
:104BF8000420FDF737FD3A214DF20520FDF732FD7F
:104C080000214DF20620FDF72DFD4A214DF2072027
:104C1800FDF728FD00214DF20820FDF723FD5C215A
:104C28004DF20920FDF71EFD00214DF20A20FDF787
:104C380019FD81214DF20B20FDF714FD00214DF2E5
:104C48000C20FDF70FFDA6214DF20D20FDF70AFD02
:104C580000214DF20E20FDF705FDE5214DF20F2054
:104C6800FDF700FD01214DF21020FDF7FBFC13219B
:104C78004DF21120FDF7F6FC01214DF21220FDF74F
:104C8800F1FC54214DF21320FDF7ECFC01214DF20B
:104C98001420FDF7E7FC82214DF21520FDF7E2FC18
:104CA80001214DF21620FDF7DDFCCA214DF2172037
:104CB800FDF7D8FC02214DF21820FDF7D3FC0021A6
:104CC8004DF21920FDF7CEFC02214DF21A20FDF716
:104CD800C9FC01214DF21B20FDF7C4FC02214DF255
:104CE8001C20FDF7BFFC34214DF21D20FDF7BAFC56
:104CF80002214DF21E20FDF7B5FC67214DF21F2061
:104D0800FDF7B0FC02214DF22020FDF7ABFC842119
:104D18004DF22120FDF7A6FC02214DF22220FDF7DD
:104D2800A1FCA4214DF22320FDF79CFC02214DF2A9
:104D38002420FDF797FCB7214DF22520FDF792FCC2
:104D480002214DF22620FDF78DFCCF214DF22720C0
:104D5800FDF788FC02214DF22820FDF783FCDE21B7
:104D68004DF22920FDF77EFC02214DF22A20FDF7A5
:104D780079FCF2214DF22B20FDF774FC02214DF253
:104D88002C20FDF76FFCFE214DF22D20FDF76AFC6B
:104D980003214DF22E20FDF765FC10214DF22F2046
:104DA800FDF760FC03214DF23020FDF75BFC332159
:104DB8004DF23120FDF756FC03214DF23220FDF76C
:104DC80051FC6D214DF23320FDF74CFC00214FF4CE
:104DD8005340FDF747FC33214DF20130FDF742FC0B
:104DE80000214DF20230FDF73DFC34214DF2033035
:104DF800FDF738FC00214DF20430FDF733FC3A2171
:104E08004DF20530FDF72EFC00214DF20630FDF77E
:104E180029FC4A214DF20730FDF724FC00214DF210
:104E28000830FDF71FFC5C214DF20930FDF71AFC34
:104E380000214DF20A30FDF715FC81214DF20B30AF
:104E4800FDF710FC00214DF20C30FDF70BFCA621FC
:104E58004DF20D30FDF706FC00214DF20E30FDF746
:104E680001FCE5214DF20F30FDF7FCFB01214DF26D
:104E78001030FDF7F7FB13214DF21130FDF7F2FB6F
:104E880001214DF21230FDF7EDFB54214DF21330A4
:104E9800FDF7E8FB01214DF21430FDF7E3FB822119
:104EA8004DF21530FDF7DEFB01214DF21630FDF70E
:104EB800D9FBCA214DF21730FDF7D4FB02214DF280
:104EC8001830FDF7CFFB00214DF21930FDF7CAFB72
:104ED80002214DF21A30FDF7C5FB01214DF21B30BE
:104EE800FDF7C0FB02214DF21C30FDF7BBFB34215E
:104EF8004DF21D30FDF7B6FB02214DF21E30FDF7D5
:104F0800B1FB67214DF21F30FDF7ACFB02214DF2DA
:104F18002030FDF7A7FB84214DF22130FDF7A2FBDD
:104F280002214DF22230FDF79DFBA4214DF22330E2
:104F3800FDF798FB02214DF22430FDF793FBB721D2
:104F48004DF22530FDF78EFB02214DF22630FDF79C
:104F580089FBCF214DF22730FDF784FB02214DF26A
:104F68002830FDF77FFBDE214DF22930FDF77AFB73
:104F780002214DF22A30FDF775FBF2214DF22B305C
:104F8800FDF770FB02214DF22C30FDF76BFBFE2183
:104F98004DF22D30FDF766FB03214DF22E30FDF763
:104FA80061FB10214DF22F30FDF75CFB03214DF220
:104FB8003030FDF757FB33214DF23130FDF752FB0E
:104FC80003214DF23230FDF74DFB6D214DF23330A8
:104FD800FDF748FB00214FF45440FDF743FB332114
:104FE8004DF20140FDF73EFB00214DF20240FDF776
:104FF80039FB34214DF20340FDF734FB00214DF21B
:105008000440FDF72FFB3A214DF20540FDF72AFB3E
:1050180000214DF20640FDF725FB4A214DF20740DD
:10502800FDF720FB00214DF20840FDF71BFB5C213A
:105038004DF20940FDF716FB00214DF20A40FDF73D
:1050480011FB81214DF20B40FDF70CFB00214DF2C5
:105058000C40FDF707FBA6214DF20D40FDF702FBC2
:1050680000214DF20E40FDF7FDFAE5214DF20F400B
:10507800FDF7F8FA01214DF21040FDF7F3FA13217C
:105088004DF21140FDF7EEFA01214DF21240FDF705
:10509800E9FA54214DF21340FDF7E4FA01214DF2EB
:1050A8001440FDF7DFFA82214DF21540FDF7DAFAD8
:1050B80001214DF21640FDF7D5FACA214DF21740ED
:1050C800FDF7D0FA02214DF21840FDF7CBFA002186
:1050D8004DF21940FDF7C6FA02214DF21A40FDF7CC
:1050E800C1FA01214DF21B40FDF7BCFA02214DF235
:1050F8001C40FDF7B7FA34214DF21D40FDF7B2FA16
:1051080002214DF21E40FDF7ADFA67214DF21F4016
:10511800FDF7A8FA02214DF22040FDF7A3FA8421F9
:105128004DF22140FDF79EFA02214DF22240FDF793
:1051380099FAA4214DF22340FDF794FA02214DF289
:105148002440FDF78FFAB7214DF22540FDF78AFA82
:1051580002214DF22640FDF785FACF214DF2274076
:10516800FDF780FA02214DF22840FDF77BFADE2197
:105178004DF22940FDF776FA02214DF22A40FDF75B
:1051880071FAF2214DF22B40FDF76CFA02214DF233
:105198002C40FDF767FAFE214DF22D40FDF762FA2B
:1051A80003214DF22E40FDF75DFA10214DF22F40FC
:1051B800FDF758FA03214DF23040FDF753FA332139
:1051C8004DF23140FDF74EFA03214DF23240FDF722
:1051D80049FA6D214DF23340FDF744FA00214FF4AE
:1051E8005540FDF73FFA33214DF20150FDF73AFAE9
:1051F80000214DF20250FDF735FA34214DF20350EB
:10520800FDF730FA00214DF20450FDF72BFA3A2150
:105218004DF20550FDF726FA00214DF20650FDF734
:1052280021FA4A214DF20750FDF71CFA00214DF2F0
:105238000850FDF717FA5C214DF20950FDF712FAF4
:1052480000214DF20A50FDF70DFA81214DF20B5065
:10525800FDF708FA00214DF20C50FDF703FAA621DC
:105268004DF20D50FDF7FEF900214DF20E50FDF7FD
:10527800F9F9E5214DF20F50FDF7F4F901214DF24E
:105288001050FDF7EFF913214DF21150FDF7EAF92F
:1052980001214DF21250FDF7E5F954214DF213505A
:1052A800FDF7E0F901214DF21450FDF7DBF98221F9
:1052B8004DF21550FDF7D6F901214DF21650FDF7C4
:1052C800D1F9CA214DF21750FDF7CCF902214DF260
:1052D8001850FDF7C7F900214DF21950FDF7C2F932
:1052E80002214DF21A50FDF7BDF901214DF21B5074
:1052F800FDF7B8F902214DF21C50FDF7B3F934213E
:105308004DF21D50FDF7AEF902214DF21E50FDF78A
:10531800A9F967214DF21F50FDF7A4F902214DF2BA
:105328002050FDF79FF984214DF22150FDF79AF99D
:1053380002214DF22250FDF795F9A4214DF2235098
:10534800FDF790F902214DF22450FDF78BF9B721B2
:105358004DF22550FDF786F902214DF22650FDF752
:1053680081F9CF214DF22750FDF77CF902214DF24A
:105378002850FDF777F9DE214DF22950FDF772F933
:1053880002214DF22A50FDF76DF9F2214DF22B5012
:10539800FDF768F902214DF22C50FDF763F9FE2163
:1053A8004DF22D50FDF75EF903214DF22E50FDF719
:1053B80059F910214DF22F50FDF754F903214DF200
:1053C8003050FDF74FF933214DF23150FDF74AF9CE
:1053D80003214DF23250FDF745F96D214DF233505E
:1053E800FDF740F900214FF45640FDF73BF9332112
:1053F8004DF20160FDF736F900214DF20260FDF72C
:1054080031F934214DF20360FDF72CF900214DF2FA
:105418000460FDF727F93A214DF20560FDF722F9FE
:1054280000214DF20660FDF71DF94A214DF2076093
:10543800FDF718F900214DF20860FDF713F95C211A
:105448004DF20960FDF70EF900214DF20A60FDF7F3
:1054580009F981214DF20B60FDF704F900214DF2A5
:105468000C60FDF7FFF8A6214DF20D60FDF7FAF884
:1054780000214DF20E60FDF7F5F8E5214DF20F60C1
:10548800FDF7F0F801214DF21060FDF7EBF813215C
:105498004DF21160FDF7E6F801214DF21260FDF7BB
:1054A800E1F854214DF21360FDF7DCF801214DF2CB
:1054B8001460FDF7D7F882214DF21560FDF7D2F898
:1054C80001214DF21660FDF7CDF8CA214DF21760A3
:1054D800FDF7C8F802214DF21860FDF7C3F8002166
:1054E8004DF21960FDF7BEF802214DF21A60FDF782
:1054F800B9F801214DF21B60FDF7B4F802214DF215
:105508001C60FDF7AFF834214DF21D60FDF7AAF8D5
:1055180002214DF21E60FDF7A5F867214DF21F60CC
:10552800FDF7A0F802214DF22060FDF79BF88421D9
:105538004DF22160FDF796F802214DF22260FDF749
:1055480091F8A4214DF22360FDF78CF802214DF269
:105558002460FDF787F8B7214DF22560FDF782F842
:1055680002214DF22660FDF77DF8CF214DF227602C
:10557800FDF778F802214DF22860FDF773F8DE2177
:105588004DF22960FDF76EF802214DF22A60FDF711
:1055980069F8F2214DF22B60FDF764F802214DF213
:1055A8002C60FDF75FF8FE214DF22D60FDF75AF8EB
:1055B80003214DF22E60FDF755F810214DF22F60B2
:1055C800FDF750F803214DF23060FDF74BF8332119
:1055D8004DF23160FDF746F803214DF23260FDF7D8
:1055E80041F86D214DF23360FDF73CF855214FF439
:1055F8007040FDF737F8AA214FF20100FDF732F8A5
:1056080052214FF20200FDF72DF808214FF2030056
:10561800FDF728F800214FF20400FDF723F8CC210C
:105628004FF43140FDF71EF800214BF20110FDF751
:1056380019F805214FF43640FDF714F870214FF49E
:105648003740FDF70FF870214BF20170FDF70AF8AB
:1056580001214FF43840FDF705F803214BF601000E
:10566800FDF700F803214BF60200FCF7FBFF0321CE
:105678004BF60300FCF7F6FF02214FF43C40FCF721
:10568800F1FF00214BF60140FCF7ECFF00214BF63F
:105698000240FCF7E7FFD0214FF44940FCF7E2FF56
:1056A80002214CF60110FCF7DDFF50214CF60210E8
:1056B800FCF7D8FF50214CF60310FCF7D3FF50211C
:1056C8004CF60410FCF7CEFF00214FF45450FCF7C1
:1056D800C9FF55214FF46850FCF7C4FF4FF48850B8
:1056E800FCF77EFF012004F057FE4FF42450FDF72D
:1056F800ECBE47F6F001E520FCF7B4FF4FF48071EB
:105708000120FCF7AFFF4FF4E0610220FCF7AAFF8D
:1057180041F230010320FCF7A5FF00210420FCF72B
:10572800A1FF40F202210820FCF79CFF002109207C
:10573800FCF798FF00210A20FCF794FF00210C20B9
:10574800FCF790FF00210D20FCF78CFF00210F20B3
:10575800FCF788FF00211020FCF784FF07211120A7
:10576800FCF780FF00211220FCF77CFF00211320AA
:10577800FCF778FF00210720FCF774FF41F29061E5
:105788001020FCF76FFF40F227211120FCF76AFF79
:105798009D211220FCF766FF4FF4C8511320FCF737
:1057A80061FF25212920FCF75DFF0D212B20FCF747
:1057B80059FF07213020FCF755FF40F20331312013
:1057C800FCF750FF03213220FCF74CFF40F2062182
:1057D8003520FCF747FF08213620FCF743FF40F24D
:1057E80006413720FCF73EFF4FF441713820FCF7A3
:1057F80039FF07213920FCF735FF40F202613C20D0
:10580800FCF730FF08213D20FCF72CFF0021502039
:10581800FCF728FFEF215120FCF724FF002152203C
:10582800FCF720FF40F23F115320FCF71BFF4FF419
:1058380027416020FCF716FF01216120FCF712FFC9
:1058480000216A20FCF70EFF00218020FCF70AFFE8
:1058580000218120FCF706FF00218220FCF702FFCF
:1058680000218320FCF7FEFE00218420FCF7FAFECD
:1058780000218520FCF7F6FE10219020FCF7F2FEAF
:105888004FF4C0619220FCF7EDFE40F2331107207F
:10589800FCF7E8FE2221002098E141F28F01EC207C
:1058A800FCF7E0FE41F23421EF20FCF7DBFE4FF479
:1058B80080710120FCF7D6FE4FF4E0610220FCF76E
:1058C800D1FE41F230010320FCF7CCFE0021042078
:1058D800FCF7C8FE40F202210820FCF7C3FE0021B5
:1058E8000920FCF7BFFE00210A20FCF7BBFE0121BE
:1058F8000C20FCF7B7FE00210D20FCF7B3FE0021B9
:105908000F20FCF7AFFE00211020FCF7ABFE0721AB
:105918001120FCF7A7FE00211220FCF7A3FE0021AE
:105928001320FCF79FFE01210720FCF79BFE322085
:1059380004F032FD41F290411020FCF793FE40F252
:1059480027211120FCF78EFE322004F025FD8A2144
:105958001220FCF787FE322004F01EFD4FF4D051D0
:105968001320FCF77FFE06212920FCF77BFE0D2182
:105978002B20FCF777FE322004F00EFD00212020BA
:10598800FCF770FE00212120FCF76CFE322004F0A9
:1059980003FD00213020FCF765FE40F20461312050
:1059A800FCF760FE40F205313220FCF75BFE002177
:1059B8003520FCF757FE40F609413620FCF752FE29
:1059C8004FF401713720FCF74DFE40F201313820C9
:1059D800FCF748FE40F207713920FCF743FE00212E
:1059E8003C20FCF73FFE40F60A213D20FCF73AFE3A
:1059F800322004F0D1FC00215020FCF733FEEF21C7
:105A08005120FCF72FFE00215220FCF72BFE40F21C
:105A18003F115320FCF726FE4FF427416020FCF786
:105A280021FE01216120FCF71DFE00216A20FCF700
:105A380019FE00218020FCF715FE00218120FCF7CB
:105A480011FE00218220FCF70DFE00218320FCF7C7
:105A580009FE00218420FCF705FE00218520FCF7C3
:105A680001FE10219020FCF7FDFD4FF4C06192204B
:105A7800FCF7F8FD40F23311A7E000210846FCF7D7
:105A8800F1FD4FF480710120FCF7ECFD4FF4E0616B
:105A98000220FCF7E7FD41F230010320FCF7E2FDAC
:105AA80000210420FCF7DEFD40F202210820FCF76B
:105AB800D9FD00210920FCF7D5FD00210A20FCF7BB
:105AC800D1FD01210C20FCF7CDFD00210D20FCF7B4
